:020000040800F2
:10000000D8800020A1010008EF170008FD140008A7
:10001000ED170008FD020008991C00080000000010
:10002000000000000000000000000000F3170008BE
:10003000FF02000800000000F1170008F517000893
:10004000BB010008BB010008BB010008BB010008A0
:10005000BB010008BB010008BB010008BB01000890
:10006000BB010008BB010008BB010008BB01000880
:10007000BB010008BB010008BB010008BB01000870
:10008000BB010008BB010008BB010008BB01000860
:10009000BB010008BB010008BB010008BB01000850
:1000A000BB0100089D180008BB010008BB01000847
:1000B000A9180008BB010008BB010008BB0100082B
:1000C000BB010008BB010008BB010008BB01000820
:1000D000BB0100088D1C0008BB010008BB01000823
:1000E000BB010008BB010008BB010008BB01000800
:1000F000BB010008BB010008BB010008BB010008F0
:10010000BB010008BB010008BB010008BB010008DF
:10011000BB010008BB010008BB010008BB010008CF
:10012000BB010008BB010008BB010008BB010008BF
:10013000BB010008BB010008BB010008BB010008AF
:10014000BB010008BB010008BB010008BB0100089F
:10015000BB010008BB010008BB010008BB0100088F
:10016000BB010008BB010008BB010008BB0100087F
:10017000BB010008BB010008BB0100080000000033
:10018000BB010008BB010008DFF810D000F0A4F8A4
:100190000048004709270008AFF30080D8800020FE
:1001A0000648804706480047FEE7FEE7FEE7FEE711
:1001B000FEE7FEE7FEE7FEE7FEE7FEE78D18000834
:1001C000890100082DE9F05F0546002092469B4614
:1001D00088460646814640241BE02846414647465D
:1001E000224600F069F853465A46C01A914110D38E
:1001F00011461846224600F050F82D1A67EB010808
:100200004F4622460120002100F047F817EB000975
:100210004E41201EA4F10104DFDC484631462A4647
:100220004346BDE8F09F40EA01039B0703D009E085
:1002300008C9121F08C0042AFAD203E011F8013BD2
:1002400000F8013B521EF9D27047D2B201E000F82B
:10025000012B491EFBD270470022F6E710B513466A
:100260000A4604461946FFF7F0FF204610BD30B598
:100270000B46014600202022012409E021FA02F564
:100280009D4205D303FA02F5491B04FA02F52844FE
:10029000151EA2F10102F1DC30BD202A04DB203A58
:1002A00000FA02F1002070479140C2F1200320FAC9
:1002B00003F3194390407047202A04DB203A21FAC7
:1002C00002F00021704721FA02F3D040C2F120026F
:1002D0009140084319467047064C074D06E0E06818
:1002E00040F0010394E8070098471034AC42F6D37D
:1002F000FFF74EFF382B0008582B0008FEE7704729
:1003000072B6FEE72DE9F0410446876D00F058F91A
:10031000064694F835000025022806D08020606546
:1003200084F834500120BDE8F0812068016821F094
:10033000160101602068416921F080014161206C53
:1003400008B9A06C20B12068016821F008010160A3
:100350002068016821F0010101600CE000F030F933
:10036000801B052807D920206065032084F835000C
:1003700084F83450D7E720680068C007EED194F8BD
:100380005C103F208840B860012084F8350084F874
:1003900034500020C7E790F83510022903D080219F
:1003A000416501207047052180F83510006801681B
:1003B00021F0010101600020704700002DE9F84F95
:1003C000DFF8BCA10022012503264FF00F090AF136
:1003D000040BAAF1040E00BF0B6805FA02F42340D7
:1003E000A34270D10F7907F00307012F01D0022F2C
:1003F00016D187684FEA420806FA08FC27EA0C077C
:10040000D1F80CC00CFA08FC4CEA070CC0F808C084
:100410004768A7430C79C4F3001494403C434460FC
:100420000C79E443A4070AD0C4684FEA420C06FAE8
:100430000CF7BC438F6807FA0CF72743C7600C79A9
:1004400004F00304022C12D1D40800EB840CDCF875
:1004500020405707FF0E09FA07F824EA0804D1F8EC
:10046000108008FA07F848EA0408CCF820800468ED
:100470004FEA420C06FA0CF7BC430F7907F003076A
:1004800007FA0CF7274307604C6814F4403F70D01C
:100490003C4C276847F480472760246822F0030714
:1004A00004F480440094384C07EB040CDCF8084852
:1004B00097074FEA177809FA08F7BC43334FB84259
:1004C00002D1002724E054E0314FB84201D1012786
:1004D0001EE0304FB84201D1022719E02E4FB8423A
:1004E00001D1032714E02D4FB84201D104270FE0BA
:1004F0002B4FB84201D105270AE02A4FB84201D15B
:10050000062705E0284FB84201D1072700E0082759
:1005100007FA08F72743CCF80878DAF8004057467E
:10052000D1F804C09C435FEACC2C00D51C433C604E
:10053000DBF800405F46D1F804C09C435FEA8C2C96
:1005400000D51C433C60DEF800407746D1F804C07B
:100550009C435FEA8C3C00D51C433C60084F083F3D
:100560003C68D1F804C09C435FEACC3C00D51C43F6
:100570003C60521C102AFFF42FAFBDE8F88F00003A
:10058000083C014044380240003001400000024075
:100590000004024000080240000C0240001002402B
:1005A0000014024000180240001C0240006908408C
:1005B00000D0012070470AB1816170470904FBE750
:1005C00001488068704700005000002002488168A0
:1005D0000278114481607047500000200B4810B52C
:1005E000016841F400710160016841F480610160BB
:1005F000016841F480710160032000F095F80F203C
:1006000000F006F800F04AF8002010BD003C02405F
:1006100030B505461C4887B00024016841F001014F
:100620000160006806A900F00100009001A800F038
:1006300027F900F055F915494000B0FBF1F11548D4
:10064000134A491E026040F2E732C0E90324C0E9C0
:100650000114846100F084FB040012D10D4800F005
:10066000C9FB04000DD1192000F030F8102D07D27D
:1006700000222946192000F037F80748056000E0FD
:10068000012407B0204630BD4438024040420F00EC
:100690000000014090400020540000200A4808B5A6
:1006A000016841F480410160006800F480400090DE
:1006B0000548001F016841F080510160006800F0AA
:1006C0008050009008BD000044380240002809DB3B
:1006D00000F01F02012191404009800000F1E0205C
:1006E000C0F8001170470000F0B40E4B1B680C46B8
:1006F000C3F30223C3F10705042D00D90425191DF6
:10070000072901D2002300E0DB1E012606FA05F1CD
:10071000491E214099409E40761E16403143F0BC50
:1007200001F0DFBA0CED00E0064900F007020868AE
:100730004FF6FF03184040EA0220034A10430860C6
:10074000704700000CED00E00000FA052DE9F047CD
:100750000E46050065D0DFF81481D8F80000F7B226
:1007600000F00700B04207D288F80070D8F8000007
:1007700000F00700B04254D128683D4C810712D5E3
:10078000400703D5206840F4E05020602878000737
:1007900003D5206840F4604020602068A96820F0FC
:1007A000F000084320602878C0072DD030496868E1
:1007B0000839012812D0022813D0032811D0096863
:1007C000890700292DDA216821F003010143216006
:1007D000FFF7F6FE814641F2883A0EE00968890388
:1007E000EFE709688901ECE7FFF7EAFEA0EB0901F2
:1007F000514502D90320BDE8F0872068696800F000
:100800000C00B0EB810FEFD1D8F80010404601F09A
:100810000701B14207D90770006800F00700B04235
:1008200001D00120E7E72878400705D52068E9686E
:1008300020F4E050084320602878000706D520689F
:10084000296920F4604040EAC100206000F058F8B7
:100850002168084AC1F30311515CC8400649086089
:1008600006480068FFF7D4FE0020C4E7003C0240C1
:1008700008380240002B00085C00002054000020D3
:100880000F2202600C4A136803F0030343601368ED
:1008900003F0F0038360136803F4E053C36012684D
:1008A0004FF4E05303EAD20202610448006800F00A
:1008B000070008607047000008380240003C024012
:1008C0000448054900680968044AC1F38221515C63
:1008D000C84070475C00002008380240102B000818
:1008E0000448054900680968044AC1F34231515C73
:1008F000C84070475C00002008380240102B0008F8
:10090000154810B5006810F00C02144813D04110BF
:10091000042A0FD0082A0ED10F4C241F2268236806
:1009200002F03F025B0207D52068C0F38810A0FBED
:10093000010106E0084610BD2168C1F38811A1FB42
:1009400000010023FFF73EFC2168C1F30141491C6F
:100950004900B0FBF1F010BD083802400024F4005B
:100960002DE9F84F04006ED02078DFF84C93C007D3
:10097000A9F104054AD009F104000168C1F381011D
:10098000012908D00068C0F3810002280AD1D9F8F3
:100990000000400206D52868800337D5606800282B
:1009A000E1D033E06068B0F5803F10D0B0F5A02F03
:1009B000286810D020F480302860286820F4802037
:1009C00028606068A8B1FFF7FBFD06460DE02868C7
:1009D00040F48030F4E740F480202860F7E700BF5F
:1009E000FFF7EEFD801B642873D828688003F7D5D5
:1009F0000CE0FFF7E5FD064605E000BFFFF7E0FD70
:100A0000801B6428F0D828688003F7D42078DFF8AA
:100A1000AC8280074FF0000A3ED5A748001D016850
:100A200011F00C0F08D00068C0F3810002280BD130
:100A3000D9F80000400207D42868800716D5E0687E
:100A4000012800D112E033E1E068B8B10120C8F814
:100A50000000FFF7B5FD064605E000BFFFF7B0FD5B
:100A6000801B0228C0D828688007F7D5286821692C
:100A700020F0F80040EAC10028600DE0C8F800A0AE
:100A8000FFF79EFD064604E0FFF79AFD801B022853
:100A90001FD828688007F7D42078000722D5864F12
:100AA00087486169703771B101210160FFF788FDE6
:100AB000064604E0FFF784FD801B022809D8386849
:100AC0008007F7D50EE0C0F800A0FFF779FD0646D5
:100AD00005E082E0FFF774FD801B02287DD83868AE
:100AE0008007F7D42078400768D5DFF8CCB100271D
:100AF0000BF13C0BDBF80000C0000BD4DBF800105E
:100B000041F08051CBF80010DBF80000012700F025
:100B1000805000906B4E3068C00510D4306840F4AF
:100B200080703060FFF74CFD009005E0FFF748FD56
:100B30000099401A022850D83068C005F6D55E4E9C
:100B4000A0686C3601280FD00528306810D020F03E
:100B500001003060306820F004003060A068B8B157
:100B6000FFF72EFD00900FE0306840F00100F4E741
:100B700040F004003060F7E7FFF722FD0099411ACA
:100B800041F28830814266D830688007F4D50EE0A3
:100B9000FFF716FD009007E0FFF712FD0099411ADC
:100BA00041F28830814256D830688007F4D42FB1A2
:100BB000DBF8001021F08051CBF80010A069C8B319
:100BC0003D49091D0968C1F3810102294AD0022863
:100BD000504607D0C8F8600000E03CE0FFF7F0FCAA
:100BE00004463BE04746C8F86000FFF7E9FC0646CC
:100BF00005E000BFFFF7E4FC801B02282BD8286823
:100C00008001F7D4D4E907010843A16A2E4A4908B4
:100C100002EB0141626A41EA8211084394F82C1008
:100C200040EA0161C9F8001001203866FFF7C8FCEE
:100C3000044606E03EE000BFFFF7C2FC001B0228AE
:100C400009D828688001F7D534E000BFFFF7B8FC69
:100C5000001B022802D90320BDE8F88F2868800114
:100C6000F4D427E00128F7D0D9F80000E26900F4B5
:100C7000800191421CD1226A00F03F01914217D1BC
:100C800047F6C071626A0140B1EB821F10D1A26ABF
:100C90004FF0FF3300F4403103EB5202B1EB024F4F
:100CA00006D194F82C1000F07060B0EB016F01D009
:100CB0000120D1E70020CFE704380240000047427E
:100CC000800E4742007000400000FFFF70477047F1
:100CD00070B590F83C20012A32D0012480F83C40C5
:100CE000022280F83D2003685A689D6822F0700651
:100CF0000A6832435A60134B02689A4214D0B2F128
:100D0000804F11D0104B9A420ED0104B9A420BD00C
:100D10000F4B9A4208D00F4B9A4205D00E4B9A4285
:100D200002D00E4B9A4204D1496825F08003194342
:100D3000916080F83D40002180F83C10084670BD6D
:100D4000022070BD00000140000400400008004087
:100D5000000C004000040140004001400018004029
:100D600010B5040003D094F83D0010B107E0012055
:100D700010BD002084F83C00204600F01FF802203F
:100D800084F83D00211D206800F094FD012084F8C6
:100D9000460084F83E0084F83F0084F8400084F860
:100DA000410084F8420084F8430084F8440084F849
:100DB000450084F83D00002010BD000008B5006823
:100DC000B0F1804F12D10A48016841F00101016081
:100DD0000068002200F00100009011461C20FFF77F
:100DE00083FCBDE808401C20FFF770BC08BD000074
:100DF0004038024090F83D10012901D00120704791
:100E0000022180F83D100168CA6842F00102CA6000
:100E100000681149884214D0B0F1804F11D00F49B9
:100E200088420ED00E4988420BD00E49884208D025
:100E30000D49884205D00D49884202D00C498842AC
:100E400004D1816801F00701062903D0016841F04F
:100E500001010160002070470000014000040040D3
:100E600000080040000C0040000401400040014028
:100E70000018004070B5044690F83C000025012899
:100E800017D0012684F83C60022084F83D002068D9
:100E9000826822F0770222F47F428260086850283C
:100EA00038D00DDC20284FD005DC90B3102811D1AC
:100EB0004AE0022070BD302846D040280AD13BE0ED
:100EC00060282FD070280DD0B0F5805F03D0B0F52A
:100ED000005F12D0012584F83D60002084F83C00BA
:100EE000284670BDCB68D1E90121206800F04AFD99
:100EF0002068816841F0770109E0CB68D1E90121E0
:100F0000206800F03FFD2068816841F480418160E5
:100F1000E1E719E0CA684968206800F045FD502102
:100F2000206806E0CA684968206800F04EFD60212C
:100F3000206800F031FDCEE7CA684968206800F0FB
:100F400033FD40212068F4E7226801461046F0E7AF
:100F500070472DE9F04104460068C66805694FF006
:100F60000007A90713D5B10711D5F91E01610120AA
:100F70002077206880698007204602D0FFF7E8FFCD
:100F800004E000F07EF8204600F07CF82777680740
:100F900016D5700714D521686FF00400086102208F
:100FA00020772068806910F4407F204602D0FFF748
:100FB000CFFF04E000F065F8204600F063F82777E3
:100FC000280715D5300713D521686FF00800086190
:100FD000042020772068C0698007204602D0FFF7F0
:100FE000B7FF04E000F04DF8204600F04BF82777FB
:100FF000E80616D5F00614D521686FF010000861D8
:10100000082020772068C06910F4407F204602D075
:10101000FFF79EFF04E000F034F8204600F032F8BD
:101020002777E80708D0F00706D021686FF00100A5
:101030000861204600F028F8280608D5300606D5B5
:1010400021686FF0800008612046FFF73FFE6806C8
:1010500008D5700606D521686FF04000086120466B
:1010600000F026F8A8060AD5B00608D521686FF06A
:10107000200008612046BDE8F041FFF728BEBDE82A
:10108000F08170477047000010B5044600680749BA
:10109000884201D1FFF79AFA2068B0F1804F03D15E
:1010A000BDE8104000F062BA10BD00000000014031
:1010B0007047704770470000F8B50168044608683B
:1010C000CA684B6910F00F0F4FF0000559D003F0BC
:1010D000010602F49077374365D0C10705D0D105EA
:1010E00003D5616C41F001016164410705D5D90761
:1010F00003D0616C41F002016164810705D5D90715
:1011000003D0616C41F004016164010707D502F06E
:101110002001314303D0616C41F008016164616CCE
:1011200000293AD0800604D5900602D5204600F06A
:101130008CFC20684069616CC0F38010090700D402
:1011400060B3204600F05AFC20684069400621D573
:101150002068143050E8001F21F0400140E80012E0
:10116000002AF5D1E06BA8B172490165E06BFFF789
:1011700012F9002811D0E06B016D01B0BDE8F0401C
:10118000084783060FD593060DD52046BDE8F840E5
:1011900000F05BBC2046FFF78DFFF8BD2046FFF74F
:1011A00089FF6564F8BD266B2023012E7ED1C6061B
:1011B0007CD5D6067AD508684868009048694FF013
:1011C000020640064DD5E26B106840684FF4807708
:1011D0000004000C3AD0A18D814237D9E085D06956
:1011E000B8422DD020680C3050E8001F21F48071E7
:1011F00040E80012002AF5D12068143050E8001FA2
:1012000021F0010140E80012002AF5D120681430D5
:1012100050E8001F21F0400140E80012002AF5D1FB
:1012200084F84230256320680C3050E8001F21F01C
:10123000100140E80012002AF5D1E06BFFF762F8D8
:101240006663A08DE18D401A81B206E0A18D8142D6
:10125000A8D1D069B842A5D166632046FFF729FF1F
:10126000F8BDA08DE18D401A81B2E08D0028F7D045
:101270000029F5D020680C3050E8002F22F490723D
:1012800040E80027002FF5D12068143050E8002FE7
:1012900022F0010240E80027002FF5D184F8423007
:1012A000256320680C3050E8002F00E006E022F0B3
:1012B000100240E80023002BF3D1CDE705062BD523
:1012C000150629D594F841002128C9D1A068B0F5A8
:1012D000805F01D12069B0B1206A411C2162216880
:1012E00000784860E08C401E0004000CE084B7D118
:1012F0002068C16821F08001C1602068C16841F0A8
:101300004001C160F8BD206A0088C0F30800486051
:10131000206A801C2062E5E74006F3D55006F1D52F
:10132000CA68204622F04002CA6084F8413000F0CA
:10133000E4F8F8BDEF19000870B5040004D094F883
:101340004100002510B106E0012070BD84F8405036
:10135000204600F023F8242084F841002068C1686A
:1013600021F40051C160204600F0D0FB20680169E3
:1013700021F4904101612068416921F02A01416115
:101380002068C16841F40051C1606564202084F880
:10139000410084F842006563002070BDF0B587B05D
:1013A000044614216846FEF757FF274F23680022A2
:1013B00026490224032507262548BB4224D1234B76
:1013C00014331F6847F010071F601B6803F01003F9
:1013D00005930B6843F001030B60096802AB01F051
:1013E000010105916902CDE9001483E864006946B2
:1013F000FEF7E4FF002201212520FFF775F92520E3
:10140000FFF764F907B0F0BD124FBB42FAD10F4BA2
:1014100010331F6847F400371F601B6803F4003364
:1014200005930B6843F001030B60096802AB01F000
:10143000010105910C21CDE9001483E8640069469F
:10144000FEF7BCFFDEE7000000100140303802402C
:10145000000002400044004070472DE9F843044674
:1014600090F84100984616460D46202802D00220EA
:10147000BDE8F88385B17EB100206064212084F846
:101480004100FFF79DF8A6848146E684A0682027E6
:10149000B0F5805F02D003E00120E9E7206910B1D8
:1014A0002E4600250EE000260CE08021204600F0AC
:1014B000B3FBA8B9C6B116F8010B21684860E08CEF
:1014C000401EE084E08C4B464FF00002CDF80080D7
:1014D0000028EAD14FF04001204600F09DFB40B1CA
:1014E00084F841700320C3E735F8020BC0F308000D
:1014F000E3E784F841700020BAE77047FEE7000098
:101500000148407870470000000000200148007842
:10151000704700000000002070B51248114C0125F2
:10152000807C241F01280CD1810222780E481AB138
:1015300000222270012202E0257065700022FFF770
:101540003AF82078002809D006481C30807C012811
:1015500005D0022801D0032800D1607070BD6570ED
:1015600070BD0000040000200014024010B51148B6
:1015700000F024F80F481C3000F020F8FFF7CCFFF3
:101580000C4A121F107800280BD053780A484FF4E9
:101590008061012B06D0022B06D0032B02D0012044
:1015A000507010BD012200E00022BDE81040FFF79E
:1015B00002B80000040000200014024070B5044688
:1015C00081880068FEF7F2FFE0B10025FEF7F8FF22
:1015D00001460020A074227EAA4205D062699AB119
:1015E0008A1A0A2A01D325766061227EA679012310
:1015F00066B10225012E10D0022E1FD0032E32D04C
:10160000A07170BD0125E1E76161EEE7002AF8D025
:10161000A371A1602074607470BDA068081AB0F551
:101620007A7F04D30320A0716374A07470BD002A74
:10163000FCD1A571E160207C401C0DE0E6688E1BAA
:10164000C82E0BD3217C012902D0022902D00CE044
:10165000A3740AE0A57408E0207470BD002AFCD0D1
:10166000A371A16070BD002AFCD1A071F4E7000055
:101670001C220149FEF7D7BD0400002030B587B019
:1016800014216846FEF7E8FD20480024016841F077
:1016900010010160016801F010010591016841F03D
:1016A00020010160016801F020010591016841F00D
:1016B00080010160016801F080010591016841F03D
:1016C000010101600068124D00F001000122059047
:1016D00051022846FEF76FFF002229152846FEF723
:1016E0006AFF1820CDE9000469460A480294FEF713
:1016F00065FE4FF4C06000900120CDE90104694609
:1017000028460394FEF75AFE07B030BD3038024039
:10171000001402400010024010B586B000241648A4
:10172000009401940294039404944FF08041059432
:1017300001605321C0E901143121C0E90314802163
:101740008161FFF70DFB08B1FEF7DAFD4FF4805021
:10175000009069460848FFF78DFB08B1FEF7D0FD01
:10176000049404A904480594FFF7B2FA002801D0B4
:10177000FEF7C6FD06B010BDB83F00200C4810B5FE
:101780000A4901604FF4E1314160002181600C227F
:10179000C160C0E904128161C161FFF7CDFD00287D
:1017A00003D0BDE81040FEF7ABBD10BD00100140F6
:1017B000004000200C4810B50A4901604FF4E131A7
:1017C0004160002181600C22C160C0E90412816186
:1017D000C161FFF7B1FD002803D0BDE81040FEF75E
:1017E0008FBD10BD0044004048400020FEE7FEE7EA
:1017F000704770477047000030B593B0302168469D
:10180000FEF72AFD14210CA8FEF726FD1D48002531
:10181000016841F080510160006800F08050119033
:101820001948016841F4804101600068022400F415
:101830008040119001200090000401908001CDE9CA
:10184000064008AA0420A82182E813000B906846ED
:10185000FFF786F808B172B6FEE70CA90F2081E801
:1018600031004FF4A0500F904FF48050109005219C
:101870000CA8FEF76BFF002801D072B6FEE713B08C
:1018800030BD00004038024000700040024801684E
:1018900041F470010160704788ED00E00148FFF7F6
:1018A00058BB0000904000200148FFF752BB0000E9
:1018B000B83F0020F0B50268274B284D284E294F2D
:1018C000294C4FF0804C984209D0604507D0A8427F
:1018D00005D0B04203D0B84201D0A04204D122F0DA
:1018E000700E4A6842EA0E0298421BD0604519D039
:1018F000A84217D0B04215D0B84213D0A04211D0A0
:101900001A4DA8420ED01A4DA8420BD0194DA8422C
:1019100008D0194DA84205D0184DA84202D0184D44
:10192000A84203D122F44075CA682A434D6922F0C7
:1019300080022A438D68C5620D688562984201D095
:10194000A04201D109690163016841F0040101600D
:10195000012141610260F0BD00000140000400402F
:1019600000080040000C004000040140004001401D
:10197000004401400048014000180040001C0040A5
:101980000020004010B5846842EA032224F47F441A
:101990000A432243826010BD826822F070020A432B
:1019A00042F007018160704710B5036A046A24F0B1
:1019B00001040462846924F0F00444EA021423F070
:1019C0000A020A438461026210BD10B5036A046A08
:1019D00024F010040462846923F0A00324F470440A
:1019E00044EA023243EA01118261016210BD10B57E
:1019F000806B0021C185FFF75DFB10BD01680C31D4
:101A000051E8002F22F4907241E80023002BF5D119
:101A10000168143151E8002F22F0010241E800234F
:101A2000002BF5D1016B012909D101680C3151E876
:101A3000002F22F0100241E80023002BF5D12021D5
:101A400080F8421000210163704708B590F84210F9
:101A5000222901D0022008BD82684FF480539A42A7
:101A600001D1016921B1816A9A421BD04AB10AE0D1
:101A70000268816A5268C2F308020A80816A891C7E
:101A800008E0026972B10268526802F07F020A70CF
:101A9000816A491C8162C18D491E0904090CC185F6
:101AA00003D01BE002685268F1E70168CA6822F0BF
:101AB0002002CA600168CA6822F48072CA600168A4
:101AC0004A6922F001024A61202180F84210002177
:101AD0004163026B012A03D0FFF7BEFC002008BD62
:101AE000016301680C3151E8002F22F0100241E837
:101AF0000023002BF5D101680A68D20602D50A68D6
:101B000049680091818DFFF7D4FAE7E770B5044684
:101B100000680169E26821F44051114301612169C3
:101B2000A068E26908436169114308432168CA68F3
:101B300049F20C639A430243CA6020684169A26972
:101B400021F440711143416131492068884202D03B
:101B50003049884202D1FEF7C3FE01E0FEF7B0FE35
:101B6000E2690023192164253226B2F5004F62682C
:101B700028D0A0FB0101930F9200FEF723FB014642
:101B8000B0FBF5F06FF01802504301EB800006EB5C
:101B90000010B0FBF5F000F0F002B1FBF5F002EB45
:101BA0000012B1FBF5F06FF01803584301EB800011
:101BB00006EB0010B0FBF5F000F00F0021681044B8
:101BC000886070BDA0FB010192185B41FEF7FAFA34
:101BD0000146B0FBF5F00201B1FBF5F06FF0180320
:101BE000584301EB800006EBC000B0FBF5F000F0BD
:101BF000F80002EB4002B1FBF5F0584301EB800026
:101C000006EBC000B0FBF5F000F00700D6E70000DF
:101C100000100140001401402DE9F8439846174692
:101C20000D460446089E24E0701C22D0FEF7C8FC36
:101C3000A0EB0800B0421AD8CEB12068C1684907AD
:101C400017D5802D15D0402D13D00168C943090741
:101C50000FD401680025406800902046FFF7CEFEB3
:101C60000820606484F840500120BDE8F883032018
:101C7000FBE72068006835EA000004D00020B84285
:101C8000D2D00020F1E70120F9E700000148FFF77A
:101C900013BA000000400020FEE700000FB4054B1F
:101CA00010B503A9044A029800F08CFA10BC5DF844
:101CB00014FB0000FD230008600000204100080222
:101CC00018BF04200A0E18BF40F001004FF07F42F9
:101CD00032EA010108BF40F00200012808BF0520D8
:101CE00070470907090E002804DB00F1E02080F8A6
:101CF0000014704700F00F0000F1E02080F8141D80
:101D00007047000010EE101A08B5444A6846B2EB5E
:101D1000410F28D94FF0E640B0EB410F94BF0020AF
:101D20004FF0FF3000900098002861DB60EE000A61
:101D300010F0010F45D010F0020FDFED391A9FEDC2
:101D4000391A00EEE11ADFED381A40EE811A21EE61
:101D5000A01AF0EE400A40EE010A08BFF1EE600A58
:101D6000B0EE600A08BD314B21F0004293423CD9ED
:101D700011F0004FDFED2E0A20EE201ADFED2D0AC4
:101D800019BF31EE601A71EE200A31EE201A71EEA1
:101D9000600ABDEEE01A11EE100A9FED271A00F05E
:101DA000030000EEC10A9FED251A009000EEC10A63
:101DB0009FED231A00EEC10A9FED221A00EEC10A20
:101DC000B1E79FED211A9FED210A10F0020F00EEFE
:101DD000810A9FED1F1A00EE801AB7EE000A00EE8E
:101DE000810A18BFB1EE400A08BD00F02BF99AE74E
:101DF00010EE100A4000B0F17F4F3CBFB7EE000A72
:101E000008BD07D14FF0010000F0D6F9BDE8084049
:101E100000F008B9BDE8084000F001B9B61F927E95
:101E2000336D4C39DA82083CA0AA2ABE490E4946D5
:101E300083F9223F0000004B0000C93F00A0FD399C
:101E40000020A2331A61342CB93AB2BACA9F2A3D93
:101E5000DDFFFFBE00B510EE101A2DED028B81B034
:101E6000524A6846B2EB410F2ED94FF0E640B0EB34
:101E7000410F94BF00204FF0FF3000900098B0EE6B
:101E8000408A00286ADB10F0010F4BD068EE080A88
:101E90009FED471A9FED470A00EE810A9FED461A13
:101EA00010F0020F00EE801AB7EE000A00EE810A71
:101EB00002BF01B0BDEC028B00BD00BF01B0B1EEAE
:101EC000400ABDEC028B00BD3C4B21F00042934226
:101ED00041D911F0004FDFED3A0A20EE201ADFED74
:101EE000390A19BF31EE601A71EE200A31EE201A5C
:101EF00071EE600ABDEEE01A11EE100A9FED321A83
:101F000000F0030000EEC10A9FED301A009000EED1
:101F1000C10A9FED2F1A00EEC10A9FED2E1A00EEA6
:101F2000C10AABE728EE080A9FED2B1ADFED2B0A5A
:101F300010F0020F40EE410A9FED291A00EE201A20
:101F400061EE000AB0EE480A08EE200AB6D101B0F0
:101F5000BDEC028B00BD00F075F88FE718EE100A9B
:101F60004000B0F17F4F0DD218EE100AFFF7A6FE29
:101F7000042808BF00F05EF8B0EE480A01B0BDECDE
:101F8000028B00BD09D1012000F016F901B0BDECB3
:101F9000028B5DF804EB00F045B801B0B0EE480AE2
:101FA000BDEC028B5DF804EB00F039B8B61F927EF1
:101FB000B93AB2BACA9F2A3DDDFFFFBE490E494673
:101FC00083F9223F0000004B0000C93F00A0FD390B
:101FD0000020A2331A61342C336D4C39DA82083C6C
:101FE000A0AA2ABE10B52DED028BB1EEC08A18EE64
:101FF000100A20F00040C0F1FF40C00F0AD010EEE0
:10200000100A20F00040C0F1FF40C00F04BF0120C3
:1020100000F0D2F8B0EE480ABDEC028B10BD30EEF5
:10202000000A7047DFED020A80EEA00A7047000048
:10203000000000009FED020A20EE000A7047000039
:10204000000000102DE9F0014FF07F42B2EB410F8C
:102050009FBF4FF0FF310160BDE8F00170474FF0C6
:10206000004242EA0123C1F3C752783A551112F0F7
:102070001F0C434CCCF120067C44C1F3C752A2F1A3
:1020800078024FEA621204EB820254F8254008BF3E
:10209000D2E9015612D0556804FA0CF425FA06F775
:1020A0003C43976805FA0CF527FA06F8D26807FA58
:1020B0000CFCF24045EA08054CEA0206A4FB034C7E
:1020C000A5FB0352A6FB03631D449D4234BF0126BA
:1020D00000261319334416B1934202D903E0934208
:1020E00001D2012200E00022624402F1200C92069B
:1020F000DC0C42EA443200EE102A5B03DFED210AD9
:10210000F8EEC01A00EE103A4FEA9C1C11F0004F96
:10211000B8EE400AC0F800C020EE201A00EE105AB7
:10212000DFED190AB8EE400A20EE200A71EE810AAE
:1021300070EE800A10EE902A02F500626FF30B0237
:1021400000EE902A70EEE11A31EEC11ADFED101A9E
:1021500030EE411A9FED0D0A20EE800A01EE210AB1
:102160009FED0C1A00EE810A04BFBDE8F001704734
:10217000CCF180510160BDE8F001B1EE400A70473A
:102180009C0A0000000000360000802C22AAFD29D5
:10219000DB0FC92F0000C92F02E008C8121F08C1B9
:1021A000002AFAD170477047002001E001C1121FD8
:1021B000002AFBD170470000014908607047000009
:1021C000640000202DE9FF4F89B09B46044600259E
:1021D00006E025280BD05A460B999047641C6D1CCD
:1021E00020780028F5D10DB02846BDE8F08F0027F3
:1021F000B8460122474900E0074314F8013F203B5D
:1022000002FA03F00842F7D120782E2819D114F8E9
:10221000010F47F004072A280ED06FF02F02207814
:10222000A0F1300109290CD808EB880102EB41012B
:1022300000EB0108641CF2E70A98641C50F8048B58
:102240000A9020780028CED0642808D0692806D0CB
:1022500075281ED05A460B9990476D1C58E00A9974
:102260004FF00A0901C90A91002802DA40422D21E3
:1022700002E0390504D52B218DF82010012103E05F
:10228000F90704D02021F7E78A4608AE0DE00021C7
:10229000FAE70A994FF00A0901C90A91F7E7494696
:1022A000FDF7E5FF303106F8011D0028F7D1ADEB51
:1022B000060000F12009780701D44FF00108C84555
:1022C00002DDA8EB090000E000208046002706E0C0
:1022D00008A85A46C05D0B9990476D1C7F1C574556
:1022E000F6DB04E030205A460B9990476D1CB8F19C
:1022F0000001A8F10108F5DC05E016F8010B5A46CB
:102300000B9990476D1CB9F10001A9F10109F4DCAA
:10231000641C65E709280100F6EE006AB2EE044A83
:1023200061EE265A21EE841A63EE033A62EEA66A43
:10233000C0ED025A00EE441AB1EE004A23EE835A71
:1023400022EE044A25EE036A04EE431AB1EE084A6F
:1023500020EE847A66EE034A07EE431A05EEE31A8E
:1023600006EEA31A81EE057ABAEE0E1AB2EE0E5AF6
:1023700021EE811A00EE051AB1EE0C5A22EE055A32
:1023800005EE031AB2EE005A80ED037A20EE855A6C
:1023900005EE031A05EEA31A02EEE31AC1EE062AB1
:1023A00021EE841A00EE441AC0ED042A80EC020AE1
:1023B000B0EE080A62EE001A20EE800A01EEC31A9F
:1023C00000EE431A05EEE31A06EEA31A81EE240A84
:1023D00080ED050A704700007CB59FED061ADDE927
:1023E0000645F1EE040A9FED040ACDE9004500F030
:1023F00011F87CBD0AD7233C0000000013B54FF054
:10240000FF33012269460248FFF727F800981CBDF8
:10241000004000202DE9F04F6B4E1F462DED068B3E
:10242000BDB0F0EE408A1546DDE94CBA30EEE89AD0
:1024300088468146B0EE418A002400BF0AEB840042
:10244000B0EE493AD0ED002A0BEB840090ED002A63
:1024500007EB8400D0ED001A05EB840090ED001A24
:1024600008EB8400D0ED000A09EB840090ED000A2F
:1024700004EB440006EBC000FFF74EFF641CE4B21F
:10248000062CDBD3B246514E00250DF1080B00BFE0
:1024900000EE905AB0EE680A0020F8EE600A52464C
:1024A0004FEA0B0300EE880A20EE002A62EE001AC3
:1024B00021EE801A61EE002A00EB400102EBC1011F
:1024C000D1ED000A91ED013A43EE000A91ED023A96
:1024D00043EE020A91ED033A43EE210A91ED043AEC
:1024E00043EE010A91ED053A03EB8001401CC0B2B6
:1024F000062843EE220AC1ED000ADDD302A890ECC3
:10250000030A0BA800F0D8F805A890EC030A1BA852
:1025100000F066F81BAA0BA92BA800F071F9DFF8F0
:10252000B080DFF8A8909FED2B9ADFED2B9A9FEDFE
:102530002BAA0024A8F1800709F1200908EB041058
:102540002BA900F08DF907EB0410D0ED001A31EE45
:10255000C00A8DED080A90ED010A30EE600A8DED9B
:10256000090A90ED020A08A830EE410A8DED0A0A28
:1025700000F0BFF91DB906EB840080ED000A06EB00
:102580008400D0ED000A40F2F510604330EE600A9E
:1025900009EB800000EB8500641CC0EE090AE4B280
:1025A000082C80EEA90A20EE0A0A80ED000AC5D3A5
:1025B0006D1CADB2B5F5FA7F7FF66AAF3DB0BDECEC
:1025C000068BBDE8F08F0000283F00206800002047
:1025D000902900085C8F423DDA0F494000003443E7
:1025E00010B504462DED068BC0B0F0EE41AAF0EE1A
:1025F000609AF0EE408AFFF785FBB0EE408AB0EEBD
:10260000680AFFF727FCF0EE408AB0EE690AFFF790
:1026100079FBB0EE409AB0EE690AFFF71BFCF0EED2
:10262000409AB0EE6A0AFFF76DFBB0EE40AAB0EE3A
:102630006A0AFFF70FFCF0EE40AA40221D496846E7
:10264000FDF7F1FD8DED00AAB1EE6A0A8DED010AEC
:102650001849CDED04AA8DED05AA4022403110A8FD
:10266000FDF7E1FD8DED109ACDED129AB1EE690AFC
:1026700010498DED180A8DED1A9A4022803120A85C
:10268000FDF7D1FD8DED258AB1EE680A8DED260AA4
:10269000CDED298A8DED2A8A10AA694630A800F06E
:1026A000AFF820AA30A9204600F0AAF840B0BDEC4F
:1026B000068B10BD102A0008B7EE002ADFED111AB4
:1026C00080ED002AC0ED011AC0ED021A80ED030A68
:1026D000C0ED041A80ED052AC0ED061AC0ED070A08
:1026E000C0ED081AC0ED091A80ED0A2A80ED0B1A18
:1026F000C0ED0C1AC0ED0D1AC0ED0E1A80ED0F2AB8
:102700007047000000000000B4B0FDF767FFFFF75E
:1027100073F8FEF7B3FFFFF731F8FFF74BF8FEF75A
:10272000FBFF254C002018226060A060234902A80E
:10273000FDF779FD21491822183108A8FDF773FD2E
:1027400018210EA8FDF788FD182114A8FDF784FDB7
:1027500018211AA8FDF780FD182120A8FDF77CFD9F
:1027600020A914A8CDE9000108AB1AAA0EA902A855
:10277000FFF732FE1248FEF73DFB00BFFEF7C6FE34
:102780002070FEF7BDFE60702DA8FEF771FF1C22C1
:102790002DA926A8FDF747FD9DF89E1009A0FFF77B
:1027A0007DFA9DF8B0100CA0FFF778FA9DF8A810FC
:1027B0000EA0FFF773FAE1E73C000020D02A0008E2
:1027C000B83F00207261775F7374617465202020C8
:1027D000203D2025640D0A00737461626C655F738F
:1027E00074617465203D2025640D0A00636C696383
:1027F0006B5F636F756E7420203D2025640D0A00A9
:10280000F0B59FED160A0025002401EB051700EB3B
:10281000051C00BF0CEB84065FF0000386ED000A88
:1028200007EB830ED6ED000A9EED001A02EB031EA5
:102830000EEB840E5B1CDEED001ADBB2042B41EEC6
:10284000210AC6ED000AEBD3641CE4B2042CE1D3E8
:102850006D1CEDB2042DD7D3F0BD000000000000C8
:10286000D0ED001A91ED000AD0ED012AD1ED010A58
:1028700021EE800A90ED023A90ED032A91ED051ABF
:1028800002EEA00AD1ED020AD1ED093A03EE200AC8
:10289000D1ED030A02EE200AD1ED040A61EEA00A8E
:1028A00042EE810A91ED061A43EE010A91ED071AF4
:1028B00042EE010A91ED081A21EE811A02EEA31AE6
:1028C000D1ED0A3A03EE231AD1ED0B3A02EE231AA8
:1028D000D1ED0C3A61EEA31AD1ED0D3A42EEA31AF6
:1028E000D1ED0E2A43EE221AD1ED0F2A42EE221A22
:1028F000704790ED000AD0ED010A20EE000A00EECC
:10290000A00AD0ED020A00EEA00AFFF76BBB0000A0
:102910009643CBBE54E3A53E85EB513F0000803F7C
:102920009643CBBE54E3A5BE85EB513F0000803FEC
:102930009643CB3E54E3A5BE85EB513F0000803F5C
:102940009643CB3E54E3A53E85EB513F0000803FCC
:102950009643CBBE54E3A53E560E2D3E0000803F6D
:102960009643CBBE54E3A5BE560E2D3E0000803FDD
:102970009643CB3E54E3A5BE560E2D3E0000803F4D
:102980009643CB3E54E3A53E560E2D3E0000803FBD
:10299000CDCC4CBDCDCC4C3DCDCC4CBD0000803F12
:1029A000CDCC4CBDCDCC4CBDCDCC4CBD0000803F82
:1029B000CDCC4C3DCDCC4CBDCDCC4CBD0000803FF2
:1029C000CDCC4C3DCDCC4C3DCDCC4CBD0000803F62
:1029D000CDCC4CBDCDCC4C3DCDCC4C3D0000803F52
:1029E000CDCC4CBDCDCC4CBDCDCC4C3D0000803FC2
:1029F000CDCC4C3DCDCC4CBDCDCC4C3D0000803F32
:102A0000CDCC4C3DCDCC4C3DCDCC4C3D0000803FA1
:102A100000000000000000000000000000000000B6
:102A200000000000000000000000000000000000A6
:102A300000000000000000000000803F00000000D7
:102A40000000000000000000000000000000803FC7
:102A50000000000000000000000000000000000076
:102A6000000000000000803F0000000000000000A7
:102A70000000000000000000000000000000000056
:102A80000000000000000000000000000000803F87
:102A90000000803F00000000000000000000000077
:102AA0000000000000000000000000000000000026
:102AB0000000000000000000000000000000000016
:102AC0000000000000000000000000000000803F47
:102AD000000080BE000080BE713D0A3E0000000084
:102AE00000000000000000000000803E0000803E6A
:102AF0005C8F223F0000000000000000000000008A
:102B0000000000000000000001020304060708099D
:102B10000000000001020304000000006E83F9A21F
:102B20002915444ED15727FCC0DD34F5999562DB59
:102B30004190433CAB6351FE582B0008000000203D
:102B40006800000098210008C02B000868000020E1
:102B500070800000A8210008000000000010024062
:102B60001000000000000000000000000000000055
:102B700000000000000000000010024008000000FB
:102B80000000000000000000000000000000000045
:102B90000000000000000000000000000000000035
:102BA0000000000000000000010000001000000014
:102BB000000000000024F4000000000000000000FD
:040000050800018965
:00000001FF
