:020000040800F2
:1000000060C20020A101000827190008B5150008EA
:10001000251900083D060008C71E00080000000062
:100020000000000000000000000000002B19000884
:100030003F06000800000000291900082D190008DB
:10004000BB010008BB010008BB010008BB010008A0
:10005000BB010008BB010008BB010008BB01000890
:10006000BB010008BB010008BB010008BB01000880
:10007000BB010008BB010008BB010008BB01000870
:10008000BB010008BB010008BB010008BB01000860
:10009000BB010008BB010008BB010008BB01000850
:1000A000BB010008D5190008BB010008BB0100080E
:1000B000E1190008BB010008BB010008BB010008F2
:1000C000BB010008BB010008BB010008BB01000820
:1000D000BB010008BB010008BB010008BB01000810
:1000E000BB010008BB010008BB010008BB01000800
:1000F000BB010008BB010008BB010008BB010008F0
:10010000BB010008BB010008BB010008BB010008DF
:10011000BB010008BB010008BB010008BB010008CF
:10012000BB010008BB010008BB010008BB010008BF
:10013000BB010008BB010008BB010008BB010008AF
:10014000BB010008BB010008BB010008BB0100089F
:10015000BB010008BB010008BB010008BB0100088F
:10016000BB010008BB010008BB010008BB0100087F
:10017000BB010008BB010008BB0100080000000033
:10018000BB010008BB010008DFF810D000F044FA02
:100190000048004755290008AFF3008060C20020E6
:1001A0000648804706480047FEE7FEE7FEE7FEE711
:1001B000FEE7FEE7FEE7FEE7FEE7FEE7C5190008FB
:1001C000890100082DE9F05F0546002092469B4614
:1001D00088460646814640241BE02846414647465D
:1001E000224600F074F953465A46C01A914110D382
:1001F00011461846224600F05BF92D1A67EB0108FC
:100200004F4622460120002100F052F917EB000969
:100210004E41201EA4F10104DFDC484631462A4647
:100220004346BDE8F09F40EA01039B0703D009E085
:1002300008C9121F08C0042AFAD203E011F8013BD2
:1002400000F8013B521EF9D27047D2B201E000F82B
:10025000012B491EFBD270470022F6E710B513466A
:100260000A4604461946FFF7F0FF204610BD2DE967
:10027000FE4F81EA030404F0004421F000410094A1
:100280004FF0000B23F0004350EA01045ED052EA25
:1002900003045BD0C3F30A54C1F30A552C44A4F2FF
:1002A000F3340194A0FB0254C1F3130141F4801113
:1002B000C3F3130343F4801301FB024400FB034E1A
:1002C000840A970A44EA815447EA8357A4FB0768E3
:1002D00002958D0A05FB07854FEA932C04FB0C540D
:1002E0002705029D4FEA065847EA1637B5EB080581
:1002F0006EEB070C870E920E47EA811742EA8312D3
:10030000A7FB0201B6EB0B0164EB00042B0D43EAE3
:100310000C335E1844EB1C50DA465146E7FB0201F1
:10032000C5F313044FEA0B3343EA14534FEA043284
:10033000019C43EA0603A4F10C040294009CCDE95D
:1003400000B400F01AF903B0BDE8F08F00200146B8
:10035000F9E72DE9F04D81EA030404F0004B21F0A8
:10036000004514464FF0000A23F0004150EA050210
:1003700020D054EA01021DD0C5F30A570246C5F346
:100380001303C1F31300C1F30A5640F4801543F47C
:100390008013A7EB0608101BD64608F2FD3873EB56
:1003A000050002D308F1010801E092185B41B8F1A1
:1003B000000F03DA00200146BDE8F08D00204FF465
:1003C0008011064684460EE0171B73EB050705D324
:1003D000121B63EB050306434CEA010C49084FEA84
:1003E000300092185B4150EA0107EDD152EA030058
:1003F00012D082EA040083EA0501084305D0101BED
:10040000AB4106D20122002306E000224FF0004358
:1004100002E06FF0010253101AEB06004CEB08519A
:1004200010EB0A0041EB0B01BDE8F04D00F096B86F
:100430000EB5C10F80EAE0700844CA07002140F2FF
:1004400033438DE80E000A460B4600F096F803B0E1
:1004500000BD00F0004230F000400AD0C10D01F5AF
:100460006071C0F3160042EA0151C208400711430F
:10047000704700200146704701F0004330B421F07E
:10048000004150EA010206D00A0DA2F56072C1F3E4
:100490001301002A02DC30BC00207047440F44EAFC
:1004A000C104C100E01830BC00EBC25000F01FB81E
:1004B000202A04DB203A00FA02F100207047914024
:1004C000C2F1200320FA03F3194390407047202A19
:1004D00004DB203A21FA02F00021704721FA02F3EE
:1004E000D040C2F1200291400843194670470029CC
:1004F000A8BF7047401C490008BF20F001007047AA
:1005000010B4B0FA80FC00FA0CF050EA010404BF09
:1005100010BC704749B1CCF1200421FA04F411FA5F
:100520000CF118BF012121430843A3EB0C01CB1DA3
:100530004FEA00614FEA102042BF002010BC704714
:1005400000EBC35010440029A4BF10BC7047401CEE
:10055000490008BF20F0010010BC704710B5141E00
:1005600073F1000408DA401C41F1000192185B416C
:100570001A4301D120F0010010BD2DE9F04D924643
:100580009B4611B1B1FA81F202E0B0FA80F220325A
:100590009046FFF78DFF04460F4640EA0A0041EA05
:1005A0000B0153465A46084313D0114653EA010043
:1005B00019D0C8F140025046FFF789FF05460E46A4
:1005C000504659464246FFF773FF084305D00120C5
:1005D00004E020463946BDE8F08D0020054346EA98
:1005E000E0762C4337430A986305E40AA0EB080041
:1005F0000022FD0A44EA47540A3002D50020014691
:10060000E9E7010510196941DDE90845001969416B
:10061000BDE8F04DA2E70000064C074D06E0E0689B
:1006200040F0010394E8070098471034AC42F6D339
:10063000FFF7AEFDC0300008E0300008FEE770476D
:1006400072B6FEE770B5044600F010F90546601C6E
:1006500002D004480078044400F008F9401BA0428E
:10066000FAD370BD4C0000202DE9F84FDFF8BCA193
:100670000022012503264FF00F090AF1040BAAF10D
:10068000040E00BF0B6805FA02F42340A34270D1A8
:100690000F7907F00307012F01D0022F16D18768C9
:1006A0004FEA420806FA08FC27EA0C07D1F80CC00A
:1006B0000CFA08FC4CEA070CC0F808C04768A743CE
:1006C0000C79C4F3001494403C4344600C79E44337
:1006D000A4070AD0C4684FEA420C06FA0CF7BC43E0
:1006E0008F6807FA0CF72743C7600C7904F00304FE
:1006F000022C12D1D40800EB840CDCF82040570700
:10070000FF0E09FA07F824EA0804D1F8108008FA65
:1007100007F848EA0408CCF8208004684FEA420C45
:1007200006FA0CF7BC430F7907F0030707FA0CF73A
:10073000274307604C6814F4403F70D03C4C276856
:1007400047F480472760246822F0030704F48044BC
:100750000094384C07EB040CDCF8084897074FEA84
:10076000177809FA08F7BC43334FB84202D1002783
:1007700024E054E0314FB84201D101271EE0304F50
:10078000B84201D1022719E02E4FB84201D1032708
:1007900014E02D4FB84201D104270FE02B4FB8428F
:1007A00001D105270AE02A4FB84201D1062705E00A
:1007B000284FB84201D1072700E0082707FA08F7B9
:1007C0002743CCF80878DAF800405746D1F804C03F
:1007D0009C435FEACC2C00D51C433C60DBF8004016
:1007E0005F46D1F804C09C435FEA8C2C00D51C43C3
:1007F0003C60DEF800407746D1F804C09C435FEAD5
:100800008C3C00D51C433C60084F083F3C68D1F845
:1008100004C09C435FEACC3C00D51C433C60521CA6
:10082000102AFFF42FAFBDE8F88F0000083C01400C
:100830004438024000300140000002400004024001
:1008400000080240000C0240001002400014024068
:1008500000180240001C02400069084000D001203E
:1008600070470AB1816170470904FBE7014880685D
:10087000704700004C000020024881680278114453
:10088000816070474C0000200B4810B5016841F4AE
:1008900000710160016841F480610160016841F408
:1008A00080710160032000F095F80F2000F006F839
:1008B00000F04AF8002010BD003C024030B505466B
:1008C0001C4887B00024016841F001010160006804
:1008D00006A900F00100009001A800F027F900F03F
:1008E00055F915494000B0FBF1F11548134A491E6E
:1008F000026040F2E732C0E90324C0E901148461D8
:1009000000F084FB040012D10D4800F0C9FB040084
:100910000DD1192000F030F8102D07D20022294601
:10092000192000F037F80748056000E0012407B0FF
:10093000204630BD4438024040420F0000000140D4
:10094000547F0020500000200A4808B5016841F497
:1009500080410160006800F4804000900548001F5D
:10096000016841F080510160006800F08050009003
:1009700008BD000044380240002809DB00F01F02D7
:10098000012191404009800000F1E020C0F80011F1
:1009900070470000F0B40E4B1B680C46C3F30223F3
:1009A000C3F10705042D00D90425191D072901D21B
:1009B000002300E0DB1E012606FA05F1491E214056
:1009C00099409E40761E16403143F0BC01F08FBA2C
:1009D0000CED00E0064900F0070208684FF6FF033F
:1009E000184040EA0220034A1043086070470000A4
:1009F0000CED00E00000FA052DE9F0470E46050079
:100A000065D0DFF81481D8F80000F7B200F00700D5
:100A1000B04207D288F80070D8F8000000F0070054
:100A2000B04254D128683D4C810712D5400703D508
:100A3000206840F4E05020602878000703D5206843
:100A400040F4604020602068A96820F0F00008436E
:100A500020602878C0072DD03049686808390128FF
:100A600012D0022813D0032811D009688907002961
:100A70002DDA216821F0030101432160FFF7F6FE22
:100A8000814641F2883A0EE009688903EFE7096878
:100A90008901ECE7FFF7EAFEA0EB0901514502D915
:100AA0000320BDE8F0872068696800F00C00B0EB17
:100AB000810FEFD1D8F80010404601F00701B14294
:100AC00007D90770006800F00700B04201D001208C
:100AD000E7E72878400705D52068E96820F4E0506A
:100AE000084320602878000706D52068296920F48B
:100AF000604040EAC100206000F058F82168084AD0
:100B0000C1F30311515CC8400649086006480068FB
:100B1000FFF7D4FE0020C4E7003C02400838024042
:100B20008830000858000020500000200F2202608A
:100B30000C4A136803F003034360136803F0F003E7
:100B40008360136803F4E053C36012684FF4E0530A
:100B500003EAD20202610448006800F0070008605E
:100B60007047000008380240003C02400448054934
:100B700000680968044AC1F38221515CC84070478B
:100B80005800002008380240983000080448054901
:100B900000680968044AC1F34231515CC84070479B
:100BA000580000200838024098300008154810B559
:100BB000006810F00C02144813D04110042A0FD022
:100BC000082A0ED10F4C241F2268236802F03F022E
:100BD0005B0207D52068C0F38810A0FB010106E086
:100BE000084610BD2168C1F38811A1FB0001002354
:100BF000FFF7E8FA2168C1F30141491C4900B0FB45
:100C0000F1F010BD083802400024F4002DE9F84F3F
:100C100004006ED02078DFF84C93C007A9F10405DA
:100C20004AD009F104000168C1F38101012908D00B
:100C30000068C0F3810002280AD1D9F80000400200
:100C400006D52868800337D560680028E1D033E0F6
:100C50006068B0F5803F10D0B0F5A02F286810D0A4
:100C600020F480302860286820F4802028606068A4
:100C7000A8B1FFF7FBFD06460DE0286840F4803080
:100C8000F4E740F480202860F7E700BFFFF7EEFDAF
:100C9000801B642873D828688003F7D50CE0FFF721
:100CA000E5FD064605E000BFFFF7E0FD801B642878
:100CB000F0D828688003F7D42078DFF8AC8280076A
:100CC0004FF0000A3ED5A748001D016811F00C0F37
:100CD00008D00068C0F3810002280BD1D9F80000C9
:100CE000400207D42868800716D5E068012800D1A3
:100CF00012E033E1E068B8B10120C8F80000FFF766
:100D0000B5FD064605E000BFFFF7B0FD801B0228D9
:100D1000C0D828688007F7D52868216920F0F80036
:100D200040EAC10028600DE0C8F800A0FFF79EFD72
:100D3000064604E0FFF79AFD801B02281FD82868AA
:100D40008007F7D42078000722D5864F874861694D
:100D5000703771B101210160FFF788FD064604E09C
:100D6000FFF784FD801B022809D838688007F7D573
:100D70000EE0C0F800A0FFF779FD064605E082E02E
:100D8000FFF774FD801B02287DD838688007F7D4F0
:100D90002078400768D5DFF8CCB100270BF13C0B79
:100DA000DBF80000C0000BD4DBF8001041F08051EC
:100DB000CBF80010DBF80000012700F08050009015
:100DC0006B4E3068C00510D4306840F480703060DD
:100DD000FFF74CFD009005E0FFF748FD0099401A31
:100DE000022850D83068C005F6D55E4EA0686C3633
:100DF00001280FD00528306810D020F001003060A5
:100E0000306820F004003060A068B8B1FFF72EFD14
:100E100000900FE0306840F00100F4E740F004007B
:100E20003060F7E7FFF722FD0099411A41F2883060
:100E3000814266D830688007F4D50EE0FFF716FDD2
:100E4000009007E0FFF712FD0099411A41F2883047
:100E5000814256D830688007F4D42FB1DBF80010F7
:100E600021F08051CBF80010A069C8B33D49091D9D
:100E70000968C1F3810102294AD00228504607D0EF
:100E8000C8F8600000E03CE0FFF7F0FC04463BE0FF
:100E90004746C8F86000FFF7E9FC064605E000BFDA
:100EA000FFF7E4FC801B02282BD828688001F7D4C8
:100EB000D4E907010843A16A2E4A490802EB01411F
:100EC000626A41EA8211084394F82C1040EA0161F9
:100ED000C9F8001001203866FFF7C8FC044606E098
:100EE0003EE000BFFFF7C2FC001B022809D82868BB
:100EF0008001F7D534E000BFFFF7B8FC001B0228E3
:100F000002D90320BDE8F88F28688001F4D427E0D7
:100F10000128F7D0D9F80000E26900F4800191427D
:100F20001CD1226A00F03F01914217D147F6C071EF
:100F3000626A0140B1EB821F10D1A26A4FF0FF3309
:100F400000F4403103EB5202B1EB024F06D194F8AA
:100F50002C1000F07060B0EB016F01D00120D1E7E0
:100F60000020CFE70438024000004742800E47428D
:100F7000007000400000FFFF7047704770B590F8A8
:100F80003C20012A32D0012480F83C40022280F823
:100F90003D2003685A689D6822F070060A68324353
:100FA0005A60134B02689A4214D0B2F1804F11D0AC
:100FB000104B9A420ED0104B9A420BD00F4B9A42D4
:100FC00008D00F4B9A4205D00E4B9A4202D00E4BDE
:100FD0009A4204D1496825F080031943916080F852
:100FE0003D40002180F83C10084670BD022070BDD5
:100FF000000001400004004000080040000C0040D8
:1010000000040140004001400018004010B50400F9
:1010100003D094F83D0010B107E0012010BD00207E
:1010200084F83C00204600F01FF8022084F83D00C0
:10103000211D206800F0DAFC012084F8460084F8C5
:101040003E0084F83F0084F8400084F8410084F8B2
:10105000420084F8430084F8440084F8450084F892
:101060003D00002010BD000008B50068B0F1804FC1
:1010700012D10A48016841F00101016000680022B4
:1010800000F00100009005211C20FFF783FCBDE863
:1010900008401C20FFF770BC08BD0000403802402B
:1010A00090F83D10012901D001207047022180F8FD
:1010B0003D100168CA6842F00102CA600068114927
:1010C000884214D0B0F1804F11D00F4988420ED021
:1010D0000E4988420BD00E49884208D00D498842FB
:1010E00005D00D49884202D00C49884204D181685C
:1010F00001F00701062903D0016841F001010160F8
:10110000002070470000014000040040000800403B
:10111000000C004000040140004001400018004065
:1011200070B5044690F83C000025012817D0012630
:1011300084F83C60022084F83D002068826822F038
:10114000770222F47F4282600868502838D00DDC94
:1011500020284FD005DC90B3102811D14AE002209E
:1011600070BD302846D040280AD13BE060282FD0FF
:1011700070280DD0B0F5805F03D0B0F5005F12D0BD
:10118000012584F83D60002084F83C00284670BDAD
:10119000CB68D1E90121206800F090FC20688168CB
:1011A00041F0770109E0CB68D1E90121206800F026
:1011B00085FC2068816841F480418160E1E719E0A5
:1011C000CA684968206800F08BFC5021206806E05E
:1011D000CA684968206800F094FC6021206800F02B
:1011E00077FCCEE7CA684968206800F079FC4021A6
:1011F0002068F4E7226801461046F0E770472DE9C1
:10120000F04104460068C66805694FF00007A90769
:1012100013D5B10711D5F91E01610120207720688F
:1012200080698007204602D0FFF7E8FF04E000F065
:101230007EF8204600F07CF82777680716D57007FF
:1012400014D521686FF0040008610220207720681F
:10125000806910F4407F204602D0FFF7CFFF04E002
:1012600000F065F8204600F063F82777280715D5C9
:10127000300713D521686FF008000861042020773B
:101280002068C0698007204602D0FFF7B7FF04E05E
:1012900000F04DF8204600F04BF82777E80616D509
:1012A000F00614D521686FF010000861082020773F
:1012B0002068C06910F4407F204602D0FFF79EFFEF
:1012C00004E000F034F8204600F032F82777E80711
:1012D00008D0F00706D021686FF0010008612046B1
:1012E00000F028F8280608D5300606D521686FF0EA
:1012F000800008612046FFF73FFE680608D57006AB
:1013000006D521686FF040000861204600F026F8FD
:10131000A8060AD5B00608D521686FF0200008613C
:101320002046BDE8F041FFF728BEBDE8F0817047D8
:101330007047000010B5044600680749884201D193
:10134000FFF79AFA2068B0F1804F03D1BDE8104052
:1013500000F0BCB910BD0000000001407047406CB7
:10136000704770B5040004D094F84100002510B116
:1013700006E0012070BD84F84050204600F024F8BB
:10138000242084F841002068C16821F40051C16024
:10139000204600F0D9FC2068016921F490410161E8
:1013A0002068416921F02A0141612068C16841F447
:1013B0000051C1606564202084F8410084F8420037
:1013C0006563002070BD0000F0B587B004461421AD
:1013D0006846FEF741FF1F4F236800221E49022482
:1013E000032507261D48BB4213D11B4B14331F682E
:1013F00047F010071F601B6803F0100305930B688C
:1014000043F001030B60096801F0010105916902D5
:1014100015E0134FBB421AD10F4B10331F6847F42E
:1014200000371F601B6803F4003305930B6843F01B
:1014300001030B60096801F0010105910C21CDE960
:10144000001402AB694683E86400FFF70DF907B0AA
:10145000F0BD0000001001403038024000000240A2
:10146000004400402DE9F84F044690F842009A46A7
:1014700016460D46202802D00220BDE8F88FB5B1EF
:10148000AEB100206064222184F842102063FFF78F
:10149000EDF9A6858146E685A0684FF4805820279F
:1014A000404501D1206920B12E46002529E00120C8
:1014B000E3E7002625E04B46002220212046CDF818
:1014C00000A000F0C7FC18B184F842700320D4E7F4
:1014D00026B1A06840451AD038B108E020684068BD
:1014E000C0F3080025F8020B08E0206978B12068F5
:1014F000406800F07F0000BF06F8010BE08D401E41
:10150000E085E08D0028D6D184F84270B5E72068E8
:101510004068F1E72DE9F843044690F84100984609
:1015200016460D46202802D00220BDE8F88385B17A
:101530007EB100206064212084F84100FFF796F915
:10154000A6848146E684A0682027B0F5805F02D09B
:1015500003E00120E9E7206910B12E4600250EE0E6
:1015600000260CE08021204600F074FCA8B9C6B12A
:1015700016F8010B21684860E08C401EE084E08C86
:101580004B464FF00002CDF800800028EAD14FF022
:101590004001204600F05EFC40B184F84170032019
:1015A000C3E735F8020BC0F30800E3E784F84170A5
:1015B0000020BAE7FEE7000010B500EB8200B0EEB5
:1015C000401A90ED000A0A4801EB8201F0EE601A21
:1015D00090ED002AD1ED000A002130EE020A054804
:1015E00001F02CFABDE81040034801F0D9BA000020
:1015F000680000209C7F0020C47E00200648074928
:1016000090ED000AB0EEC00A10EE100A884201DC2C
:10161000002070470120704768000020BD378635E4
:1016200070B50D4C0D4D2DED028B9FED0A8A0AE031
:10163000B0EE480A00210A4801F030FA094801F0EA
:10164000AFFA606E2860FFF7D9FF0028F0D0BDEC3C
:10165000028B70BD000000006A800020680000203E
:101660009C7F0020C47E0020014840787047000025
:1016700000000020014800787047000000000020B2
:1016800011480123817C0838032902780CD0002AF4
:1016900009D00D491C31897C012913D0022901D0C0
:1016A000032900D14170704700212AB101704170B7
:1016B00041808180C180704703704170418081808A
:1016C000C180E6E7437070470800002010B5054868
:1016D00000F00AF803481C3000F006F8BDE810409E
:1016E000FFF7CEBF0800002070B50446818800686F
:1016F000FFF7B2F8E0B10025FFF7B8F80146002087
:10170000A074227EAA4205D062699AB18A1A0A2A76
:1017100001D325766061227EA679012366B1022578
:10172000012E10D0022E1FD0032E34D0A07170BD18
:101730000125E1E76161EEE7002AF8D0A371A1601D
:101740002074607470BDA068081AB0F57A7F04D365
:101750000320A0716374A07470BD002AFCD1A57130
:10176000E160207C401C19E0E6688E1BB6F5AF7F77
:101770000CD3217C012902D0022902D002E0A374FB
:1017800000E0A574A0712074E06070BD002AFCD058
:10179000A371A16070BD002AFCD1A071207470BD3E
:1017A0001C220149FEF73FBD2400002030B587B060
:1017B00014216846FEF750FD20480024016841F0DE
:1017C00010010160016801F010010591016841F00C
:1017D00020010160016801F020010591016841F0DC
:1017E00080010160016801F080010591016841F00C
:1017F000010101600068124D00F001000122059016
:1018000051022846FFF72DF8002229152846FFF738
:1018100028F81820CDE9000469460A480294FEF72A
:1018200023FF4FF4C06000900120CDE90104694618
:1018300028460394FEF718FF07B030BD3038024049
:10184000001402400010024010B586B00024174872
:10185000009401940294039404944FF08041059401
:10186000016042F2CF01C0E9011441F28731C0E9C1
:10187000031480218161FFF7C9FB08B1FEF7E0FE88
:101880004FF48050009069460848FFF749FC08B1C2
:10189000FEF7D6FE049404A904480594FFF76EFBF6
:1018A000002801D0FEF7CCFE06B010BD7C7E0020E3
:1018B0000C4810B50A4901600B4941600021816064
:1018C0000C22C160C0E904128161C161FFF749FDCA
:1018D000002803D0BDE81040FEF7B2BE10BD0000E6
:1018E00000100140C47E0020003E49000C4810B5A5
:1018F0000A4901604FF4E1314160002181600C220E
:10190000C160C0E904128161C161FFF72AFD0028AE
:1019100003D0BDE81040FEF793BE10BD0044004068
:101920000C7F0020FEE7FEE770477047704700001D
:1019300030B593B030216846FEF78EFC14210CA818
:10194000FEF78AFC1D480025016841F080510160C6
:10195000006800F0805011901948016841F48041FE
:1019600001600068022400F4804011900120009082
:10197000000401908001CDE9064008AA0420A821B6
:1019800082E813000B906846FFF740F908B172B681
:10199000FEE70CA90F2081E831004FF4A0500F9012
:1019A0004FF48050109005210CA8FFF725F800286F
:1019B00001D072B6FEE713B030BD000040380240DF
:1019C000007000400248016841F4700101607047F6
:1019D00088ED00E00148FFF712BC0000547F0020B2
:1019E0000148FFF70CBC00007C7E0020F0B50268C7
:1019F000274B284D284E294F294C4FF0804C9842B8
:101A000009D0604507D0A84205D0B04203D0B84203
:101A100001D0A04204D122F0700E4A6842EA0E02C0
:101A200098421BD0604519D0A84217D0B04215D0BB
:101A3000B84213D0A04211D01A4DA8420ED01A4D70
:101A4000A8420BD0194DA84208D0194DA84205D084
:101A5000184DA84202D0184DA84203D122F4407577
:101A6000CA682A434D6922F080022A438D68C56204
:101A70000D688562984201D0A04201D109690163D5
:101A8000016841F004010160012141610260F0BD83
:101A9000000001400004004000080040000C00402D
:101AA0000004014000400140004401400048014062
:101AB00000180040001C00400020004010B5846861
:101AC00042EA032224F47F440A432243826010BD89
:101AD000826822F070020A4342F007018160704779
:101AE00010B5036A046A24F001040462846924F0D6
:101AF000F00444EA021423F00A020A4384610262F9
:101B000010BD10B5036A046A24F0100404628469ED
:101B100023F0A00324F4704444EA023243EA0111A2
:101B20008261016210BD000030B56D4C2DED028B5D
:101B3000A7B0207800280ED060784FF4FA759FED9A
:101B4000698ADFED698A012809D0022844D0032878
:101B50007ED00020607027B0BDEC028B30BDA08825
:101B6000E188084375D1608820BB18225F4902A82C
:101B7000FEF759FB5D491822183108A8FEF753FB00
:101B800018210EA8FEF768FB182114A8FEF764FBC5
:101B900018211AA8FEF760FB182120A8FEF75CFBAD
:101BA00020A914A8CDE9000108AB1AAA0EA902A821
:101BB00000F06EFC6288AA424BD82078002848D0FA
:101BC000F0EE480AB0EE680A49494A48FFF7F4FCCB
:101BD0006088401C6080BEE76088E188084378D157
:101BE000A08828BB41491822303102A8FEF71BFB10
:101BF0003E491822483108A8FEF715FB18210EA807
:101C0000FEF72AFB182114A8FEF726FB18211AA8B4
:101C1000FEF722FB182120A8FEF71EFB20A914A81E
:101C2000CDE9000108AB1AAA0EA902A800F030FC09
:101C3000A288AA424DD8207858B1F0EE480AB0EEFA
:101C4000680A2B492B48FFF7B7FCA088401C01E02D
:101C500002E03EE0A0807EE76088A188084338D19A
:101C6000E08828BB21491822603102A8FEF7DBFA80
:101C70001E491822783108A8FEF7D5FA18210EA8B7
:101C8000FEF7EAFA182114A8FEF7E6FA18211AA8B6
:101C9000FEF7E2FA182120A8FEF7DEFA20A914A820
:101CA000CDE9000108AB1AAA0EA902A800F0F0FBCA
:101CB000E288AA420DD8207858B1F0EE480AB0EE7A
:101CC000680A0B490B48FFF777FCE088401CE0806E
:101CD00041E727B0BDEC028BBDE8304000F004BF07
:101CE00000000020CDCCCC3D8FC2753CF82F000801
:101CF000303F00209000002001680C3151E8002F97
:101D000022F4907241E80023002BF5D101681431D0
:101D100051E8002F22F0010241E80023002BF5D109
:101D2000016B012909D101680C3151E8002F22F023
:101D3000100241E80023002BF5D1202180F8421049
:101D4000002101637047000070B504460068016916
:101D5000E26821F44051114301612169A068E26900
:101D600008436169114308432168CA6849F20C635A
:101D70009A430243CA6020684169A26921F4407114
:101D80001143416131492068884202D0304988427C
:101D900002D1FEF7FBFE01E0FEF7E8FEE269002358
:101DA000192164253226B2F5004F626828D0A0FBC5
:101DB0000101930F9200FEF705FA0146B0FBF5F022
:101DC0006FF01802504301EB800006EB0010B0FBEF
:101DD000F5F000F0F002B1FBF5F002EB0012B1FB00
:101DE000F5F06FF01803584301EB800006EB00108C
:101DF000B0FBF5F000F00F0021681044886070BD62
:101E0000A0FB010192185B41FEF7DCF90146B0FB33
:101E1000F5F00201B1FBF5F06FF01803584301EB48
:101E2000800006EBC000B0FBF5F000F0F80002EB1C
:101E30004002B1FBF5F0584301EB800006EBC00017
:101E4000B0FBF5F000F00700D6E7000000100140FD
:101E5000001401402DE9F843984617460D46044604
:101E6000089E24E0701C22D0FEF700FDA0EB0800C5
:101E7000B0421AD8CEB12068C168490717D5802D65
:101E800015D0402D13D00168C94309070FD401684C
:101E90000025406800902046FFF72EFF0820606470
:101EA00084F840500120BDE8F8830320FBE7206858
:101EB000006835EA000004D00020B842D2D00020EB
:101EC000F1E70120F9E7FEE74100080218BF04200E
:101ED0000A0E18BF40F001004FF07F4232EA0101C4
:101EE00008BF40F00200012808BF0520704709071D
:101EF000090E002804DB00F1E02080F80014704790
:101F000000F00F0000F1E02080F8141D7047000081
:101F100010EE101A08B5444A6846B2EB410F28D9B2
:101F20004FF0E640B0EB410F94BF00204FF0FF3080
:101F300000900098002861DB60EE000A10F0010FAD
:101F400045D010F0020FDFED391A9FED391A00EE7F
:101F5000E11ADFED381A40EE811A21EEA01AF0EEF8
:101F6000400A40EE010A08BFF1EE600AB0EE600AD6
:101F700008BD314B21F0004293423CD911F0004F93
:101F8000DFED2E0A20EE201ADFED2D0A19BF31EE0B
:101F9000601A71EE200A31EE201A71EE600ABDEE71
:101FA000E01A11EE100A9FED271A00F0030000EE70
:101FB000C10A9FED251A009000EEC10A9FED231A79
:101FC00000EEC10A9FED221A00EEC10AB1E79FEDB3
:101FD000211A9FED210A10F0020F00EE810A9FEDF9
:101FE0001F1A00EE801AB7EE000A00EE810A18BF31
:101FF000B1EE400A08BD00F02BF99AE710EE100A86
:102000004000B0F17F4F3CBFB7EE000A08BD07D1DA
:102010004FF0010000F0D6F9BDE8084000F008B923
:10202000BDE8084000F001B9B61F927E336D4C390F
:10203000DA82083CA0AA2ABE490E494683F9223F0B
:102040000000004B0000C93F00A0FD390020A23372
:102050001A61342CB93AB2BACA9F2A3DDDFFFFBEDD
:1020600000B510EE101A2DED028B81B0524A684671
:10207000B2EB410F2ED94FF0E640B0EB410F94BFC9
:1020800000204FF0FF3000900098B0EE408A00280A
:102090006ADB10F0010F4BD068EE080A9FED471A7B
:1020A0009FED470A00EE810A9FED461A10F0020FDD
:1020B00000EE801AB7EE000A00EE810A02BF01B0FE
:1020C000BDEC028B00BD00BF01B0B1EE400ABDEC1B
:1020D000028B00BD3C4B21F00042934241D911F0EC
:1020E000004FDFED3A0A20EE201ADFED390A19BF62
:1020F00031EE601A71EE200A31EE201A71EE600A9C
:10210000BDEEE01A11EE100A9FED321A00F0030046
:1021100000EEC10A9FED301A009000EEC10A9FED5B
:102120002F1A00EEC10A9FED2E1A00EEC10AABE78E
:1021300028EE080A9FED2B1ADFED2B0A10F0020F94
:1021400040EE410A9FED291A00EE201A61EE000AC6
:10215000B0EE480A08EE200AB6D101B0BDEC028B01
:1021600000BD00F075F88FE718EE100A4000B0F1DE
:102170007F4F0DD218EE100AFFF7A6FE042808BF05
:1021800000F05EF8B0EE480A01B0BDEC028B00BD75
:1021900009D1012000F016F901B0BDEC028B5DF809
:1021A00004EB00F045B801B0B0EE480ABDEC028B7C
:1021B0005DF804EB00F039B8B61F927EB93AB2BAB6
:1021C000CA9F2A3DDDFFFFBE490E494683F9223FE3
:1021D0000000004B0000C93F00A0FD390020A233E1
:1021E0001A61342C336D4C39DA82083CA0AA2ABE1D
:1021F00010B52DED028BB1EEC08A18EE100A20F05A
:102200000040C0F1FF40C00F0AD010EE100A20F0CD
:102210000040C0F1FF40C00F04BF012000F0D2F821
:10222000B0EE480ABDEC028B10BD30EE000A7047DC
:10223000DFED020A80EEA00A7047000000000000F7
:102240009FED020A20EE000A704700000000001017
:102250002DE9F0014FF07F42B2EB410F9FBF4FF0ED
:10226000FF310160BDE8F00170474FF0004242EAE3
:102270000123C1F3C752783A551112F01F0C434C99
:10228000CCF120067C44C1F3C752A2F178024FEA98
:10229000621204EB820254F8254008BFD2E90156CD
:1022A00012D0556804FA0CF425FA06F73C439768F7
:1022B00005FA0CF527FA06F8D26807FA0CFCF2408A
:1022C00045EA08054CEA0206A4FB034CA5FB0352B1
:1022D000A6FB03631D449D4234BF0126002613194B
:1022E000334416B1934202D903E0934201D2012252
:1022F00000E00022624402F1200C9206DC0C42EA6B
:10230000443200EE102A5B03DFED210AF8EEC01A1A
:1023100000EE103A4FEA9C1C11F0004FB8EE400A54
:10232000C0F800C020EE201A00EE105ADFED190AA6
:10233000B8EE400A20EE200A71EE810A70EE800AA3
:1023400010EE902A02F500626FF30B0200EE902A65
:1023500070EEE11A31EEC11ADFED101A30EE411ABB
:102360009FED0D0A20EE800A01EE210A9FED0C1A66
:1023700000EE810A04BFBDE8F0017047CCF1805146
:102380000160BDE8F001B1EE400A7047180E000090
:10239000000000360000802C22AAFD29DB0FC92F87
:1023A0000000C92F02E008C8121F08C1002AFAD194
:1023B00070477047002001E001C1121F002AFBD1C5
:1023C0007047000001490860704700006C00002061
:1023D000F6EE006AB2EE044A61EE265A21EE841A45
:1023E00063EE033A62EEA66AC0ED025A00EE441AAA
:1023F000B1EE004A23EE835A22EE044A25EE036A28
:1024000004EE431AB1EE084A20EE847A66EE034ADF
:1024100007EE431A05EEE31A06EEA31A81EE057ADB
:10242000BAEE0E1AB2EE0E5A21EE811A00EE051A1D
:10243000B1EE0C5A22EE055A05EE031AB2EE005A1E
:1024400080ED037A20EE855A05EE031A05EEA31AF5
:1024500002EEE31AC1EE062A21EE841A00EE441AB7
:10246000C0ED042A80EC020AB0EE080A62EE001AFF
:1024700020EE800A01EEC31A00EE431A05EEE31ABD
:1024800006EEA31A81EE240A80ED050A70470000CB
:102490007CB59FED061ADDE90645F1EE040A9FEDD5
:1024A000040ACDE9004500F04FF87CBD0AD7233C73
:1024B00000000000F0B586464FF0FF3000230B4DC2
:1024C000C70710E05EF823603A46002400284FEA70
:1024D000400000DA6840164200D068405208641C90
:1024E000202CF3D35B1C8B42ECD3F0BDB71DC10491
:1024F00091ED010AD2ED020A92ED011A20EE200AB6
:10250000D1ED020A00EEC10A80ED000A91ED020A47
:10251000D2ED000A92ED021A20EE200AD1ED000A57
:1025200000EEC10A80ED010A91ED000AD2ED010A28
:1025300092ED001A20EE200AD1ED010A00EEC10A48
:1025400080ED020A704700002DE9F04FB04C1D46A7
:102550002DED0E8BFFB0F0EE409A164630EEE98A74
:1025600088468146F0EE41AADDE996BA002700BF11
:102570000AEB8700B0EE483AD0ED002A0BEB87005B
:1025800090ED002A05EB8700D0ED001A06EB8700DE
:1025900090ED001A08EB8700D0ED000A09EB8700E8
:1025A00090ED000A07EB470004EBC000FFF710FFB7
:1025B0007F1CFFB2062FDBD3964F0025B0EE00BA8A
:1025C000F0EE08BAB1EE00CAF1EE04CA0DF5847956
:1025D0009FED918A07F57B5800EE905AB0EE690A9C
:1025E0008B4AF8EE600A002031AB4E4600EEAA0A94
:1025F00020EE002A62EE001A21EE801A61EE004AF7
:1026000000EB400102EBC101D1ED002AD1ED010A3E
:1026100091ED023A91ED034A40EE802A91ED045A81
:10262000D1ED053A03EB800143EE022A44EE212A64
:1026300045EE012A43EEA42AC1ED002A63EE0B2ADF
:1026400006EB8001401CC0B242EE800A64EE2B2AE9
:10265000062842EE820A65EE0C2A42EEA10A63EEDB
:10266000AC2A42EE810AC1ED000AC9D331A890EC30
:10267000030A5DA800F046F934A890EC030A6DA89F
:1026800000F0D4F86DAA5DA948A800F0A7F9DFF81A
:102690008CA100249FED62DADFED62DADFF874B11D
:1026A0000BF1200B9FED60EAB1466E465B4848A9EE
:1026B000803000EB041000F029FA0AEB0410B0EEB1
:1026C00040AAD0ED001AB0EE609AF0EE418A31EEE9
:1026D000C00A8DED3F0A90ED010A30EE600A8DEDE3
:1026E000400A90ED020A3FA830EE410A8DED410A02
:1026F00000F094FB1DB907EB840080ED000A07EBA6
:1027000084003CAAD0ED000A40F2F51004FB00F36F
:1027100070EE600A0BEB830000EB85005AA980EE97
:10272000881AC1EE0D0A60EEAD0AC0ED000ADDEDBB
:102730003F0A37A880EE801A8DED3C1ADDED400A85
:1027400080EE801A8DED3D1ADDED410A80EE801A93
:102750008DED3E1A9DED310A3AEE400A8DED5A0A92
:102760009DED320A39EE400A8DED5B0A9DED330A8C
:1027700038EEC00A8DED5C0AFFF7BAFE04EB4400A8
:102780009DED3C0A06EBC00008EB830180ED000ADA
:102790009DED3D0A01EB850280ED010A9DED3E0AAB
:1027A000002180ED020A9DED370A4B4680ED030AB9
:1027B0009DED380A80ED040A9DED390A80ED050A89
:1027C00082ED00EA00EB810C9CED000A03EB810C2A
:1027D000491CDCED000AC9B2062960EE200A80EE31
:1027E000880AD2ED000A30EEC00A82ED000AE9D371
:1027F000641CE4B2082CFFF459AF6D1CADB2B5F502
:10280000FA7F7FF6E9AE7FB0BDEC0E8BBDE8F08FAE
:10281000D07D0020700000205C8F423D382E0008E3
:10282000DA0F4940000034430000000010B50446B0
:102830002DED068BC0B0F0EE41AAF0EE609AF0EEFE
:10284000408AFFF765FBB0EE408AB0EE680AFFF7FA
:1028500007FCF0EE408AB0EE690AFFF759FBB0EED4
:10286000409AB0EE690AFFF7FBFBF0EE409AB0EE3B
:102870006A0AFFF74DFBB0EE40AAB0EE6A0AFFF716
:10288000EFFBF0EE40AA40221D496846FDF7CBFC65
:102890008DED00AAB1EE6A0A8DED010A1849CDED61
:1028A00004AA8DED05AA4022403110A8FDF7BBFC1B
:1028B0008DED109ACDED129AB1EE690A10498DEDA9
:1028C000180A8DED1A9A4022803120A8FDF7ABFC42
:1028D0008DED258AB1EE680A8DED260ACDED298AA7
:1028E0008DED2A8A10AA694630A800F077F820AA50
:1028F00030A9204600F072F840B0BDEC068B10BD48
:10290000382F0008B7EE002ADFED111A80ED002AFB
:10291000C0ED011AC0ED021A80ED030AC0ED041AE1
:1029200080ED052AC0ED061AC0ED070AC0ED081AB1
:10293000C0ED091A80ED0A2A80ED0B1AC0ED0C1AC1
:10294000C0ED0D1AC0ED0E1A80ED0F2A7047000081
:10295000000000002DED028B88B0FDF795FFFEF71B
:10296000E7FFFEF723FFFEF7A3FFFEF7BFFFFEF72B
:102970006BFF154C00206060A060FEF751FE13480D
:10298000FEF78EFB9FED128A124D00BFFEF772FE1E
:102990002070FEF769FE6070217851B108B985EDAD
:1029A000008AFEF73DFEFFF7BFF80A20FDF74AFE5A
:1029B00001E000F099F86846FEF7F2FE1C22694635
:1029C0000548FDF730FCE1E7400000207C7E002058
:1029D0000000000068000020607E0020F0B59FED40
:1029E000160A0025002401EB051700EB051C00BFAB
:1029F0000CEB84065FF0000386ED000A07EB830E04
:102A0000D6ED000A9EED001A02EB031E0EEB840EBB
:102A10005B1CDEED001ADBB2042B41EE210AC6ED91
:102A2000000AEBD3641CE4B2042CE1D36D1CEDB2BC
:102A3000042DD7D3F0BD00000000000010B50446FF
:102A40002DED048B2220B0EE618A44F8220F0A207B
:102A5000E080F0EE418AB0EE609AA18010EE100A9C
:102A6000FDF7F7FC9FED0B1B53EC112BFDF7FFFB64
:102A7000FDF702FD206119EE100AE0600020A06061
:102A800018EE900A606118EE100AA061BDEC048B8C
:102A900010BD0000F9978C385F54C43F2222C0F863
:102AA00022200A220285C184002110EE102A0C4B3C
:102AB000DFED0A0AC0F83210C0F82E109A4201DD8C
:102AC000B0EE600A9FED071AC0EE010A10EE902AE0
:102AD00040F82A2FC160016170470000000000002B
:102AE000000020419A99114110B59FED050A00217F
:102AF0000448FFF7D3FFBDE81040034800F050B88A
:102B0000000000009C7F0020C47E0020D0ED001A51
:102B100091ED000AD0ED012AD1ED010A21EE800AE3
:102B200090ED023A90ED032A91ED051A02EEA00A0B
:102B3000D1ED020AD1ED093A03EE200AD1ED030AE4
:102B400002EE200AD1ED040A61EEA00A42EE810AEB
:102B500091ED061A43EE010A91ED071A42EE010AC1
:102B600091ED081A21EE811A02EEA31AD1ED0A3A6C
:102B700003EE231AD1ED0B3A02EE231AD1ED0C3AF3
:102B800061EEA31AD1ED0D3A42EEA31AD1ED0E2A51
:102B900043EE221AD1ED0F2A42EE221A70470000AE
:102BA0002DE9F04F8A4D2DED028B89B0A8427CD1E2
:102BB000884CFE2004F8010BEE2004F8010B94F879
:102BC000240020700020607094F82610A170FF216E
:102BD000E17020716071C4F80600A16A00EE101A5D
:102BE000DFED7D0A20EE200ABDEEC00A10EE101ABD
:102BF0006181E16A00EE101ADFED780A20EE200A0A
:102C0000BDEEC00A10EE101AA181216B00EE101A61
:102C10009FED731AC0EE010A9FED720A20EE800A42
:102C2000BDEEC00A10EE101AC4F80E10616B00EE73
:102C3000101ADFED6D0A20EE200ABDEEC00A10EE7C
:102C4000101A6182A16B00EE101ADFED680A20EE07
:102C5000200ABDEEC00A10EE101AA182A075E07520
:102C6000E06BA06107215B48FFF724FCE0612222B2
:102C700058496846FDF7D7FA01225D4F56023146A2
:102C80003846FDF7EEFD0123222269462846FEF76D
:102C900041FC584C0022314660703846FDF7E1FD9A
:102CA00001234E225449284600E087E0FEF7DAFB74
:102CB00020702846FEF753FB6060E88D4E49C0F156
:102CC0004E00A060A1F50C748D78A5700E79267168
:102CD00091F90670A771CB79E371B1F90C20A2814B
:102CE000B1F90EC0A4F80EC0B1F91A80A4F81A8088
:102CF000E346887F91F821C000EE102A40EA0C607C
:102D000091F820C0C97F4FEA0C4CB8EEC00A4CEADB
:102D10000121DFED3A0A0843C4F81E0084F852503E
:102D200020EE200A84F85360B246676510EE106A00
:102D3000A3659946E665FDF77BFB9FED311B53ECE0
:102D4000112BFDF706FBFDF797FB00EE10BADFED48
:102D50002E0A6066B8EEC00A9FED2D8B20EE200A89
:102D600010EE101A9FED290A2166C4F86C8055B345
:102D7000012D2BD0022D21D104F5D27400EE906AE2
:102D800084F8525084F853A060EE800A6765C4F856
:102D9000589010EE902A00EE901AE26580EE801AAC
:102DA00011EE101A2166FDF754FB53EC182BFDF7BA
:102DB0005EFAFDF761FB6066C4F86C8009B0BDEC9B
:102DC000028BBDE8F08F034CCE34D7E7124CD5E729
:102DD000C47E00209C7F0020000080430000004350
:102DE000F90FC94000008046000000450000804403
:102DF000001402405C0000200E8200200000803B96
:102E0000F5DA7A8E315FA4400000003C9A991141B6
:102E1000E2FBF7BB5A2F1940F680002090ED000A24
:102E2000D0ED010A20EE000A00EEA00AD0ED020A61
:102E300000EEA00AFFF7DCB99643CBBE54E3A53EF3
:102E400085EB513F0000803F9643CBBE54E3A5BEC7
:102E500085EB513F0000803F9643CB3E54E3A5BE37
:102E600085EB513F0000803F9643CB3E54E3A53EA7
:102E700085EB513F0000803F9643CBBE54E3A53E17
:102E8000560E2D3E0000803F9643CBBE54E3A5BEB8
:102E9000560E2D3E0000803F9643CB3E54E3A5BE28
:102EA000560E2D3E0000803F9643CB3E54E3A53E98
:102EB000560E2D3E0000803FCDCC4CBDCDCC4C3DC0
:102EC000CDCC4CBD0000803FCDCC4CBDCDCC4CBD5D
:102ED000CDCC4CBD0000803FCDCC4C3DCDCC4CBDCD
:102EE000CDCC4CBD0000803FCDCC4C3DCDCC4C3D3D
:102EF000CDCC4CBD0000803FCDCC4CBDCDCC4C3DAD
:102F0000CDCC4C3D0000803FCDCC4CBDCDCC4CBD9C
:102F1000CDCC4C3D0000803FCDCC4C3DCDCC4CBD0C
:102F2000CDCC4C3D0000803FCDCC4C3DCDCC4C3D7C
:102F3000CDCC4C3D0000803F0000000000000000B0
:102F40000000000000000000000000000000000081
:102F50000000000000000000000000000000000071
:102F60000000803F000000000000000000000000A2
:102F7000000000000000803F000000000000000092
:102F80000000000000000000000000000000803F82
:102F90000000000000000000000000000000000031
:102FA0000000000000000000000000000000000021
:102FB000000000000000803F0000803F0000000093
:102FC0000000000000000000000000000000000001
:102FD00000000000000000000000000000000000F1
:102FE00000000000000000000000000000000000E1
:102FF000000000000000803F0000803E0000803E96
:10300000713D0A3E000000000000000000000000CA
:103010000000803E0000803E1F85AB3E00000000A7
:1030200000000000000000000000803E0000803E24
:10303000713D0A3E0000000000000000000000009A
:103040000000803E0000803E1F85AB3E0000000077
:1030500000000000000000000000803E0000803EF4
:10306000713D0A3E0000000000000000000000006A
:103070000000803E0000803E5C8F223F0000000088
:103080000000000000000000000000000000000040
:1030900001020304060708090000000001020304FE
:1030A000000000006E83F9A22915444ED15727FC79
:1030B000C0DD34F5999562DB4190433CAB6351FE32
:1030C000E03000080000002070000000A423000889
:1030D0005031000870000020F0C10000B423000847
:1030E000000000000000000000100240100000007E
:1030F00000000000000000000000000000000000D0
:103100000000000000100240080000000000000065
:1031100000000000000000000000000000000000AF
:10312000000000000000000000000000010000009E
:1031300010000000000000000024F4000000000067
:10314000000000000000000000000000000000007F
:040000050800018965
:00000001FF
