:020000040800F2
:10000000F805012029020008631B000835190008C3
:10001000611B00080B050008B52000080000000067
:10002000000000000000000000000000671B000846
:10003000E105000800000000651B0008691B0008BE
:10004000430200084302000843020008430200087C
:10005000430200084302000843020008430200086C
:10006000430200084302000843020008430200085C
:10007000430200084302000843020008430200084C
:100080000D05000819050008430200084302000896
:10009000430200084302000843020008430200082C
:1000A00043020008111C0008430200084302000834
:1000B0001D1C000843020008430200084302000818
:1000C00043020008430200084302000843020008FC
:1000D00043020008430200084302000843020008EC
:1000E00043020008430200084302000843020008DC
:1000F00043020008430200084302000843020008CC
:1001000043020008430200084302000843020008BB
:1001100043020008430200084302000843020008AB
:1001200043020008430200082505000843020008B6
:10013000430200084302000843020008430200088B
:10014000430200084302000843020008430200087B
:10015000430200084302000831050008430200087A
:10016000430200084302000843020008430200085B
:100170004302000843020008430200080000000098
:10018000430200084302000800F002F800F03CF8C7
:100190000AA090E8000C82448344AAF10107DA45E2
:1001A00001D100F031F8AFF2090EBAE80F0013F0F8
:1001B000010F18BFFB1A43F001031847342B00004E
:1001C000542B0000103A24BF78C878C1FAD85207DF
:1001D00024BF30C830C144BF04680C6070470000C1
:1001E0000023002400250026103A28BF78C1FBD840
:1001F000520728BF30C148BF0B6070471FB502F0DF
:1002000054FD1FBD10B510BD00F046F91146FFF7B3
:10021000F5FF01F0EFFF00F064F903B4FFF7F2FF20
:1002200003BC00F06BF9000009488047094800470B
:10023000FEE7FEE7FEE7FEE7FEE7FEE7FEE7FEE796
:10024000FEE7FEE704480549054A064B70470000F3
:10025000011C000889010008F8FF0020F8050120B2
:10026000F8010120F801012053EA020C00F0698036
:100270002DE9F04B4FF00006002B1FBFB3FA83F5BA
:1002800003FA05F424FA05F65E4012BF1643B2FAEB
:1002900082F502FA05F4C5F120051EBF22FA05FC1D
:1002A00044EA0C04203556EA044C4FEA144418BFC3
:1002B000641C4FF000084FF00009904271EB030CF2
:1002C00039D3002919BFB1FA81F701FA07F6B0FA5C
:1002D00080F700FA07F6C7F120071EBF20FA07FCD7
:1002E00046EA0C062037B6FBF4FCA7EB0507103FE7
:1002F00007F01F0BCBF120060CFA0BFB2CFA06F6CD
:1003000044BFB3460026202FA4BF5E464FF0000B2B
:100310005BEA060C08BF4FF0010B19EB0B09ABFBB6
:10032000027C48EB0608C01B06FB02CC0BFB03CC8F
:1003300071EB0C01C1E70B46024641464846BDE859
:10034000F08B13B54FF000004FF00001AFF30080C9
:10035000BDE81C407047032A40F2308010F0030CC7
:1003600000F0158011F8013BBCF1020F624498BF08
:1003700011F801CB00F8013B38BF11F8013BA2F1A5
:10038000040298BF00F801CB38BF00F8013B11F020
:10039000030300F04F80083AC0F0088051F8043B96
:1003A000083A51F804CBA0E80810F5E7121D5CBF2D
:1003B00051F8043B40F8043BAFF30080D20724BF60
:1003C00011F8013B11F801CB48BF11F8012B24BFF4
:1003D00000F8013B00F801CB48BF00F8012B704743
:1003E0004FF0000200B5134694469646203922BFCE
:1003F000A0E80C50A0E80C50B1F12001BFF4F7AF19
:10040000090728BFA0E80C5048BF0CC05DF804EBFA
:10041000890028BF40F8042B08BF704748BF20F868
:10042000022B11F0804F18BF00F8012B7047704766
:100430007047704710B5203AC0F00B80B1E81850F3
:10044000203AA0E81850B1E81850A0E81850BFF4BE
:10045000F5AF5FEA027C24BFB1E81850A0E818505D
:1004600044BF18C918C0BDE810405FEA827C24BFB1
:1004700051F8043B40F8043B08BF7047D20728BF3F
:1004800031F8023B48BF11F8012B28BF20F8023B8E
:1004900048BF00F8012B7047754600F02BF8AE46B8
:1004A00005006946534620F00700854618B020B580
:1004B000FFF7C8FEBDE820404FF000064FF00007F0
:1004C0004FF000084FF0000B21F00701AC46ACE8FC
:1004D000C009ACE8C009ACE8C009ACE8C0098D4669
:1004E000704710B50446AFF300802046BDE81040C9
:1004F000FFF793BE0048704798FF0020014918207D
:10050000ABBEFEE7260002007047FEE7014800F0A0
:100510006BB80000D0FB0020014800F065B8000077
:1005200030FC0020014800F05FB8000010FB002004
:10053000014800F059B8000070FB00200168182342
:10054000CAB2103AB2FBF3F2054B6FF30901032A6A
:100550009B5CC36500D9091D816508467047000092
:10056000D02C000810B5014600208B698A6A4FF034
:10057000C07453B1B3F5005F15D072B1012A0CD02D
:10058000022A0AD0032A09D104E01AB1012A06D0AE
:10059000022A03D1C96AC90100D5012010BDC96A68
:1005A000A142FAD010BD002AF7D0012AF2D0022AC7
:1005B000F3D0032AF3D010BD30B50468256825F4C4
:1005C00080252560046863608368402B036803D03E
:1005D00099600068C26030BD9A600068C16030BD3B
:1005E000704772B6FEE700002DE9F84304464FF06D
:1005F0000009CDF8009063484FF41651A56D0068CE
:10060000B0FBF1F72E6894F85C10082000FA01F1B5
:1006100031420FD021680A6852070BD50A6822F0D0
:1006200004020A6094F85C108840A860606D40F095
:100630000100606594F85C104FF0010808FA01F0C1
:10064000304208D021684969090604D5A860606D68
:1006500040F00200606594F85C100420884030424D
:1006600008D021680968890704D5A860606D40F04A
:100670000400606594F85C1010208840304218D067
:1006800021680968090714D5A86020680168490332
:1006900004D50068000308D5A16C07E00168C9050E
:1006A00003D4016821F008010160216C09B12046E2
:1006B000884794F85C1020208840304231D021686F
:1006C0000968C9062DD5A86094F83500052820686A
:1006D000016806D0490347D5006800031DD4616C4A
:1006E0001CE021F0160101602068416921F08001C1
:1006F0004161206C08B9A06C20B12068016821F02C
:100700000801016094F85C103F208840A86084F8DC
:10071000358084F83490216D1FE0E16B09B12046EB
:100720008847606D00282BD0606DC00714D005206D
:1007300084F835002068016821F00101016000980B
:10074000401C0090B84203D820680068C007F6D16A
:1007500084F8358084F83490E16C002910D001B021
:100760002046BDE8F04308470168C905D5D40168B3
:1007700021F01001016084F8358084F83490CCE7D2
:10078000BDE8F883200000202DE9F041044600F088
:100790009BF906465CB1022084F83500002584F8F8
:1007A00034502068016821F0010101600DE0012052
:1007B000BDE8F08100F088F9801B052805D92020CC
:1007C0006065032084F83500F2E720680068C00700
:1007D000F0D12268116820480140D4E90103184390
:1007E000D4E903363343184363691843A3691843B4
:1007F000E3691843236A18430843616A042903D153
:10080000D4E90B1319430843106020684069666AF5
:1008100020F0070130460E43012704280CD1A06ABE
:100820000643E06A40B12046FFF79CFE20B140201D
:10083000606584F83570BAE7206846612046FFF7A6
:100840007DFE94F85C203F2191408160656584F8CD
:1008500035700020ACE700003F8010F02DE9F0413A
:100860000446866D90F83400002501280DD0012043
:1008700084F8340094F835700020012F07D084F8F4
:10088000340002252846BDE8F0810220FBE702275C
:1008900084F8357060652046FFF78EFE94F85C1092
:1008A0003F208840B0602068016841F01601016077
:1008B000206C20B12068016841F0080101602068C7
:1008C000016841F001010160DCE700002DE9F84F0B
:1008D000DFF8BCA10022012503264FF00F090AF121
:1008E000040BAAF1040E00BF0B6805FA02F42340C2
:1008F000A34270D10F7907F00307012F01D0022F17
:1009000016D187684FEA420806FA08FC27EA0C0766
:10091000D1F80CC00CFA08FC4CEA070CC0F808C06F
:100920004768A7430C79C4F3001494403C434460E7
:100930000C79E443A4070AD0C4684FEA420C06FAD3
:100940000CF7BC438F6807FA0CF72743C7600C7994
:1009500004F00304022C12D1D40800EB840CDCF860
:1009600020405707FF0E09FA07F824EA0804D1F8D7
:10097000108008FA07F848EA0408CCF820800468D8
:100980004FEA420C06FA0CF7BC430F7907F0030755
:1009900007FA0CF7274307604C6814F4403F70D007
:1009A0003C4C276847F480472760246822F00307FF
:1009B00004F480440094384C07EB040CDCF808483D
:1009C00097074FEA177809FA08F7BC43334FB84244
:1009D00002D1002724E054E0314FB84201D1012771
:1009E0001EE0304FB84201D1022719E02E4FB84225
:1009F00001D1032714E02D4FB84201D104270FE0A5
:100A00002B4FB84201D105270AE02A4FB84201D145
:100A1000062705E0284FB84201D1072700E0082744
:100A200007FA08F72743CCF80878DAF80040574669
:100A3000D1F804C09C435FEACC2C00D51C433C6039
:100A4000DBF800405F46D1F804C09C435FEA8C2C81
:100A500000D51C433C60DEF800407746D1F804C066
:100A60009C435FEA8C3C00D51C433C60084F083F28
:100A70003C68D1F804C09C435FEACC3C00D51C43E1
:100A80003C60521C102AFFF42FAFBDE8F88F000025
:100A9000083C014044380240003001400000024060
:100AA0000004024000080240000C02400010024016
:100AB0000014024000180240001C02400AB181618B
:100AC00070470904FBE70000014880687047000098
:100AD0001400002002488168027811448160704748
:100AE000140000200B4810B5016841F4007101604A
:100AF000016841F480610160016841F48071016026
:100B0000032000F095F80F2000F006F800F04AF8F6
:100B1000002010BD003C024030B505461C4887B09F
:100B20000024016841F001010160006806A900F09D
:100B30000100009001A800F027F900F055F91549CF
:100B40004000B0FBF1F11548134A491E026040F223
:100B5000E732C0E90324C0E90114846100F084FB9A
:100B6000040012D10D4800F0C9FB04000DD119207A
:100B700000F030F8102D07D200222946192000F08D
:100B800037F80748056000E0012407B0204630BD73
:100B90004438024040420F000000014090FC002019
:100BA000180000200A4808B5016841F4804101603E
:100BB000006800F4804000900548001F016841F083
:100BC00080510160006800F08050009008BD000076
:100BD00044380240002809DB00F01F020121914047
:100BE0004009800000F1E020C0F8001170470000CB
:100BF000F0B40E4B1B680C46C3F30223C3F1070588
:100C0000042D00D90425191D072901D2002300E075
:100C1000DB1E012606FA05F1491E214099409E403F
:100C2000761E16403143F0BC01F045BA0CED00E0F1
:100C3000064900F0070208684FF6FF03184040EA33
:100C40000220034A10430860704700000CED00E0EA
:100C50000000FA052DE9F0470E46050065D0DFF8E3
:100C60001481D8F80000F7B200F00700B04207D2B4
:100C700088F80070D8F8000000F00700B04254D1A6
:100C800028683D4C810712D5400703D5206840F401
:100C9000E05020602878000703D5206840F46040C9
:100CA00020602068A96820F0F000084320602878C0
:100CB000C0072DD0304968680839012812D00228B1
:100CC00013D0032811D00968890700292DDA21687B
:100CD00021F0030101432160FFF7F6FE814641F256
:100CE000883A0EE009688903EFE709688901ECE7B3
:100CF000FFF7EAFEA0EB0901514502D90320BDE848
:100D0000F0872068696800F00C00B0EB810FEFD12C
:100D1000D8F80010404601F00701B14207D907702A
:100D2000006800F00700B04201D00120E7E7287812
:100D3000400705D52068E96820F4E05008432060AA
:100D40002878000706D52068296920F4604040EA29
:100D5000C100206000F058F82168084AC1F303116F
:100D6000515CC8400649086006480068FFF7D4FE99
:100D70000020C4E7003C024008380240D82C00089C
:100D800020000020180000200F2202600C4A136887
:100D900003F003034360136803F0F00383601368F8
:100DA00003F4E053C36012684FF4E05303EAD20245
:100DB00002610448006800F0070008607047000006
:100DC00008380240003C02400448054900680968B0
:100DD000044AC1F38221515CC840704720000020C2
:100DE00008380240E82C00080448054900680968F2
:100DF000044AC1F34231515CC840704720000020D2
:100E000008380240E82C0008154810B5006810F0BA
:100E10000C02144813D04110042A0FD0082A0ED116
:100E20000F4C241F2268236802F03F025B0207D5A3
:100E30002068C0F38810A0FB010106E0084610BD41
:100E40002168C1F38811A1FB00010023FFF70CFA10
:100E50002168C1F30141491C4900B0FBF1F010BD0C
:100E6000083802400024F4002DE9F84F04006ED049
:100E70002078DFF84C93C007A9F104054AD009F1A6
:100E800004000168C1F38101012908D00068C0F3A2
:100E9000810002280AD1D9F80000400206D528684E
:100EA000800337D560680028E1D033E06068B0F592
:100EB000803F10D0B0F5A02F286810D020F48030EB
:100EC0002860286820F4802028606068A8B1FFF7B7
:100ED000FBFD06460DE0286840F48030F4E740F45E
:100EE00080202860F7E700BFFFF7EEFD801B642835
:100EF00073D828688003F7D50CE0FFF7E5FD0646B8
:100F000005E000BFFFF7E0FD801B6428F0D82868EB
:100F10008003F7D42078DFF8AC8280074FF0000A16
:100F20003ED5A748001D016811F00C0F08D00068DD
:100F3000C0F3810002280BD1D9F80000400207D489
:100F40002868800716D5E068012800D112E033E157
:100F5000E068B8B10120C8F80000FFF7B5FD06460B
:100F600005E000BFFFF7B0FD801B0228C0D828684D
:100F70008007F7D52868216920F0F80040EAC10011
:100F800028600DE0C8F800A0FFF79EFD064604E0CB
:100F9000FFF79AFD801B02281FD828688007F7D426
:100FA0002078000722D5864F87486169703771B174
:100FB00001210160FFF788FD064604E0FFF784FD8C
:100FC000801B022809D838688007F7D50EE0C0F8E2
:100FD00000A0FFF779FD064605E082E0FFF774FD0B
:100FE000801B02287DD838688007F7D42078400716
:100FF00068D5DFF8CCB100270BF13C0BDBF8000023
:10100000C0000BD4DBF8001041F08051CBF8001089
:10101000DBF80000012700F0805000906B4E306834
:10102000C00510D4306840F480703060FFF74CFD8C
:10103000009005E0FFF748FD0099401A022850D8BB
:101040003068C005F6D55E4EA0686C3601280FD01A
:101050000528306810D020F001003060306820F0A2
:1010600004003060A068B8B1FFF72EFD00900FE0DB
:10107000306840F00100F4E740F004003060F7E72A
:10108000FFF722FD0099411A41F28830814266D86B
:1010900030688007F4D50EE0FFF716FD009007E0FA
:1010A000FFF712FD0099411A41F28830814256D86B
:1010B00030688007F4D42FB1DBF8001021F08051A4
:1010C000CBF80010A069C8B33D49091D0968C1F3F8
:1010D000810102294AD00228504607D0C8F8600092
:1010E00000E03CE0FFF7F0FC04463BE04746C8F870
:1010F0006000FFF7E9FC064605E000BFFFF7E4FCEF
:10110000801B02282BD828688001F7D4D4E9070176
:101110000843A16A2E4A490802EB0141626A41EA8A
:101120008211084394F82C1040EA0161C9F80010BC
:1011300001203866FFF7C8FC044606E03EE000BF29
:10114000FFF7C2FC001B022809D828688001F7D5E8
:1011500034E000BFFFF7B8FC001B022802D90320CF
:10116000BDE8F88F28688001F4D427E00128F7D083
:10117000D9F80000E26900F4800191421CD1226A92
:1011800000F03F01914217D147F6C071626A0140F9
:10119000B1EB821F10D1A26A4FF0FF3300F440314F
:1011A00003EB5202B1EB024F06D194F82C1000F081
:1011B0007060B0EB016F01D00120D1E70020CFE7D4
:1011C0000438024000004742800E47420070004051
:1011D0000000FFFF7047704770B590F83C20012A6F
:1011E00032D0012480F83C40022280F83D20036880
:1011F0005A689D6822F070060A6832435A60134BA1
:1012000002689A4214D0B2F1804F11D0104B9A422A
:101210000ED0104B9A420BD00F4B9A4208D00F4B76
:101220009A4205D00E4B9A4202D00E4B9A4204D1FC
:10123000496825F080031943916080F83D40002102
:1012400080F83C10084670BD022070BD00000140CF
:101250000004004000080040000C00400004014071
:10126000004001400018004010B5040003D094F87D
:101270003D0010B107E0012010BD002084F83C00C3
:10128000204600F01FF8022084F83D00211D206850
:1012900000F0CAFC012084F8460084F83E0084F87F
:1012A0003F0084F8400084F8410084F8420084F84C
:1012B000430084F8440084F8450084F83D00002091
:1012C00010BD000008B50068B0F1804F12D10A4887
:1012D000016841F0010101600068002200F0010096
:1012E000009011461C20FFF783FCBDE808401C203D
:1012F000FFF770BC08BD00004038024090F83D1078
:10130000012901D001207047022180F83D100168B9
:10131000CA6842F00102CA6000681149884214D0CC
:10132000B0F1804F11D00F4988420ED00E4988424B
:101330000BD00E49884208D00D49884205D00D498E
:10134000884202D00C49884204D1816801F007012B
:10135000062903D0016841F00101016000207047B7
:10136000000001400004004000080040000C004064
:1013700000040140004001400018004070B50446E0
:1013800090F83C000025012817D0012684F83C6025
:10139000022084F83D002068826822F0770222F45F
:1013A0007F4282600868502838D00DDC20284FD05A
:1013B00005DC90B3102811D14AE0022070BD30281E
:1013C00046D040280AD13BE060282FD070280DD0AD
:1013D000B0F5805F03D0B0F5005F12D0012584F82E
:1013E0003D60002084F83C00284670BDCB68D1E900
:1013F0000121206800F080FC2068816841F07701BD
:1014000009E0CB68D1E90121206800F075FC206873
:10141000816841F480418160E1E719E0CA68496868
:10142000206800F07BFC5021206806E0CA6849680B
:10143000206800F084FC6021206800F067FCCEE7A3
:10144000CA684968206800F069FC40212068F4E718
:10145000226801461046F0E770472DE9F041044646
:101460000068C66805694FF00007A90713D5B107E2
:1014700011D5F91E0161012020772068806980075D
:10148000204602D0FFF7E8FF04E000F07EF8204697
:1014900000F07CF82777680716D5700714D5216807
:1014A0006FF004000861022020772068806910F442
:1014B000407F204602D0FFF7CFFF04E000F065F840
:1014C000204600F063F82777280715D5300713D595
:1014D00021686FF008000861042020772068C06947
:1014E0008007204602D0FFF7B7FF04E000F04DF878
:1014F000204600F04BF82777E80616D5F00614D5FD
:1015000021686FF010000861082020772068C0690A
:1015100010F4407F204602D0FFF79EFF04E000F069
:1015200034F8204600F032F82777E80708D0F007B3
:1015300006D021686FF001000861204600F028F80D
:10154000280608D5300606D521686FF080000861AE
:101550002046FFF73FFE680608D5700606D52168CD
:101560006FF040000861204600F09CF8A8060AD5FC
:10157000B00608D521686FF0200008612046BDE85C
:10158000F041FFF728BEBDE8F081704770470000CA
:101590002DE9F04104462DED048B0068394988425D
:1015A00001D1FFF797FA2068B0F1804F10D1364C87
:1015B00000256068B0F57A7F4ADA217861B1217838
:1015C000491C21702178052902D12570401C6060DA
:1015D000BDEC048BBDE8F0812CA12D4E0D8806EBEF
:1015E000800106F57A6707EB800091ED000AD0EDE7
:1015F000000A2848F0EE408AB0EE608A90ED001AAA
:10160000D0ED019AD0ED021A90ED039AE8B200F005
:1016100093F9B0EE692AC5F30720F0EE491AB0EE4F
:10162000421AF0EE480AB0EE680A00F085F96078D8
:1016300050B1606807EB800106EB8000D1ED000A35
:1016400090ED000A00F048FD2078401C2070BFE7B4
:101650009FED118A00211148B0EE480A00F04CFEBF
:101660000F4800F0D5FEB0EE480A01210B4800F00B
:1016700043FE0B4800F0CCFE60780028A8D06570CF
:10168000A6E700000000014000000020000100006B
:1016900038000020C02C000800000000D8FC00200A
:1016A00080FA0020704770477047406C704770B5F3
:1016B000040004D094F84100002510B106E0012098
:1016C00070BD84F84050204600F024F8242084F8AF
:1016D00041002068C16821F40051C160204600F03B
:1016E00013FC2068016921F490410161206841697F
:1016F00021F02A0141612068C16841F40051C160B4
:101700006564202084F8410084F84200656300206D
:1017100070BD00002DE9F04786B0044614216846EC
:10172000FEF75EFEDFF844C102212668504803221E
:101730000723DFF8408100258F064FF0400A4FF461
:101740008069664545D14A4E1436D6F800C04CF043
:10175000100CC6F800C0366806F01006059606683C
:1017600046F001060660006800F001000590500296
:101770008DE8230069464046CDE90323FFF7A6F82C
:101780003E4E3D48C8463060C6E90175C6E903597A
:101790007561B561F561356230467562FEF7F4FF3B
:1017A00008B1FEF71EFFE6633348B463334E78306A
:1017B0006036C6E903587561B561F56135627562D9
:1017C00086E88104304649E0A663B46306B0BDE80C
:1017D000F087DFF8ACC06645F8D1254E1036D6F854
:1017E00000C04CF4003CC6F800C0366806F4003671
:1017F0000596066846F001060660006800F00100E4
:1018000005900C208DE8230069464046CDE903236E
:10181000FFF75CF8194E1B48C036B8463060C6E981
:101820000175C6E903597561B561F56135624F46C9
:1018300030467562FEF7A8FF08B1FEF7D2FEE663F8
:10184000B463114E0F48C6E903577561B561F56180
:1018500035621830756286E801053046FEF794FF60
:101860000028B1D0FEF7BDFEAEE700000010014039
:1018700030380240000002404064024010FB00206B
:10188000004400408860024030FC002090F8423064
:10189000202B01D00220704721B11AB1002303632D
:1018A00000F0B8BB012070477047704770B5044620
:1018B00090F84100202801D0022070BD01B3FAB198
:1018C0002162A284E28400206064212384F84130F4
:1018D000A56B144BEB63A56B134B2B64A56B134BE0
:1018E000EB64A36B186520681346A56B021D2846A0
:1018F000FEF7B4FF30B110206064202084F841006E
:10190000012070BD21686FF040000860206814302D
:1019100050E8001F41F0800140E80012002AF5D194
:10192000002070BD511E0008931E0008631D0008B2
:1019300070477047FEE7000010EE101A114A10B50C
:10194000914202DD9FED100A06E010EE101A0F4AD8
:10195000914201D99FED0E0A0E4910B1012803D022
:101960000AE091ED002A01E091ED012A01460A48C2
:1019700030EE020A00F090FCBDE81040074800F08D
:1019800047BD00000000C8430000C8430000C8C3B2
:101990000000C8C330000020D8FC002080FA0020DE
:1019A000194808B5016841F480010160016801F43B
:1019B00080010091016841F400110160006800227B
:1019C00000F40010009011461020FFF711F91020CC
:1019D000FFF700F9002211461120FFF709F9112045
:1019E000FFF7F8F8002211463A20FFF701F93A20F4
:1019F000FFF7F0F8002211464620FFF7F9F8BDE89E
:101A000008404620FFF7E6B83038024030B587B0CE
:101A100014216846FEF7E4FC18480024016841F0F0
:101A200020010160016801F020010591016841F089
:101A300080010160016801F080010591016841F0B9
:101A40000101016000680E4D00F0010001220590C7
:101A500051022846FFF732F8002229152846FFF7E1
:101A60002DF84FF4C06000900120CDE901046946D3
:101A700028460394FEF72AFF07B030BD30380240F5
:101A80000014024010B586B0002417480094019459
:101A90000294039404944FF0804105940160532113
:101AA000C0E9011440F2E731C0E9031480218161EB
:101AB000FFF7DAFB08B1FEF794FD4FF48050009079
:101AC00069460948FFF75AFC08B1FEF78AFD0494FD
:101AD00004A905480594FFF77FFB002801D0FEF715
:101AE00080FD06B010BD000038FA00200C4810B58B
:101AF0000A4901600B494160002181600C22C160EC
:101B0000C0E904128161C161FFF7D1FD002803D053
:101B1000BDE81040FEF765BD10BD0000001001409B
:101B200080FA0020003E49000C4810B50A490160C7
:101B30004FF4E1314160002181600C22C160C0E9B5
:101B400004128161C161FFF7B2FD002803D0BDE836
:101B50001040FEF746BD10BD00440040C8FA00200A
:101B6000FEE7FEE7704770477047000030B593B05E
:101B700030216846FEF734FC14210CA8FEF730FC37
:101B80001D480025016841F080510160006800F0A7
:101B9000805011901948016841F48041016000684B
:101BA000022400F480401190012000900004019074
:101BB0008001CDE9064008AA0420A82182E813008C
:101BC0000B906846FFF750F908B172B6FEE70CA912
:101BD0000F2081E831004FF4A0500F904FF4805057
:101BE000109005210CA8FFF735F8002801D072B637
:101BF000FEE713B030BD00004038024000700040E6
:101C00000248016841F470010160704788ED00E00E
:101C10000148FFF722BC000090FC00200148FFF7BC
:101C20001CBC000038FA0020F0B50268274B284D94
:101C3000284E294F294C4FF0804C984209D06045DE
:101C400007D0A84205D0B04203D0B84201D0A0428C
:101C500004D122F0700E4A6842EA0E0298421BD06C
:101C6000604519D0A84217D0B04215D0B84213D061
:101C7000A04211D01A4DA8420ED01A4DA8420BD046
:101C8000194DA84208D0194DA84205D0184DA842B8
:101C900002D0184DA84203D122F44075CA682A43E5
:101CA0004D6922F080022A438D68C5620D68856205
:101CB000984201D0A04201D109690163016841F055
:101CC00004010160012141610260F0BD000001409A
:101CD0000004004000080040000C004000040140E7
:101CE000004001400044014000480140001800400D
:101CF000001C00400020004010B5846842EA032226
:101D000024F47F440A432243826010BD826822F09B
:101D100070020A4342F007018160704710B5036A00
:101D2000046A24F001040462846924F0F00444EAA3
:101D3000021423F00A020A438461026210BD10B546
:101D4000036A046A24F010040462846923F0A00387
:101D500024F4704444EA023243EA011182610162D0
:101D600010BD70B5846B2068406994F84110C0F3D1
:101D7000C0100025212904D118B1E584204600F0C7
:101D8000B4F82068406994F84210C0F3801022290A
:101D900004D118B1E585204600F080F8606C40F071
:101DA000100060642046FFF77FFC70BD10B501464F
:101DB000806B096809684FF00002C9052ED4C285FE
:101DC00001680C3151E8003F23F4807341E800348E
:101DD000002CF5D10168143151E8003F23F00103D4
:101DE00041E80034002CF5D10168143151E8003F7E
:101DF00023F0400341E80034002CF5D1202180F885
:101E00004210016B012909D101680C3151E8003FF2
:101E100023F0100341E80034002CF5D14263016B3C
:101E2000012902D0FFF740FD10BD818DFFF73BFC7B
:101E300010BD10B5806B01214163016B012902D0F7
:101E4000FFF733FD10BD818D4908FFF72CFC10BD55
:101E500010B50146806B09680968C90516D40021D0
:101E6000C1840168143151E8002F22F0800241E85A
:101E70000023002BF5D101680C3151E8002F42F00E
:101E8000400241E80023002BF5D110BDFFF750FDC3
:101E900010BD10B5806BFFF74CFD10BD01680C3113
:101EA00051E8002F22F4907241E80023002BF5D175
:101EB0000168143151E8002F22F0010241E80023AB
:101EC000002BF5D1016B012909D101680C3151E8D2
:101ED000002F22F0100241E80023002BF5D1202131
:101EE00080F8421000210163704701680C3151E80D
:101EF000002F22F0C00241E80023002BF5D1202161
:101F000080F841107047000070B504460068016910
:101F1000E26821F44051114301612169A068E2693E
:101F200008436169114308432168CA6849F20C6398
:101F30009A430243CA6020684169A26921F4407152
:101F40001143416131492068884202D030498842BA
:101F500002D1FEF749FF01E0FEF736FFE2690023F8
:101F6000192164253226B2F5004F626828D0A0FB03
:101F70000101930F9200FEF777F90146B0FBF5F0EF
:101F80006FF01802504301EB800006EB0010B0FB2D
:101F9000F5F000F0F002B1FBF5F002EB0012B1FB3E
:101FA000F5F06FF01803584301EB800006EB0010CA
:101FB000B0FBF5F000F00F0021681044886070BDA0
:101FC000A0FB010192185B41FEF74EF90146B0FB00
:101FD000F5F00201B1FBF5F06FF01803584301EB87
:101FE000800006EBC000B0FBF5F000F0F80002EB5B
:101FF0004002B1FBF5F0584301EB800006EBC00056
:10200000B0FBF5F000F00700D6E70000001001403B
:102010000014014038B581620446828500201346D1
:102020006064222284F84220E56B1F4AEA63E56B74
:102030001E4A2A64E56B1E4AEA64E26B10650A4692
:102040002168E06B091DFEF709FC30B110206064C7
:10205000202084F84200012038BD206801684068D3
:102060000090206948B120680C3050E8001F41F40E
:10207000807140E80012002AF5D12068143050E841
:10208000001F41F0010140E80012002AF5D120684C
:10209000143050E8001F41F0400140E80012002ACF
:1020A000F5D1002038BD0000AD1D0008331E00082A
:1020B000631D0008FEE70907090E002804DB00F194
:1020C000E02080F80014704700F00F0000F1E020DD
:1020D00080F8141D7047000070B5304C2DED048B56
:1020E000B0EE608AF0EE408A6188B1F57A7F51D215
:1020F0002B482F4D426E006E00EE102A294AD2ED79
:10210000000A70EE600A00EE100A2748426E006E68
:1021100001EE102A254A09EE100AC1EBC10005EBB9
:102120008000D2ED001AC0ED008AC0ED010A78EE01
:10213000E00A71EE619AC0ED020A80ED038A80ED3B
:10214000040A38EE400A80ED050AFEF7BDFC6188FE
:1021500038EEE90AC1EBC10105EB8102154D906132
:1021600005EB8100C0ED008AC0ED019A80ED020A06
:1021700038EE490A80ED038A80ED049A80ED050A65
:10218000FEF7A2FC6188C1EBC10205EB8202491C8B
:1021900090616180BDEC048B70BD000000000020E8
:1021A000A6FD00203000002032FE00203400002078
:1021B000781F0020D88C0020F0B586464FF0FF3005
:1021C00000230B4DC70710E05EF823603A46002459
:1021D00000284FEA400000DA6840164200D068400C
:1021E0005208641C202CF3D35B1C8B42ECD3F0BD53
:1021F000B71DC1042DED028BFEF774FCFFF7B6FC92
:10220000FFF704FCFFF7CCFBFFF770FCFFF78CFC3B
:10221000FFF738FC164C002517496560F1EE040AFB
:102220009FED140AA1F57A60A56000F08BF80120FB
:1022300060706580114C9FED128A124E124D0AE0BB
:10224000B0EE480A0021114800F056F8104800F09E
:10225000DFF8706E2060D4ED000A60EEA00A10EE88
:10226000900AA842ECDD0B48FFF748F8FEE70000B3
:10227000000000200000B443D80F002030000020F0
:1022800000000000A6FD0020CCBC8C2BD8FC002058
:1022900080FA002038FA002010B504462DED048B9A
:1022A0002220B0EE618A44F8220F0A20E080F0EE8E
:1022B000418AB0EE609AA18010EE100A00F084FC12
:1022C0009FED0B1B53EC112B00F080FB00F0DCF9B1
:1022D000206119EE100AE0600020A06018EE900A5C
:1022E000606118EE100AA061BDEC048B10BD000007
:1022F000F9978C385F54C43F2222C0F822200A226A
:102300000285C184002110EE102A0C4BDFED0A0A71
:10231000C0F83210C0F82E109A4201DDB0EE600A0B
:102320009FED071AC0EE010A10EE902A40F82A2FFE
:10233000C160016170470000000000000000204102
:102340009A9911419FED2F1AB2EE042A10B5C0EEF2
:10235000811A60EE022A0022FDEEE11A11EE903A97
:1023600060EEA01A61EEA01A82EEA12A61EEA02A08
:10237000FAEE0E1A20EE213AC3EE221A62EEA02ADD
:10238000F1EE080A20EE200AC0EE220A37E000BF74
:1023900000EE102A00EB8204B8EEC00A21EE000A1B
:1023A00060EE003A63EE802A22EE824A22EE803A04
:1023B00001EE834A23EE000A00EE804AB0EE080ADE
:1023C00022EE000A84ED004A01EB820420EE230A8B
:1023D000F1EE003A521C61EEA33A03EEA20AF1EECE
:1023E000042A60EEA22A02EE830ADFED072A80EEBD
:1023F000223A9FED060A23EE000A84ED000A9A4273
:10240000C6DB10BD0AD7A33B00003443DB0F4940B5
:102410002DE9F04F894D2DED028B89B0A8427DD179
:10242000874CFE2004F8010BEE2004F8010B94F811
:10243000240020700020607094F82610A170FF2105
:10244000E17020716071C4F80600A16A00EE101AF4
:10245000DFED7C0A20EE200ABDEEC00A10EE101A55
:102460006181E16A00EE101ADFED770A20EE200AA2
:10247000BDEEC00A10EE101AA181216B00EE101AF9
:102480009FED721AC0EE010A9FED710A20EE800ADC
:10249000BDEEC00A10EE101AC4F80E10616B00EE0B
:1024A000101ADFED6C0A20EE200ABDEEC00A10EE15
:1024B000101A6182A16B00EE101ADFED670A20EEA0
:1024C000200ABDEEC00A10EE101AA182A075E075B8
:1024D000E06BA06107215A48FFF76EFEE0612222FF
:1024E00057496846FDF737FF01225C4F56023146D7
:1024F0003846FEF7E3FA222269462846FFF7D6F966
:10250000574C0022314660703846FEF7D7FA4E220B
:1025100054492846FFF7BAF9207000E084E02846C5
:10252000FFF7C3F86060E88D4E49C0F14E00A0602F
:10253000A1F50C748D78A5700E79267191F906704D
:10254000A771CB79E371B1F90C20A281B1F90EC06A
:10255000A4F80EC0B1F91A80A4F81A80E346887F67
:1025600091F821C000EE102A40EA0C6091F820C0DA
:10257000C97F4FEA0C4CB8EEC00A4CEA0121DFEDEE
:102580003A0A0843C4F81E0084F8525020EE200A8C
:1025900084F85360B246676510EE106AA3659946E9
:1025A000E66500F0FBF99FED311B53EC112B00F0B9
:1025B0009DF800F069F800EE10BADFED2E0A6066B3
:1025C000B8EEC00A9FED2D8B20EE200A10EE101AF7
:1025D0009FED290A2166C4F86C8055B3012D2BD0DC
:1025E000022D21D104F5D27400EE906A84F8525085
:1025F00084F853A060EE800A6765C4F8589010EE26
:10260000902A00EE901AE26580EE801A11EE101A00
:10261000216600F0D9FA53EC182B00F0D7F900F03E
:1026200033F86066C4F86C8009B0BDEC028BBDE87D
:10263000F08F034CCE34D7E7124CD5E780FA002058
:10264000D8FC00200000804300000043F90FC9407F
:102650000000804600000045000080440014024055
:10266000240000204AFF00200000803BF5DA7A8E2B
:10267000315FA4400000003C9A991141E2FBF7BB96
:102680005A2F194032FE002021F00042A2F1605280
:10269000B2F5801F01F0004328BFD2F17F6C0BD947
:1026A0005FEA001C43EAC20242EB507018BF704759
:1026B00028BF20F001007047B2F5801FBCBF18464C
:1026C00070474FEA410C1CF5001F02D2084600F08B
:1026D000F1BA70B500F024FA00000089FFF7F6BFE8
:1026E0004FF00040A0F58000704700002DE9C04188
:1026F00030B4DFF8A0C23CEA111418BF3CEA13144E
:1027000000F0EC8081EA03051CEA111444EAD57458
:1027100018BF1CEA131500F0C780A4EB05044FF0A6
:10272000004545EAC12145EAC32341EA505143EA45
:10273000525304F17F74994204F500344FEAC020EB
:102740004FEAC22208BF904200F09C804FEA136516
:102750000FF24016765D4FEA134506FB05F7C7F109
:10276000807706FB07F74FEAD737A7FB0368764267
:10277000C8F58038A7FB06CE38BFA8F1010807FBD3
:1027800008E64FF0000EA6FB028CE6FB03CEDCF160
:10279000000CCEF1004E38BFAEF1010EA6FB0C5876
:1027A0004FF000074FF00005E6FB0E87A1FB08C6BF
:1027B000A0FB07CE16EB0E0645F10005E1FB076511
:1027C00015F1E04E7EBFA4F580345FEA46066D4108
:1027D00016F1800745F100054FEA17274FEA066614
:1027E00047EA0567A6F1DE46B6F1805F4FEA152598
:1027F0001FD9384624F0010C05EBC471BCF1FE6F03
:1028000001EB0C1102D8F0BCBDE8008124425CBF92
:1028100001F5801E9EEAC47F02D4F0BCBDE80081B1
:10282000244238D4F0BCA1F1C041BDE8004100F021
:10283000C5B94FEAD22242EA43524FEAD323A7FB5B
:1028400002864FEAD02040EA415007FB03661EEAA9
:102850000E0F4FEAD12105FB026658BFA6EB0056CA
:10286000B6EB00564FEA520E4EEAC37E18EB0E0E40
:1028700056EB530EBDD518EB02085E417F1C55F197
:102880000005B6E74FF480154FF000074FF0000643
:102890004FF00008ADE7F0BC4FF0000001F1C0417F
:1028A00001F00041BDE8008111EA0C1F0CEA13158C
:1028B00000D00CE013EA0C1F00F025804FF0000060
:1028C000F0BC81EA030101F00041BDE80081F0BCE9
:1028D000BDE8004181EA030100F070B9F0BCBDE839
:1028E000004170B500F01CF9097EFC3E00F007B80D
:1028F00081EA03014FF0000001F00041704781EAD6
:10290000030100F05BB9F0BCBDE800414FF00000EE
:1029100021497047FFFDFBF9F7F5F4F2F0EEEDEB1E
:10292000E9E8E6E4E3E1E0DEDDDBDAD8D7D5D4D3CD
:10293000D1D0CFCDCCCBCAC8C7C6C5C4C2C1C0BF19
:10294000BEBDBCBBBAB9B8B7B6B5B4B3B2B1B0AF1F
:10295000AEADACABAAA9A8A8A7A6A5A4A3A3A2A103
:10296000A09F9F9E9D9C9C9B9A99999897979695BE
:1029700095949393929191908F8F8E8E8D8C8C8B5A
:102980008B8A8989888887878685858484838382E2
:10299000828181800000FF070000F87F10F0004274
:1029A00048BF4042B0FA80F310FA03F10AD0C3F1F5
:1029B0001D0303F580634FEA415002EB035202EB23
:1029C000D12170474FF0000070470000DFF848C188
:1029D00070B51CEA111E1EBF1CEA13159EEA0C0FEF
:1029E00095EA0C0F00F06F8081EA030423EA4C1390
:1029F0004EEAD47E21EA4C1141F4801143F4801355
:102A0000AE44A1FB024CA0FB0365AEF17F7E3619FC
:102A100055EB0C05A1FB034C4CF10003A0FB021C81
:102A200016EB0C06654153F10003094218BF46F04E
:102A3000010613F4007F0BD14FEA03314FEA053052
:102A4000340341EA155140EA16506FF003020AE0E0
:102A50004FEAC3214FEAC520F40241EA555140EA4A
:102A600056506FF0020202EB2E4201EB025585EA4E
:102A7000CE710AD05FEA440C18BF24F0004450F134
:102A8000000041F1000120EAD47040F2FE7C624572
:102A900000D270BDA84214BF4FF080444FF04044B4
:102AA000002E08BF0024BEF1806FA8BFA1F1C04175
:102AB000BDE8704080F282804FF0000001F1C0411B
:102AC00001F0004170479EEA0C0F0CEA131518BF85
:102AD00095EA0C0F06D04FF0000081EA030E0EF0CD
:102AE000004170BD00F01CF88900013E00F007B8FD
:102AF00000F009B84FEA430C5FEA5C5C08D081EA59
:102B0000030100F05BB84FEA410C5FEA5C5CF6D170
:102B10004FF00000014970470000FF070000F87FF8
:102B20000EF1020E2EF0030E5EF8046B364205D451
:102B3000012A43EB030515F5001F12D8012841EBCC
:102B4000010C1CF5001F0CD80ED14FEAD17C15F5F5
:102B5000001F0CEB4C0C0CF1020C08BF4CEBD37CAF
:102B600004E04FF0080C01E04FEAD37C0CEB4C057D
:102B700026FA05F606F00706B6F1040C06D20EEBAF
:102B8000860CBDE870404CF0010C6047DFE80CF0AB
:102B9000090B02024FF000414FF00000A1F50021A7
:102BA00070BD19461046012851EB010418BFD4F539
:102BB000001484BF002001F0004170BD0808A0F59A
:102BC00000114FEA3101704743004FEAD30C4FEA3E
:102BD0003C0C43401FBF40070CF1605113F0FE4F07
:102BE00070471CF0006F03D100200CF000417047CB
:102BF0000CF0004343EA507010B540EACC0000F0FE
:102C00000EF800BF000000924FEA0001FFF7D6BFA8
:102C10004FF000414FF00000A1F5002170470EF188
:102C2000020E2EF0030E5EF8044B244204D44FEA49
:102C30004102B2F17F4F11D84FEA4003B3F17F4F09
:102C40000CD80ED14FEAD07CB2F17F4F0CEB4C0C7C
:102C50000CF1020C08BF4CEBD17C04E04FF0080CE7
:102C600001E04FEAD17C0CEB4C0324FA03F404F0AE
:102C70000704B4F1040C06D20EEB840CBDE810403E
:102C80004CF0010C6047DFE80CF0070802024FF03F
:102C90000040A0F5800010BD0846420018BFD2F1E8
:102CA000807288BF00F0004010BD4FF04070E1EE30
:102CB000100A7047FF2141EAD050C005704700005C
:102CC0005839B43C5839B43CCDCCCC3DCDCCCC3DBE
:102CD000000610160006101600000000000000009C
:102CE00001020304060708090000000001020304B2
:102CF000102D00080000002038000000C40100086A
:102D0000482D000838000020C0050100E00100083F
:102D100000000000000000000000000000000000B3
:102D20000000000001000000100000000000000092
:102D30000024F4000000000000000000000000007B
:082D400000000000000000008B
:040000050800018965
:00000001FF
