:020000040800F2
:10000000E0A80120A1010008AF1D0008C5150008E7
:10001000AD1D0008190600083F230008000000007D
:10002000000000000000000000000000B31D0008F8
:100030001B06000800000000B11D0008B51D0008E7
:10004000BB010008BB010008BB010008BB010008A0
:10005000BB010008BB010008BB010008BB01000890
:10006000BB010008BB010008BB010008BB01000880
:10007000BB010008BB010008BB010008BB01000870
:10008000BB010008BB010008BB010008BB01000860
:10009000BB010008BB010008BB010008BB01000850
:1000A000BB0100085D1E0008BB010008BB01000881
:1000B000691E0008BB010008BB010008BB01000865
:1000C000BB010008BB010008BB010008BB01000820
:1000D000BB010008BB010008BB010008BB01000810
:1000E000BB010008BB010008BB010008BB01000800
:1000F000BB010008BB010008BB010008BB010008F0
:10010000BB010008BB010008BB010008BB010008DF
:10011000BB010008BB010008BB010008BB010008CF
:10012000BB010008BB010008BB010008BB010008BF
:10013000BB010008BB010008BB010008BB010008AF
:10014000BB010008BB010008BB010008BB0100089F
:10015000BB010008BB010008BB010008BB0100088F
:10016000BB010008BB010008BB010008BB0100087F
:10017000BB010008BB010008BB0100080000000033
:10018000BB010008BB010008DFF810D000F032FA14
:1001900000480047A12F0008AFF30080E0A801202D
:1001A0000648804706480047FEE7FEE7FEE7FEE711
:1001B000FEE7FEE7FEE7FEE7FEE7FEE74D1E00086E
:1001C000890100082DE9F05F0546002092469B4614
:1001D00088460646814640241BE02846414647465D
:1001E000224600F063F953465A46C01A914110D393
:1001F00011461846224600F04AF92D1A67EB01080D
:100200004F4622460120002100F041F917EB00097A
:100210004E41201EA4F10104DFDC484631462A4647
:100220004346BDE8F09F40EA01039B0703D009E085
:1002300008C9121F08C0042AFAD203E011F8013BD2
:1002400000F8013B521EF9D27047D2B201E000F82B
:10025000012B491EFBD270470022F6E710B513466A
:100260000A4604461946FFF7F0FF204610BD2DE967
:10027000FE4F81EA030404F0004421F000410094A1
:100280004FF0000B23F0004350EA01045ED052EA25
:1002900003045BD0C3F30A54C1F30A552C44A4F2FF
:1002A000F3340194A0FB0254C1F3130141F4801113
:1002B000C3F3130343F4801301FB024400FB034E1A
:1002C000840A970A44EA815447EA8357A4FB0768E3
:1002D00002958D0A05FB07854FEA932C04FB0C540D
:1002E0002705029D4FEA065847EA1637B5EB080581
:1002F0006EEB070C870E920E47EA811742EA8312D3
:10030000A7FB0201B6EB0B0164EB00042B0D43EAE3
:100310000C335E1844EB1C50DA465146E7FB0201F1
:10032000C5F313044FEA0B3343EA14534FEA043284
:10033000019C43EA0603A4F10C040294009CCDE95D
:1003400000B400F009F903B0BDE8F08F00200146C9
:10035000F9E72DE9F04D81EA030404F0004B21F0A8
:10036000004514464FF0000A23F0004150EA050210
:1003700020D054EA01021DD0C5F30A570246C5F346
:100380001303C1F31300C1F30A5640F4801543F47C
:100390008013A7EB0608101BD64608F2FD3873EB56
:1003A000050002D308F1010801E092185B41B8F1A1
:1003B000000F03DA00200146BDE8F08D00204FF465
:1003C0008011064684460EE0171B73EB050705D324
:1003D000121B63EB050306434CEA010C49084FEA84
:1003E000300092185B4150EA0107EDD152EA030058
:1003F00012D082EA040083EA0501084305D0101BED
:10040000AB4106D20122002306E000224FF0004358
:1004100002E06FF0010253101AEB06004CEB08519A
:1004200010EB0A0041EB0B01BDE8F04D00F085B880
:1004300000F0004230F000400AD0C10D01F56071BB
:10044000C0F3160042EA0151C20840071143704749
:1004500000200146704701F0004330B421F0004114
:1004600050EA010206D00A0DA2F56072C1F3130131
:10047000002A02DC30BC00207047440F44EAC1046B
:10048000C100E01830BC00EBC25000F01FB8202AB9
:1004900004DB203A00FA02F1002070479140C2F1DB
:1004A000200320FA03F3194390407047202A04DB0D
:1004B000203A21FA02F00021704721FA02F3D040DD
:1004C000C2F1200291400843194670470029A8BF95
:1004D0007047401C490008BF20F00100704710B46D
:1004E000B0FA80FC00FA0CF050EA010404BF10BC22
:1004F000704749B1CCF1200421FA04F411FA0CF14F
:1005000018BF012121430843A3EB0C01CB1D4FEA87
:1005100000614FEA102042BF002010BC704700EB82
:10052000C35010440029A4BF10BC7047401C4900B0
:1005300008BF20F0010010BC704710B5141E73F105
:10054000000408DA401C41F1000192185B411A4393
:1005500001D120F0010010BD2DE9F04D92469B46DF
:1005600011B1B1FA81F202E0B0FA80F22032904685
:10057000FFF78DFF04460F4640EA0A0041EA0B01EF
:1005800053465A46084313D0114653EA010019D086
:10059000C8F140025046FFF789FF05460E46504617
:1005A00059464246FFF773FF084305D0012004E097
:1005B00020463946BDE8F08D0020054346EAE07646
:1005C0002C4337430A986305E40AA0EB0800002295
:1005D000FD0A44EA47540A3002D500200146E9E703
:1005E000010510196941DDE9084500196941BDE8B7
:1005F000F04DA2E7064C074D06E0E06840F001032D
:1006000094E8070098471034AC42F6D3FFF7C0FDDA
:10061000683D0008983D0008FEE7704772B6FEE7A7
:1006200070B5044600F010F90546601C02D004487D
:100630000078044400F008F9401BA042FAD370BDD2
:1006400088C001202DE9F84FDFF8BCA10022012568
:1006500003264FF00F090AF1040BAAF1040E00BFA4
:100660000B6805FA02F42340A34270D10F7907F01A
:100670000307012F01D0022F16D187684FEA4208E5
:1006800006FA08FC27EA0C07D1F80CC00CFA08FCA3
:100690004CEA070CC0F808C04768A7430C79C4F3BC
:1006A000001494403C4344600C79E443A4070AD00E
:1006B000C4684FEA420C06FA0CF7BC438F6807FA8D
:1006C0000CF72743C7600C7904F00304022C12D105
:1006D000D40800EB840CDCF820405707FF0E09FA21
:1006E00007F824EA0804D1F8108008FA07F848EA65
:1006F0000408CCF8208004684FEA420C06FA0CF794
:10070000BC430F7907F0030707FA0CF7274307608C
:100710004C6814F4403F70D03C4C276847F4804745
:100720002760246822F0030704F480440094384CC6
:1007300007EB040CDCF8084897074FEA177809FA2A
:1007400008F7BC43334FB84202D1002724E054E0FD
:10075000314FB84201D101271EE0304FB84201D1DC
:10076000022719E02E4FB84201D1032714E02D4F84
:10077000B84201D104270FE02B4FB84201D1052721
:100780000AE02A4FB84201D1062705E0284FB842B7
:1007900001D1072700E0082707FA08F72743CCF81C
:1007A0000878DAF800405746D1F804C09C435FEA65
:1007B000CC2C00D51C433C60DBF800405F46D1F8F0
:1007C00004C09C435FEA8C2C00D51C433C60DEF8DF
:1007D00000407746D1F804C09C435FEA8C3C00D5CA
:1007E0001C433C60084F083F3C68D1F804C09C4360
:1007F0005FEACC3C00D51C433C60521C102AFFF43D
:100800002FAFBDE8F88F0000083C0140443802409B
:100810000030014000000240000402400008024095
:10082000000C024000100240001402400018024078
:10083000001C02400069084000D0012070470AB146
:10084000816170470904FBE7014880687047000038
:1008500088C0012002488168027811448160704795
:1008600088C001200B4810B5016841F40071016097
:10087000016841F480610160016841F480710160A8
:10088000032000F095F80E2000F006F800F04AF87A
:10089000002010BD003C024030B505461C4887B022
:1008A0000024016841F001010160006806A900F020
:1008B0000100009001A800F027F900F055F9154952
:1008C0004000B0FBF1F11548134A491E026040F2A6
:1008D000E732C0E90324C0E90114846100F084FB1D
:1008E000040012D10D4800F0C9FB04000DD11920FD
:1008F00000F030F8102D07D200222946192000F010
:1009000037F80748056000E0012407B0204630BDF5
:100910004438024040420F0000000140A4C10120C1
:100920008CC001200A4808B5016841F4804101608B
:10093000006800F4804000900548001F016841F005
:1009400080510160006800F08050009008BD0000F8
:1009500044380240002809DB00F01F0201219140C9
:100960004009800000F1E020C0F80011704700004D
:10097000F0B40E4B1B680C46C3F30223C3F107050A
:10098000042D00D90425191D072901D2002300E0F8
:10099000DB1E012606FA05F1491E214099409E40C2
:1009A000761E16403143F0BC01F0DDBC0CED00E0DA
:1009B000064900F0070208684FF6FF03184040EAB6
:1009C0000220034A10430860704700000CED00E06D
:1009D0000000FA052DE9F0470E46050065D0DFF866
:1009E0001481D8F80000F7B200F00700B04207D237
:1009F00088F80070D8F8000000F00700B04254D129
:100A000028683D4C810712D5400703D5206840F483
:100A1000E05020602878000703D5206840F460404B
:100A200020602068A96820F0F00008432060287842
:100A3000C0072DD0304968680839012812D0022833
:100A400013D0032811D00968890700292DDA2168FD
:100A500021F0030101432160FFF7F6FE814641F2D8
:100A6000883A0EE009688903EFE709688901ECE735
:100A7000FFF7EAFEA0EB0901514502D90320BDE8CA
:100A8000F0872068696800F00C00B0EB810FEFD1AF
:100A9000D8F80010404601F00701B14207D90770AD
:100AA000006800F00700B04201D00120E7E7287895
:100AB000400705D52068E96820F4E050084320602D
:100AC0002878000706D52068296920F4604040EAAC
:100AD000C100206000F058F82168084AC1F30311F2
:100AE000515CC8400649086006480068FFF7D4FE1C
:100AF0000020C4E7003C024008380240303D0008B6
:100B000094C001208CC001200F2202600C4A13689F
:100B100003F003034360136803F0F003836013687A
:100B200003F4E053C36012684FF4E05303EAD202C7
:100B300002610448006800F0070008607047000088
:100B400008380240003C0240044805490068096832
:100B5000044AC1F38221515CC840704794C001200F
:100B600008380240403D000804480549006809680B
:100B7000044AC1F34231515CC840704794C001201F
:100B800008380240403D0008154810B5006810F0D4
:100B90000C02144813D04110042A0FD0082A0ED199
:100BA0000F4C241F2268236802F03F025B0207D526
:100BB0002068C0F38810A0FB010106E0084610BDC4
:100BC0002168C1F38811A1FB00010023FFF7FAFAA5
:100BD0002168C1F30141491C4900B0FBF1F010BD8F
:100BE000083802400024F4002DE9F84F04006ED0CC
:100BF0002078DFF84C93C007A9F104054AD009F129
:100C000004000168C1F38101012908D00068C0F324
:100C1000810002280AD1D9F80000400206D52868D0
:100C2000800337D560680028E1D033E06068B0F514
:100C3000803F10D0B0F5A02F286810D020F480306D
:100C40002860286820F4802028606068A8B1FFF739
:100C5000FBFD06460DE0286840F48030F4E740F4E0
:100C600080202860F7E700BFFFF7EEFD801B6428B7
:100C700073D828688003F7D50CE0FFF7E5FD06463A
:100C800005E000BFFFF7E0FD801B6428F0D828686E
:100C90008003F7D42078DFF8AC8280074FF0000A99
:100CA0003ED5A748001D016811F00C0F08D0006860
:100CB000C0F3810002280BD1D9F80000400207D40C
:100CC0002868800716D5E068012800D112E033E1DA
:100CD000E068B8B10120C8F80000FFF7B5FD06468E
:100CE00005E000BFFFF7B0FD801B0228C0D82868D0
:100CF0008007F7D52868216920F0F80040EAC10094
:100D000028600DE0C8F800A0FFF79EFD064604E04D
:100D1000FFF79AFD801B02281FD828688007F7D4A8
:100D20002078000722D5864F87486169703771B1F6
:100D300001210160FFF788FD064604E0FFF784FD0E
:100D4000801B022809D838688007F7D50EE0C0F864
:100D500000A0FFF779FD064605E082E0FFF774FD8D
:100D6000801B02287DD838688007F7D42078400798
:100D700068D5DFF8CCB100270BF13C0BDBF80000A5
:100D8000C0000BD4DBF8001041F08051CBF800100C
:100D9000DBF80000012700F0805000906B4E3068B7
:100DA000C00510D4306840F480703060FFF74CFD0F
:100DB000009005E0FFF748FD0099401A022850D83E
:100DC0003068C005F6D55E4EA0686C3601280FD09D
:100DD0000528306810D020F001003060306820F025
:100DE00004003060A068B8B1FFF72EFD00900FE05E
:100DF000306840F00100F4E740F004003060F7E7AD
:100E0000FFF722FD0099411A41F28830814266D8ED
:100E100030688007F4D50EE0FFF716FD009007E07C
:100E2000FFF712FD0099411A41F28830814256D8ED
:100E300030688007F4D42FB1DBF8001021F0805126
:100E4000CBF80010A069C8B33D49091D0968C1F37A
:100E5000810102294AD00228504607D0C8F8600014
:100E600000E03CE0FFF7F0FC04463BE04746C8F8F2
:100E70006000FFF7E9FC064605E000BFFFF7E4FC71
:100E8000801B02282BD828688001F7D4D4E90701F9
:100E90000843A16A2E4A490802EB0141626A41EA0D
:100EA0008211084394F82C1040EA0161C9F800103F
:100EB00001203866FFF7C8FC044606E03EE000BFAC
:100EC000FFF7C2FC001B022809D828688001F7D56B
:100ED00034E000BFFFF7B8FC001B022802D9032052
:100EE000BDE8F88F28688001F4D427E00128F7D006
:100EF000D9F80000E26900F4800191421CD1226A15
:100F000000F03F01914217D147F6C071626A01407B
:100F1000B1EB821F10D1A26A4FF0FF3300F44031D1
:100F200003EB5202B1EB024F06D194F82C1000F003
:100F30007060B0EB016F01D00120D1E70020CFE756
:100F40000438024000004742800E474200700040D3
:100F50000000FFFF7047704770B590F83C20012AF1
:100F600032D0012480F83C40022280F83D20036802
:100F70005A689D6822F070060A6832435A60134B23
:100F800002689A4214D0B2F1804F11D0104B9A42AD
:100F90000ED0104B9A420BD00F4B9A4208D00F4BF9
:100FA0009A4205D00E4B9A4202D00E4B9A4204D17F
:100FB000496825F080031943916080F83D40002185
:100FC00080F83C10084670BD022070BD0000014052
:100FD0000004004000080040000C004000040140F4
:100FE000004001400018004010B5040003D094F800
:100FF0003D0010B107E0012010BD002084F83C0046
:10100000204600F01FF8022084F83D00211D2068D2
:1010100000F030FF012084F8460084F83E0084F898
:101020003F0084F8400084F8410084F8420084F8CE
:10103000430084F8440084F8450084F83D00002013
:1010400010BD000008B50068B0F1804F12D10A4809
:10105000016841F0010101600068002200F0010018
:1010600000900F211C20FFF783FCBDE808401C20E6
:10107000FFF770BC08BD00004038024090F83D10FA
:10108000012901D001207047022180F83D1001683C
:10109000CA6842F00102CA6000681149884214D04F
:1010A000B0F1804F11D00F4988420ED00E498842CE
:1010B0000BD00E49884208D00D49884205D00D4911
:1010C000884202D00C49884204D1816801F00701AE
:1010D000062903D0016841F001010160002070473A
:1010E000000001400004004000080040000C0040E7
:1010F00000040140004001400018004070B5044663
:1011000090F83C000025012817D0012684F83C60A7
:10111000022084F83D002068826822F0770222F4E1
:101120007F4282600868502838D00DDC20284FD0DC
:1011300005DC90B3102811D14AE0022070BD3028A0
:1011400046D040280AD13BE060282FD070280DD02F
:10115000B0F5805F03D0B0F5005F12D0012584F8B0
:101160003D60002084F83C00284670BDCB68D1E982
:101170000121206800F0E6FE2068816841F07701D7
:1011800009E0CB68D1E90121206800F0DBFE20688E
:10119000816841F480418160E1E719E0CA684968EB
:1011A000206800F0E1FE5021206806E0CA68496826
:1011B000206800F0EAFE6021206800F0CDFECEE756
:1011C000CA684968206800F0CFFE40212068F4E733
:1011D000226801461046F0E770472DE9F0410446C9
:1011E0000068C66805694FF00007A90713D5B10765
:1011F00011D5F91E016101202077206880698007E0
:10120000204602D0FFF7E8FF04E000F07EF8204619
:1012100000F07CF82777680716D5700714D5216889
:101220006FF004000861022020772068806910F4C4
:10123000407F204602D0FFF7CFFF04E000F065F8C2
:10124000204600F063F82777280715D5300713D517
:1012500021686FF008000861042020772068C069C9
:101260008007204602D0FFF7B7FF04E000F04DF8FA
:10127000204600F04BF82777E80616D5F00614D57F
:1012800021686FF010000861082020772068C0698D
:1012900010F4407F204602D0FFF79EFF04E000F0EC
:1012A00034F8204600F032F82777E80708D0F00736
:1012B00006D021686FF001000861204600F028F890
:1012C000280608D5300606D521686FF08000086131
:1012D0002046FFF73FFE680608D5700606D5216850
:1012E0006FF040000861204600F026F8A8060AD5F5
:1012F000B00608D521686FF0200008612046BDE8DF
:10130000F041FFF728BEBDE8F0817047704700004C
:1013100010B5044600680749884201D1FFF79AFAE0
:101320002068B0F1804F03D1BDE8104000F0CCBB85
:1013300010BD0000000001407047406C704770B560
:10134000040004D094F84100002510B106E001200B
:1013500070BD84F84050204600F024F8242084F822
:1013600041002068C16821F40051C160204600F0AE
:1013700027FF2068016921F49041016120684169DB
:1013800021F02A0141612068C16841F40051C16027
:101390006564202084F8410084F8420065630020E1
:1013A00070BD00002DE9F04186B004461421684666
:1013B000FEF752FF2B482A4F236800222949143890
:1013C000022503240126BB421ED10B6843F0100303
:1013D0000B60096801F010010591016841F00101FD
:1013E0000160006802AB00F0010005902802CDE921
:1013F00000050727DFF8708083E8940069464046BF
:10140000FFF720F9680220E0184FBB4225D10B6896
:1014100043F020030B60096801F020010591016889
:1014200041F004010160006802AB00F00400059087
:101430004020CDE900050827DFF8348083E89400D8
:1014400069464046FFF7FEF880208DE86100CDE94F
:10145000034769464046FFF7F5F806B0BDE8F0815E
:1014600000100140443802400000024000140140D6
:10147000000802402DE9F84F044690F842009A46D1
:1014800016460D46202802D00220BDE8F88FB5B1DF
:10149000AEB100206064222184F842102063FFF77F
:1014A000D3F9A6858146E685A0684FF480582027A9
:1014B000404501D1206920B12E46002529E00120B8
:1014C000E3E7002625E04B46002220212046CDF808
:1014D00000A000F0FBFE18B184F842700320D4E7AE
:1014E00026B1A06840451AD038B108E020684068AD
:1014F000C0F3080025F8020B08E0206978B12068E5
:10150000406800F07F0000BF06F8010BE08D401E30
:10151000E085E08D0028D6D184F84270B5E72068D8
:101520004068F1E72DE9F843044690F841009846F9
:1015300016460D46202802D00220BDE8F88385B16A
:101540007EB100206064212084F84100FFF77CF91F
:10155000A6848146E684A0682027B0F5805F02D08B
:1015600003E00120E9E7206910B12E4600250EE0D6
:1015700000260CE08021204600F0A8FEA8B9C6B1E4
:1015800016F8010B21684860E08C401EE084E08C76
:101590004B464FF00002CDF800800028EAD14FF012
:1015A0004001204600F092FE40B184F841700320D3
:1015B000C3E735F8020BC0F30800E3E784F8417095
:1015C0000020BAE7FEE7000010B504462DED028BBF
:1015D00082B09FED328ADFED328A0090F0EE480A49
:1015E000B0EE680A2F4B304A0021012000F062F86B
:1015F0000121F0EE480AB0EE680A2A4B2A4A084652
:10160000009400F057F8F0EE480AB0EE680A254B57
:10161000254A02210120009400F04CF8F0EE480A1F
:10162000B0EE680A1F4B204A00210220009400F00F
:1016300041F8F0EE480AB0EE680A1A4B1A4A012146
:101640000220009400F036F80221F0EE480AB0EED5
:10165000680A144B144A0846009400F02BF89FEDDA
:10166000138ADFED138A0F4BF0EE480AB0EE680ADA
:101670000D4A00210320009400F01CF8F0EE480A07
:10168000B0EE680A074B084A01210320009400F0DD
:1016900011F802B0BDEC028B10BD0000CDCCCC3DEA
:1016A0005839B43C407D0020200000206F12833A5E
:1016B0003D0A573E2DE9F041F0EE601AB0EE401AB7
:1016C00005469FED560A0020DDF818C0F0EE400AEE
:1016D0000746012D11D0022D11D0032D73D1504F8B
:1016E000504E00BF504C02EB8C0203EB8C0349B10F
:1016F000012937D002295FD062E04C4800E04C4815
:101700004C4EEFE7012D04D0022D0FD0032D76D1E2
:1017100019E002F5D842D4ED000A92ED5F0A03F514
:10172000D84330EE200AD3ED5F0A68E002F5984214
:10173000D4ED030A92ED8D0A03F5984330EE200AAA
:10174000D3ED8D0A5BE002F53052D4ED060A92ED3E
:10175000BB0A03F5305330EEC00AD3EDBB0AF1EEFD
:10176000600A54E0012D04D0022D0FD0032D46D184
:1017700019E002F5B842D4ED010A92ED760A03F5BC
:10178000B84330EEC00AD3ED760A36E002F5705267
:10179000D4ED040A92EDA40A03F5705330EEC00AAA
:1017A000D3EDA40A29E092ED000AD4ED070A30EE49
:1017B000200AD3ED000A2AE0012D05D0022D10D019
:1017C000032D24D01BE026E002F5E052D4ED020AFE
:1017D00092EDD20A03F5E05330EE200AD3EDD20A9F
:1017E0000DE002F54062D4ED050A92EDE90A03F539
:1017F000406330EEC00AD3EDE90AF1EE600A01F071
:10180000B3FC29463046BDE8F04101F091BE3846B0
:1018100001F08EFBF5E7BDE8F0810000000000005C
:1018200070C201205CC10120A8C00120ECC10120D0
:101830002EC2012014C101201E481F4990ED000A4C
:10184000B0EEC00A10EE102A8A422FDD90ED010A98
:10185000B0EEC00A10EE102A8A4227DD90ED030A8E
:10186000B0EEC00A10EE102A8A421FDD90ED040A85
:10187000B0EEC00A10EE102A8A4217DD90ED050A7C
:10188000B0EEC00A10EE102A8A420FDD90ED060A73
:10189000B0EEC00A10EE102A8A4207DD90ED070A6A
:1018A000B0EEC00A10EE100A884201DC002070473A
:1018B00001207047A8C00120BD37863510B52DED39
:1018C000028B86E09FED478A00214748B0EE480A28
:1018D00001F058FD0121454801F02AFE4448454CDD
:1018E000406E20600520FEF79BFEB0EE480A012105
:1018F0003D4801F047FD01213C4801F019FE3E48FA
:10190000406E60600520FEF78BFEB0EE480A0221B3
:10191000354801F037FD0121344801F009FE374810
:10192000406EA0600520FEF77BFEB0EE480A002165
:10193000334801F027FD02212C4801F0F9FD314820
:10194000406EE0600520FEF76BFEB0EE480A012114
:101950002B4801F017FD0221244801F0E9FD2A4837
:10196000406E20610520FEF75BFEB0EE480A0221C2
:10197000234801F007FD02211C4801F0D9FD23484E
:10198000406E60610520FEF74BFEB0EE480A002174
:101990001F4801F0F3FA03211E4801F0C9FD1E485B
:1019A00090ED050A052084ED060AFEF739FEB0EE3B
:1019B000480A0121164801F0E1FA0321154801F017
:1019C000B7FD164890ED050A052084ED070AFEF7DD
:1019D00027FEFFF731FF00283FF474AFBDEC028B08
:1019E00010BD000000000000ECC1012014C1012066
:1019F00014C30120A8C00120A0C301202CC40120D1
:101A00002EC20120B8C4012044C50120D0C5012048
:101A100070C201205CC101209CC20120D8C20120FB
:101A20001C220149FEF7FFBB0CC001201C2201490A
:101A3000FEF7F9BB28C001201C220149FEF7F3BBC9
:101A400044C001201C220149FEF7EDBB60C001200B
:101A5000014840787047000000C00120014800782C
:101A60007047000000C0012016480122817C6038C8
:101A70000129037813D0002B10D012495439897CE6
:101A800001291BD00F493839897C012918D00D490B
:101A90001C39897C012901D1032141707047002143
:101AA00033B101704170C180018141818270704702
:101AB00002704170C18001814181DEE74270704750
:101AC0000221EAE760C0012010B5094800F012F8D1
:101AD00007481C3000F00EF80548383000F00AF8CE
:101AE0000348543000F006F8BDE81040FFF7BCBFD3
:101AF0000CC0012070B5044681880068FEF79AFE8C
:101B0000E0B10025FEF7A0FE01460020A074227E71
:101B1000AA4205D062699AB18A1A142A01D325769D
:101B20006061227EA679012366B10225012E10D0C4
:101B3000022E20D0032E35D0A07170BD0125E1E723
:101B40006161EEE7002AF8D0A371A160207460748F
:101B500070BDA06840F2DC56081AB04204D30320DE
:101B6000A0716374A07470BD002AFCD1A571E160FE
:101B7000207C401C19E0E6688E1BB6F5967F0CD3DE
:101B8000217C012902D0022902D002E0A37400E0E6
:101B9000A574A0712074E06070BD002AFCD0A37110
:101BA000A16070BD002AFCD1A071207470BD00003E
:101BB0002DE9F04F87B014216846FEF74DFB3E48F3
:101BC0000025016841F020010160016801F0200159
:101BD0000591016841F080010160016801F0800118
:101BE0000591016841F002010160016801F0020104
:101BF0000591016841F004010160016801F00401F0
:101C00000591016841F0010101600068DFF8AC80D6
:101C100000F001000122059051024046FEF70FFE40
:101C20004FF48067002239464046FEF708FEDFF891
:101C30009090002239464846FEF701FEDFF884A066
:101C4000BE10002231465046FEF7F9FDDFF878B0AD
:101C5000002231465846FEF7F2FD1E20CDE9000570
:101C60000124694602944046FEF7ECFC4FF4C06044
:101C70008DE83100694640460395FEF7E3FCCDE967
:101C8000007402250327CDE9025769464846FEF74E
:101C9000D9FC01AA009682E8B00069465046FEF7DA
:101CA000D1FC01AA009682E8B00069465846FEF7CA
:101CB000C9FC07B0BDE8F08F303802400014024084
:101CC00000040240000802400000024010B586B047
:101CD00000241748009401940294039404944FF054
:101CE00080410594016042F2CF01C0E901146321F3
:101CF000C0E9031480218161FFF776F908B1FEF78E
:101D00008DFC4FF48050009069460948FFF7F6F9C2
:101D100008B1FEF783FC049404A905480594FFF775
:101D20001BF9002801D0FEF779FC06B010BD0000B9
:101D3000CCC001200C4810B50A4901600B49416034
:101D4000002181600C22C160C0E904128161C1617F
:101D5000FFF7F5FA002803D0BDE81040FEF75EBC9F
:101D600010BD00000010014014C10120003E4900D8
:101D70000C4810B50A4901600B494160002181609F
:101D80000C22C160C0E904128161C161FFF7D7FA7A
:101D9000002803D0BDE81040FEF740BC10BD000095
:101DA000001401405CC1012000093D00FEE7FEE790
:101DB000704770477047000030B593B030216846D7
:101DC000FEF74AFA14210CA8FEF746FA1D48002532
:101DD000016841F080510160006800F0805011906E
:101DE0001948016841F4804101600068022400F450
:101DF0008040119001200090000401908001CDE905
:101E0000064008AA0420A82182E813000B90684627
:101E1000FEF7EAFE08B172B6FEE70CA90F2081E8D2
:101E200031004FF4A0500F904FF4805010900521D6
:101E30000CA8FEF7CFFD002801D072B6FEE713B064
:101E400030BD000040380240007000400248016888
:101E500041F470010160704788ED00E00148FFF730
:101E6000BCB90000A4C101200148FFF7B6B90000C9
:101E7000CCC00120F0B50268274B284D284E294FD1
:101E8000294C4FF0804C984209D0604507D0A842B9
:101E900005D0B04203D0B84201D0A04204D122F014
:101EA000700E4A6842EA0E0298421BD0604519D073
:101EB000A84217D0B04215D0B84213D0A04211D0DA
:101EC0001A4DA8420ED01A4DA8420BD0194DA84267
:101ED00008D0194DA84205D0184DA84202D0184D7F
:101EE000A84203D122F44075CA682A434D6922F002
:101EF00080022A438D68C5620D688562984201D0D0
:101F0000A04201D109690163016841F00401016047
:101F1000012141610260F0BD000001400004004069
:101F200000080040000C0040000401400040014057
:101F3000004401400048014000180040001C0040DF
:101F40000020004010B5846842EA032224F47F4454
:101F50000A432243826010BD826822F070020A4365
:101F600042F007018160704710B5036A046A24F0EB
:101F700001040462846924F0F00444EA021423F0AA
:101F80000A020A438461026210BD10B5036A046A42
:101F900024F010040462846923F0A00324F4704444
:101FA00044EA023243EA01118261016210BD00007D
:101FB00030B56C4CA7B0207800280AD060784FF478
:101FC0007A75012807D002284DD003287ED0002042
:101FD000607027B030BD20896189084377D1E088DF
:101FE00078BB1822604902A8FEF71DF95E49182245
:101FF000183108A8FEF717F92079012805D19FEDBF
:102000005B0A8DED020A8DED030A18210EA8FEF77A
:1020100023F9182114A8FEF71FF918211AA8FEF7B2
:102020001BF9182120A8FEF717F920A914A8CDE95B
:102030000001B2EE040A08AB1AAA0EA902A800F029
:1020400063FCE088A84207D8217829B1FFF7BCFAE1
:10205000E088401CE080BCE727B0401EBDE830406F
:1020600080B2FFF7B1BAE0886189084374D1208952
:1020700038BB3D491822303102A8FEF7D4F83A495E
:102080001822483108A8FEF7CEF818210EA8FEF74E
:10209000E3F8182114A8FEF7DFF818211AA8FEF7B4
:1020A000DBF8182120A8FEF7D7F820A914A8CDE95D
:1020B0000001B2EE040A08AB1AAA0EA902A800F0A9
:1020C00023FC2089A84247D8217801E007E03FE0BF
:1020D000F1B3FFF779FA2089401C208179E7E08885
:1020E0002189084338D1608948BB01201E49E0702E
:1020F0001822603102A8FEF796F81B4918227831A1
:1021000008A8FEF790F818210EA8FEF7A5F81821E8
:1021100014A8FEF7A1F818211AA8FEF79DF81821B7
:1021200020A8FEF799F820A914A8CDE90001B2EE85
:10213000040A08AB1AAA0EA902A800F0E5FB608900
:10214000A84209D8217819B1FFF73EFA608900E06A
:1021500002E0401C60813CE727B0BDE8304001F060
:1021600037B9000000C00120703A000800000000EC
:1021700001680C3151E8002F22F4907241E80023ED
:10218000002BF5D10168143151E8002F22F0010233
:1021900041E80023002BF5D1016B012909D1016829
:1021A0000C3151E8002F22F0100241E80023002BEF
:1021B000F5D1202180F84210002101637047000012
:1021C00070B5044600680169E26821F4405111438A
:1021D00001612169A068E26908436169114308430C
:1021E0002168CA6849F20C639A430243CA602068B6
:1021F0004169A26921F4407111434161314920686C
:10220000884202D03049884202D1FEF7ADFC01E09D
:10221000FEF79AFCE2690023192164253226B2F503
:10222000004F626828D0A0FB0101930F9200FDF7D8
:10223000C9FF0146B0FBF5F06FF01802504301EB07
:10224000800006EB0010B0FBF5F000F0F002B1FBEF
:10225000F5F002EB0012B1FBF5F06FF018035843F4
:1022600001EB800006EB0010B0FBF5F000F00F0072
:1022700021681044886070BDA0FB010192185B4189
:10228000FDF7A0FF0146B0FBF5F00201B1FBF5F050
:102290006FF01803584301EB800006EBC000B0FB61
:1022A000F5F000F0F80002EB4002B1FBF5F0584306
:1022B00001EB800006EBC000B0FBF5F000F007007A
:1022C000D6E7000000100140001401402DE9F8435A
:1022D000984617460D460446089E24E0701C22D0FE
:1022E000FEF7B2FAA0EB0800B0421AD8CEB12068CF
:1022F000C168490717D5802D15D0402D13D001682E
:10230000C94309070FD401680025406800902046A2
:10231000FFF72EFF0820606484F840500120BDE8DC
:10232000F8830320FBE72068006835EA000004D04A
:102330000020B842D2D00020F1E70120F9E7FEE703
:102340004100080218BF04200A0E18BF40F0010027
:102350004FF07F4232EA010108BF40F0020001283D
:1023600008BF052070470907090E002804DB00F1AB
:10237000E02080F80014704700F00F0000F1E0202A
:1023800080F8141D7047000010EE101A08B5444A7A
:102390006846B2EB410F28D94FF0E640B0EB410F51
:1023A00094BF00204FF0FF3000900098002861DBC0
:1023B00060EE000A10F0010F45D010F0020FDFEDC3
:1023C000391A9FED391A00EEE11ADFED381A40EEA6
:1023D000811A21EEA01AF0EE400A40EE010A08BF71
:1023E000F1EE600AB0EE600A08BD314B21F0004208
:1023F00093423CD911F0004FDFED2E0A20EE201A57
:10240000DFED2D0A19BF31EE601A71EE200A31EEB0
:10241000201A71EE600ABDEEE01A11EE100A9FED6F
:10242000271A00F0030000EEC10A9FED251A009064
:1024300000EEC10A9FED231A00EEC10A9FED221A99
:1024400000EEC10AB1E79FED211A9FED210A10F0BD
:10245000020F00EE810A9FED1F1A00EE801AB7EE00
:10246000000A00EE810A18BFB1EE400A08BD00F074
:102470002BF99AE710EE100A4000B0F17F4F3CBFF5
:10248000B7EE000A08BD07D14FF0010000F0D6F901
:10249000BDE8084000F008B9BDE8084000F001B907
:1024A000B61F927E336D4C39DA82083CA0AA2ABE50
:1024B000490E494683F9223F0000004B0000C93F06
:1024C00000A0FD390020A2331A61342CB93AB2BA07
:1024D000CA9F2A3DDDFFFFBE00B510EE101A2DED9C
:1024E000028B81B0524A6846B2EB410F2ED94FF0B1
:1024F000E640B0EB410F94BF00204FF0FF3000905A
:102500000098B0EE408A00286ADB10F0010F4BD033
:1025100068EE080A9FED471A9FED470A00EE810A10
:102520009FED461A10F0020F00EE801AB7EE000A77
:1025300000EE810A02BF01B0BDEC028B00BD00BFFE
:1025400001B0B1EE400ABDEC028B00BD3C4B21F066
:102550000042934241D911F0004FDFED3A0A20EEDC
:10256000201ADFED390A19BF31EE601A71EE200A28
:1025700031EE201A71EE600ABDEEE01A11EE100A7B
:102580009FED321A00F0030000EEC10A9FED301AF1
:10259000009000EEC10A9FED2F1A00EEC10A9FEDD8
:1025A0002E1A00EEC10AABE728EE080A9FED2B1A9F
:1025B000DFED2B0A10F0020F40EE410A9FED291AC1
:1025C00000EE201A61EE000AB0EE480A08EE200A7A
:1025D000B6D101B0BDEC028B00BD00F075F88FE7FD
:1025E00018EE100A4000B0F17F4F0DD218EE100A1D
:1025F000FFF7A6FE042808BF00F05EF8B0EE480A18
:1026000001B0BDEC028B00BD09D1012000F016F92C
:1026100001B0BDEC028B5DF804EB00F045B801B0F1
:10262000B0EE480ABDEC028B5DF804EB00F039B85F
:10263000B61F927EB93AB2BACA9F2A3DDDFFFFBEED
:10264000490E494683F9223F0000004B0000C93F74
:1026500000A0FD390020A2331A61342C336D4C39AF
:10266000DA82083CA0AA2ABE10B52DED028BB1EE8D
:10267000C08A18EE100A20F00040C0F1FF40C00FE1
:102680000AD010EE100A20F00040C0F1FF40C00F49
:1026900004BF012000F0D2F8B0EE480ABDEC028B76
:1026A00010BD30EE000A7047DFED020A80EEA00A8E
:1026B00070470000000000009FED020A20EE000AB3
:1026C00070470000000000102DE9F0014FF07F423C
:1026D000B2EB410F9FBF4FF0FF310160BDE8F00149
:1026E00070474FF0004242EA0123C1F3C752783AE3
:1026F000551112F01F0C434CCCF120067C44C1F361
:10270000C752A2F178024FEA621204EB820254F837
:10271000254008BFD2E9015612D0556804FA0CF4DE
:1027200025FA06F73C43976805FA0CF527FA06F8F0
:10273000D26807FA0CFCF24045EA08054CEA0206AA
:10274000A4FB034CA5FB0352A6FB03631D449D425F
:1027500034BF012600261319334416B1934202D91F
:1027600003E0934201D2012200E00022624402F120
:10277000200C9206DC0C42EA443200EE102A5B0385
:10278000DFED210AF8EEC01A00EE103A4FEA9C1C69
:1027900011F0004FB8EE400AC0F800C020EE201A39
:1027A00000EE105ADFED190AB8EE400A20EE200ABA
:1027B00071EE810A70EE800A10EE902A02F5006236
:1027C0006FF30B0200EE902A70EEE11A31EEC11A9F
:1027D000DFED101A30EE411A9FED0D0A20EE800A4F
:1027E00001EE210A9FED0C1A00EE810A04BFBDE83C
:1027F000F0017047CCF180510160BDE8F001B1EE0D
:10280000400A704748160000000000360000802C87
:1028100022AAFD29DB0FC92F0000C92F02E008C83A
:10282000121F08C1002AFAD170477047002001E04A
:1028300001C1121F002AFBD1704700000149086046
:1028400070470000C8C00120F6EE006AB2EE044AEC
:1028500061EE265A21EE841A63EE033A62EEA66A0E
:10286000C0ED025A00EE441AB1EE004A23EE835A3C
:1028700022EE044A25EE036A04EE431AB1EE084A3A
:1028800020EE847A66EE034A07EE431A05EEE31A59
:1028900006EEA31A81EE057ABAEE0E1AB2EE0E5AC1
:1028A00021EE811A00EE051AB1EE0C5A22EE055AFD
:1028B00005EE031AB2EE005A80ED037A20EE855A37
:1028C00005EE031A05EEA31A02EEE31AC1EE062A7C
:1028D00021EE841A00EE441AC0ED042A80EC020AAC
:1028E000B0EE080A62EE001A20EE800A01EEC31A6A
:1028F00000EE431A05EEE31A06EEA31A81EE240A4F
:1029000080ED050A704700007CB5F0EE400ADDE975
:1029100006459FED041A9FED040ACDE9004500F03D
:10292000D9F87CBD0AD7233C00000000F0B58646EC
:102930004FF0FF3000230B4DC70710E05EF8236017
:102940003A46002400284FEA400000DA6840164268
:1029500000D068405208641C202CF3D35B1C8B42CF
:10296000ECD3F0BDB71DC10410B514460B4603E00F
:1029700013F8011B00F004F8641EF9D210BD00002A
:102980004140034AC9B232F8111081EA1020704761
:10299000003B000891ED010AD2ED020A92ED011A06
:1029A00020EE200AD1ED020A00EEC10A80ED000AF5
:1029B00091ED020AD2ED000A92ED021A20EE200AF1
:1029C000D1ED000A00EEC10A80ED010A91ED000A86
:1029D000D2ED010A92ED001A20EE200AD1ED010A93
:1029E00000EEC10A80ED020A7047000070B504468F
:1029F00090F82C000025FD2803D194F82D00EE2836
:102A000001D0A56170BD0E2204F12C010020FFF75A
:102A1000ABFF2084618F814208D0E5622563656346
:102A2000A563A561A06A401CA06270BD94F82E0049
:102A3000DFED230A00F00F012170C0F30210607077
:102A400094F93700606094F838009FED1E1A00F08A
:102A50000700A060B4F9310000EE100AB8EEC00A19
:102A600020EE200A60EE011A9FED170A61EE801A2F
:102A7000C4ED041AB4F92F0001EE900AF8EEE11A41
:102A800061EEA00AC0EE801ADFED100AC4ED031A51
:102A9000D4F8330000EE100AB8EEC00A20EE010AA6
:102AA00020EE200ADFED0A0A20EE200A84ED050A56
:102AB000208FC0F3CB00E0610120A06170BD000059
:102AC0000000803BD00FC9405C8FCA400000003836
:102AD000CFD210412DE9F04FC24C1D462DED0E8B8B
:102AE000FFB0B0EE409A164630EEC98A884681465D
:102AF000B0EE41BADDE996BA002700BF0AEB8700C5
:102B0000B0EE483AD0ED002A0BEB870090ED002A9A
:102B100005EB8700D0ED001A06EB870090ED001A58
:102B200008EB8700D0ED000A09EB870090ED000A62
:102B300007EB470004EBC000FFF786FE7F1CFFB2E7
:102B4000062FDBD3A84F0025F0EE00BAB0EE08CA7E
:102B5000F1EE00CAB1EE04DADFEDA49A9FEDA4AA6B
:102B600007F12009DFEDA3DA0DF5887ADFEDA2AADF
:102B7000DFF8888200EE905AB0EE490A994AF8EEE2
:102B8000600A002034AB564600EE8B0A60EE003A35
:102B900023EE803A63EE002A62EE804A00EB4001A9
:102BA00002EBC10191ED001AD1ED010A91ED024A4B
:102BB00091ED032A00EE801AD1ED041A91ED055A29
:102BC00003EB800104EE231A02EE031A01EEA21AAF
:102BD00005EE241A81ED001A24EE2B1A06EB800173
:102BE000401CC0B241EE000A22EE0C1A062841EE4B
:102BF000230A21EEAC1A41EE030A25EE0D1A41EE2E
:102C0000220AC1ED000AC9D334A890EC030A5EA8D9
:102C100000F066F937A890EC030A6EA800F0F4F80B
:102C20006EAA5EA94AA800F06FFADFF8D4B10024BA
:102C3000DFED74EAB2466E4671484AA9803000EB77
:102C4000041000F02BFC0BEB0410B0EE40EAD0EDCA
:102C5000001AF0EE608AB0EE418A31EEC00A8DEDC6
:102C60003F0A90ED010A30EE600A8DED400A90EDCA
:102C7000020A3FA830EE410A8DED410A00F00AFE3B
:102C80001DB907EB840080ED000A07EB8400D0ED4E
:102C9000000A70EE600A74B1032C0CD080EEAD1AFD
:102CA00040F2E93004FB00F109EB8100C1EE290A92
:102CB00060EE8A0A0AE080EEAA1A40F2E930604328
:102CC00009EB8000C1EE290A60EE8A0A00EB85005C
:102CD00031AAC0ED000ADDED3F0A5BA93AA880EEFB
:102CE000801A8DED311ADDED400A80EE801A8DEDEF
:102CF000321ADDED410A80EE801A8DED331A9DED1A
:102D0000340A3EEE400A8DED5B0A9DED350A38EE41
:102D1000C00A8DED5C0A9DED360A38EE400A8DED55
:102D20005D0AFFF737FE04EB44009DED310A06EB28
:102D3000C00040F2E93180ED000A9DED320A04FB4B
:102D400001F280ED010A9DED330A08EB820180ED6E
:102D5000020A9DED3A0A01EB850280ED030A9DED22
:102D60003B0A002180ED040A9DED3C0A534680EDAC
:102D7000050AC2ED00EA74B1032C0CD000EB810C03
:102D80009CED000A03EB810CDCED000A60EE200AEA
:102D900080EEAD0A0BE000EB810C9CED000A03EB2A
:102DA000810CDCED000A60EE200A80EEAA0AD2ED6A
:102DB000000A491CC9B2062930EEC00A82ED000A99
:102DC000D9D3641CE4B2082CFFF436AF6D1CADB24D
:102DD000B5F57A7F7FF6CEAE7FB0BDEC0E8BBDE849
:102DE000F08F000060FA002000000020DA0F494058
:102DF000000034435C8F423D60E5503D407D002043
:102E0000B03800080000000010B504462DED068B18
:102E1000C0B0F0EE41AAF0EE609AF0EE408AFFF703
:102E2000B3FAB0EE408AB0EE680AFFF755FBF0EE59
:102E3000408AB0EE690AFFF7A7FAB0EE409AB0EE0A
:102E4000690AFFF749FBF0EE409AB0EE6A0AFFF715
:102E50009BFAB0EE40AAB0EE6A0AFFF73DFBF0EE37
:102E600040AA40221D496846FDF7DDF98DED00AA14
:102E7000B1EE6A0A8DED010A1849CDED04AA8DED77
:102E800005AA4022403110A8FDF7CDF98DED109A2A
:102E9000CDED129AB1EE690A10498DED180A8DED4B
:102EA0001A9A4022803120A8FDF7BDF98DED258AC0
:102EB000B1EE680A8DED260ACDED298A8DED2A8ABC
:102EC00010AA694630A800F01FF920AA30A92046B0
:102ED00000F01AF940B0BDEC068B10BDB039000807
:102EE000B7EE002ADFED111A80ED002AC0ED011ABD
:102EF000C0ED021A80ED030AC0ED041A80ED052A28
:102F0000C0ED061AC0ED070AC0ED081AC0ED091A97
:102F100080ED0A2A80ED0B1AC0ED0C1AC0ED0D1AD7
:102F2000C0ED0E1A80ED0F2A70470000000000006F
:102F300001800121418080ED041A9FED0C1A9FED64
:102F40000C2AC0ED051A20EE010AC0EE021A9FED10
:102F5000090A21EE800A80ED030A20EE810A80ED45
:102F6000020A9FED050A80ED010A70475C8FCA4096
:102F700000003443DA0F49400000000001800121C5
:102F8000DFED060A4180C0ED040AC0ED050AC0ED80
:102F9000030AC0ED020A80ED010A7047000000003C
:102FA000AEB0FDF75FFCFEF707FFFEF701FEFEF790
:102FB000C1FEFEF78BFEFEF7DBFE454C0025182216
:102FC0006560444902A8A560FDF72DF94149182222
:102FD000183108A8FDF727F918210EA8FDF73CF9CC
:102FE000182114A8FDF738F918211AA8FDF734F9AB
:102FF000182120A8FDF730F920A914A8CDE9000177
:10300000B2EE040A08AB1AAA0EA902A8FFF77CFCCC
:10301000FEF754FC3048FEF731F86420FDF700FB62
:103020002E4E00BFFEF71AFD2070FEF711FD6070F6
:10303000217831B3E8B9307801281AD129489FEDB9
:10304000280A80ED000A284880ED000A274880ED14
:10305000000A274880ED000A264880ED000A26482D
:1030600080ED000A254880ED000A254880ED000A21
:103070003570FEF723FCFEF79BFF0A20FDF7D0FA20
:1030800001E000F0A5F926A8FEF7CAFC1C2226A93B
:103090001C48FDF7C8F826A8FEF7C8FC19481C22F2
:1030A00026A91C30FDF7BFF826A8FEF7C5FC154879
:1030B0001C2226A93830FDF7B6F826A8FEF7C2FC78
:1030C00010481C2226A95430FDF7ADF8AAE70000ED
:1030D0007CC00120003D0008CCC0012002C00120BE
:1030E00000000000A8C00120ACC00120B0C0012039
:1030F000B4C00120B8C00120BCC00120C0C0012064
:10310000C4C00120F0FA0020F0B59FED160A00259A
:10311000002401EB051700EB051C00BF0CEB840637
:103120005FF0000386ED000A07EB830ED6ED000A80
:103130009EED001A02EB031E0EEB840E5B1CDEED0F
:10314000001ADBB2042B41EE210AC6ED000AEBD3D4
:10315000641CE4B2042CE1D36D1CEDB2042DD7D372
:10316000F0BD00000000000010B504462DED048BFA
:103170002220B0EE618A44F8220F0A20E080F0EEAF
:10318000418AB0EE609AA18010EE100AFDF750F966
:103190009FED0B1B53EC112BFDF769F8FDF75BF965
:1031A000206119EE100AE0600020A06018EE900A7D
:1031B000606118EE100AA061BDEC048B10BD000028
:1031C000F9978C385F54C43F10B50446FE20207632
:1031D000EE20607621880020C1B10F2901D30F2194
:1031E0002180618811B1072901D30720608094ED07
:1031F000040ADFED510A51489FED511AB5EEC00A9D
:10320000F1EE10FA04D8C4ED040A07E02080E8E7E4
:1032100010EE101A814201DB84ED041A94ED050AC8
:10322000B5EEC00AF1EE10FA02D8C4ED050A05E0C9
:1032300010EE101A814201DB84ED051A41496068E5
:10324000884202D39FED400A04E04049884203DBF4
:103250009FED3F0A84ED010A3E49A068884202D3EF
:103260009FED3D0A04E03D49884203DB9FED3C0AA7
:1032700084ED020A3B49E068884202D39FED3A0A96
:1032800004E03A49884203DB9FED390A84ED030AE2
:103290002178A07E9FED371A61F30300A1780F22F9
:1032A00061F30610A07694ED040A04F11801C0EE53
:1032B000010A9FED310A60EE800AFDEEE00A10EE91
:1032C000900AA4F82300D4ED050AC0EE811A61EE3D
:1032D000800AFDEEE00A10EE900ADFED280AA4F85D
:1032E0002500D4ED031A81EEA01A21EE000ABDEEEE
:1032F000C00A10EE100AC4F81F0094ED021A81EE05
:10330000200ADFED1F0A20EE200ABDEEC00A10EEF3
:10331000100AA4F81D0094ED010A20EE200ABDEE6B
:10332000C00A10EE100AA4F81B000020FFF71CFBD7
:10333000A4F8270010BD000000000000C1CACC4165
:10334000C1CACC41E1FAFFC2E1FAFFC2E1FAFF4291
:10335000E1FAFF42000049C4000049C400004944AA
:1033600000004944C00FC9C8C00FC9C8C00FC94830
:10337000C00FC948CDCCCC4100000047D00FC94098
:10338000000080432222C0F822200A220285C18444
:10339000002110EE102A0C4BDFED0A0AC0F83210A3
:1033A000C0F82E109A4201DDB0EE600A9FED071AB8
:1033B000C0EE010A10EE902A40F82A2FC160016188
:1033C0007047000000000000000020419A99114160
:1033D00010B500212DED028B9FED2C8A2C48B0EE0C
:1033E000480AFFF7CFFF01212A4800F0A1F8B0EE0C
:1033F000480A01212648FFF7C5FF0121254800F0B2
:1034000097F8B0EE480A02212148FFF7BBFF0121DF
:10341000204800F08DF81E48B0EE480A00214230E6
:10342000FFF7B0FF02211B4800F082F81848B0EE09
:10343000480A01214230FFF7A5FF0221154800F09C
:1034400077F81348B0EE480A02214230FFF79AFF9E
:103450000221104800F06CF80D48B0EE480A002137
:103460008430FFF78BFD03210B4800F061F808481A
:10347000B0EE480A01218430FFF780FDBDEC028BDD
:103480000321BDE81040044800F052B800000000DD
:10349000ECC1012014C101205CC10120D0ED001A53
:1034A00091ED000AD0ED012AD1ED010A21EE800A4A
:1034B00090ED023A90ED032A91ED051A02EEA00A72
:1034C000D1ED020AD1ED093A03EE200AD1ED030A4B
:1034D00002EE200AD1ED040A61EEA00A42EE810A52
:1034E00091ED061A43EE010A91ED071A42EE010A28
:1034F00091ED081A21EE811A02EEA31AD1ED0A3AD3
:1035000003EE231AD1ED0B3A02EE231AD1ED0C3A59
:1035100061EEA31AD1ED0D3A42EEA31AD1ED0E2AB7
:1035200043EE221AD1ED0F2A42EE221A7047000014
:103530002DE9F34FDFF814B3A3B00E46032974D07E
:10354000012E75D0022E72D1C14CA04604F27C45EA
:1035500004F28A2A04F2163904F2A237FE2004F893
:10356000010BEE2004F8010B94F8240020700020D9
:10357000607094F82610A170FF21E17020716071D5
:10358000C4F80600A16A00EE101ADFEDB20A20EEC0
:10359000200ABDEEC00A10EE101A6181E16A00EE49
:1035A000101ADFEDAD0A20EE200ABDEEC00A10EEC3
:1035B000101AA181216B00EE101ADFEDA80A80EE2F
:1035C000201A9FEDA70A21EE000ABDEEC00A10EEF8
:1035D000101AC4F80E10616B00EE101ADFEDA10A8C
:1035E00020EE200ABDEEC00A10EE101A6182A16B17
:1035F00000EE101ADFED9C0A20EE200ABDEEC00A94
:1036000010EE101AA182A075E075E06BA061A41EF7
:1036100007212046FFF78AF9C4F81E004FF48064A2
:10362000012E11D0022E23D118E0D6E000E0C9E02F
:10363000874C423CA04604F58E6504F5947A04F567
:10364000DA7904F5107789E7012221468748FDF7EA
:10365000F6F800224FF48071854807E0012211023C
:103660008348FDF7ECF8002221468048FDF7E7F893
:103670000123222241462398FDF754FF0BEB06015C
:10368000012E01F8010C02D0022E14D108E0002214
:1036900021467648FDF7D3F801221102744808E06C
:1036A00000224FF480717248FDF7C9F801222146CB
:1036B0006E48FDF7C4F801234E2229462398FDF7F2
:1036C000D9FE6249C91E314401F8010C2398FDF767
:1036D00034FE01465D48C01E81602399C98DC1F149
:1036E0004E01C160AC788DF802402E798DF80460EF
:1036F00095F906208DF80620EB798DF80730B5F99D
:103700000C10ADF80C10B5F90E00ADF80E00B5F9BF
:103710001AC0ADF81AC0E34695F81EC095F821808E
:1037200000EE101A4CEA086C95F82080ED7F4FEA05
:10373000084848EA05254CEA050CCDF81EC0B8EE4D
:10374000C00A8DF852408DF85360DFED4A0A20EE32
:10375000200ADFED490ACDE9152320EE200A8DED80
:10376000170A00EE100AB8EEC00A9FED441A20EEC8
:10377000010A80EE201A8DED181ADDF81E0000EE09
:10378000100AB8EEC00A10EE100AFCF751FE9FEDC9
:103790003C1B53EC112BFCF7DCFD9FED3B1B53EC6A
:1037A000112BFCF764FDFCF756FECDF86CB01990B8
:1037B0005CB1012C0DD0022C04D18C226946384614
:1037C000FCF731FD25B0BDE8F08F8C2269465046EC
:1037D000F6E78C2269464846F2E71D48423000F180
:1037E0002C0800F1680500F11804FFF7EDFC012238
:1037F000274F160231463846FDF721F801231122E2
:1038000021462398FDF78EFE8BF8020000223146F8
:103810003846FDF714F8012310220BA92398FDF771
:1038200029FE0A49C91E88706846FFF7DFF89DF82F
:1038300000004FF03C020128694604D04FEA08001E
:10384000FCF7F1FCBEE72846FAE700009BC0012028
:103850002EC201200000804300000043F90FC94040
:103860000000804600000045000080440004024043
:10387000000002400000803B9A9911410000003C8A
:10388000F5DA7A8E315FA440E2FBF7BB5A2F19407C
:103890000008024090ED000AD0ED010A20EE000A77
:1038A00000EEA00AD0ED020A00EEA00AFEF7DCBE90
:1038B0009643CBBE54E3A53E85EB513F0000803FCD
:1038C0009643CBBE54E3A5BE85EB513F0000803F3D
:1038D0009643CB3E54E3A5BE85EB513F0000803FAD
:1038E0009643CB3E54E3A53E85EB513F0000803F1D
:1038F0009643CBBE54E3A53E560E2D3E0000803FBE
:103900009643CBBE54E3A5BE560E2D3E0000803F2D
:103910009643CB3E54E3A5BE560E2D3E0000803F9D
:103920009643CB3E54E3A53E560E2D3E0000803F0D
:10393000CDCC4CBDCDCC4C3DCDCC4CBD0000803F62
:10394000CDCC4CBDCDCC4CBDCDCC4CBD0000803FD2
:10395000CDCC4C3DCDCC4CBDCDCC4CBD0000803F42
:10396000CDCC4C3DCDCC4C3DCDCC4CBD0000803FB2
:10397000CDCC4CBDCDCC4C3DCDCC4C3D0000803FA2
:10398000CDCC4CBDCDCC4CBDCDCC4C3D0000803F12
:10399000CDCC4C3DCDCC4CBDCDCC4C3D0000803F82
:1039A000CDCC4C3DCDCC4C3DCDCC4C3D0000803FF2
:1039B0000000000000000000000000000000000007
:1039C00000000000000000000000000000000000F7
:1039D00000000000000000000000803F0000000028
:1039E0000000000000000000000000000000803F18
:1039F00000000000000000000000000000000000C7
:103A0000000000000000803F0000000000000000F7
:103A100000000000000000000000000000000000A6
:103A20000000000000000000000000000000803FD7
:103A30000000803F000000000000000000000000C7
:103A40000000000000000000000000000000000076
:103A50000000000000000000000000000000000066
:103A60000000000000000000000000000000803F97
:103A70000000000000000000713D0A3E0000000050
:103A800000000000000000000000803E0000803EBA
:103A90001F85AB3E00000000000000000000000099
:103AA0000000000000000000713D0A3E0000000020
:103AB0000000000000000000000080BE000080BE8A
:103AC0001F85AB3E00000000000000000000000069
:103AD0000000000000000000713D0A3E00000000F0
:103AE0000000000000000000000080BE000080BE5A
:103AF0005C8F223F0000000000000000000000007A
:103B00000000891112239B322446AD573665BF74DD
:103B1000488CC19D5AAFD3BE6CCAE5DB7EE9F7F88D
:103B20008110080193331A22A5562C47B7753E64BD
:103B3000C99C408DDBBF52AEEDDA64CBFFF976E86D
:103B400002218B30100299132667AF763444BD559D
:103B50004AADC3BC588ED19F6EEBE7FA7CC8F5D94D
:103B600083310A2091121803A7772E66B5543C457D
:103B7000CBBD42ACD99E508FEFFB66EAFDD874C92D
:103B800004428D5316619F702004A9153227BB365D
:103B90004CCEC5DF5EEDD7FC6888E1997AABF3BA0D
:103BA00085520C4397711E60A1142805B3373A263D
:103BB000CDDE44CFDFFD56ECE9986089FBBB72AAED
:103BC00006638F7214409D512225AB343006B9171D
:103BD0004EEFC7FE5CCCD5DD6AA9E3B8788AF19BCD
:103BE00087730E6295501C41A3352A24B1163807FD
:103BF000CFFF46EEDDDC54CDEBB962A8F99A708BAD
:103C0000088481951AA793B62CC2A5D33EE1B7F0DC
:103C10004008C919522BDB3A644EED5F766DFF7C8C
:103C2000899400859BB712A6ADD224C3BFF136E0BC
:103C3000C1184809D33B5A2AE55E6C4FF77D7E6C6C
:103C40000AA583B4188691972EE3A7F23CC0B5D19C
:103C50004229CB38500AD91B666FEF7E744CFD5D4C
:103C60008BB502A499961087AFF326E2BDD034C17C
:103C7000C3394A28D11A580BE77F6E6EF55C7C4D2C
:103C80000CC685D71EE597F42880A1913AA3B3B25C
:103C9000444ACD5B5669DF78600CE91D722FFB3E0C
:103CA0008DD604C79FF516E4A9902081BBB332A23C
:103CB000C55A4C4BD7795E68E11C680DF33F7A2EEC
:103CC0000EE787F61CC495D52AA1A3B03882B1931C
:103CD000466BCF7A5448DD59622DEB3C700EF91FCC
:103CE0008FF706E69DD414C5ABB122A0B9923083FC
:103CF000C77B4E6AD5585C49E33D6A2CF11E780FAC
:103D00000000000000000000713D0A3E00000000BD
:103D100000000000000000000000000000000000A3
:103D2000C3F5083F00000000000000000000000094
:103D3000000000000000000001020304060708095B
:103D40000000000001020304000000006E83F9A2DD
:103D50002915444ED15727FCC0DD34F5999562DB17
:103D60004190433CAB6351FE983D000800C00120E8
:103D7000CC0000001C280008983D0008000000202E
:103D8000E0A801002C280008643E0008CCC00120F7
:103D90003C0600002C280008000001000100000083
:103DA00000000000001402400200000000000000BB
:103DB0000000000000000000000000000000000003
:103DC0000014024004000000000000000000000099
:103DD000000000000000000000000000001402408D
:103DE00008000000000000000000000000000000CB
:103DF000000000000000000000140240100000005D
:103E000000000000000000000000000000000000B2
:103E100000000000000000000000000000000000A2
:103E20000100000010000000000000000024F40069
:103E30000000000000000000000000000000000082
:103E40000000000000000000000000000000000072
:103E50000000000000000000000000000000000062
:043E6000000000005E
:040000050800018965
:00000001FF
