:020000040800F2
:10000000F8C60020A10100086F1C00082116000896
:100010006D1C000819060008C72100080000000038
:10002000000000000000000000000000731C000839
:100030001B06000800000000711C0008751C000869
:10004000BB010008BB010008BB010008BB010008A0
:10005000BB010008BB010008BB010008BB01000890
:10006000BB010008BB010008BB010008BB01000880
:10007000BB010008BB010008BB010008BB01000870
:10008000BB010008BB010008BB010008BB01000860
:10009000BB010008BB010008BB010008BB01000850
:1000A000BB0100081D1D0008BB010008BB010008C2
:1000B000291D0008BB010008BB010008BB010008A6
:1000C000BB010008BB010008BB010008BB01000820
:1000D000BB010008BB010008BB010008BB01000810
:1000E000BB010008BB010008BB010008BB01000800
:1000F000BB010008BB010008BB010008BB010008F0
:10010000BB010008BB010008BB010008BB010008DF
:10011000BB010008BB010008BB010008BB010008CF
:10012000BB010008BB010008BB010008BB010008BF
:10013000BB010008BB010008BB010008BB010008AF
:10014000BB010008BB010008BB010008BB0100089F
:10015000BB010008BB010008BB010008BB0100088F
:10016000BB010008BB010008BB010008BB0100087F
:10017000BB010008BB010008BB0100080000000033
:10018000BB010008BB010008DFF810D000F032FA14
:1001900000480047552C0008AFF30080F8C6002047
:1001A0000648804706480047FEE7FEE7FEE7FEE711
:1001B000FEE7FEE7FEE7FEE7FEE7FEE70D1D0008AF
:1001C000890100082DE9F05F0546002092469B4614
:1001D00088460646814640241BE02846414647465D
:1001E000224600F063F953465A46C01A914110D393
:1001F00011461846224600F04AF92D1A67EB01080D
:100200004F4622460120002100F041F917EB00097A
:100210004E41201EA4F10104DFDC484631462A4647
:100220004346BDE8F09F40EA01039B0703D009E085
:1002300008C9121F08C0042AFAD203E011F8013BD2
:1002400000F8013B521EF9D27047D2B201E000F82B
:10025000012B491EFBD270470022F6E710B513466A
:100260000A4604461946FFF7F0FF204610BD2DE967
:10027000FE4F81EA030404F0004421F000410094A1
:100280004FF0000B23F0004350EA01045ED052EA25
:1002900003045BD0C3F30A54C1F30A552C44A4F2FF
:1002A000F3340194A0FB0254C1F3130141F4801113
:1002B000C3F3130343F4801301FB024400FB034E1A
:1002C000840A970A44EA815447EA8357A4FB0768E3
:1002D00002958D0A05FB07854FEA932C04FB0C540D
:1002E0002705029D4FEA065847EA1637B5EB080581
:1002F0006EEB070C870E920E47EA811742EA8312D3
:10030000A7FB0201B6EB0B0164EB00042B0D43EAE3
:100310000C335E1844EB1C50DA465146E7FB0201F1
:10032000C5F313044FEA0B3343EA14534FEA043284
:10033000019C43EA0603A4F10C040294009CCDE95D
:1003400000B400F009F903B0BDE8F08F00200146C9
:10035000F9E72DE9F04D81EA030404F0004B21F0A8
:10036000004514464FF0000A23F0004150EA050210
:1003700020D054EA01021DD0C5F30A570246C5F346
:100380001303C1F31300C1F30A5640F4801543F47C
:100390008013A7EB0608101BD64608F2FD3873EB56
:1003A000050002D308F1010801E092185B41B8F1A1
:1003B000000F03DA00200146BDE8F08D00204FF465
:1003C0008011064684460EE0171B73EB050705D324
:1003D000121B63EB050306434CEA010C49084FEA84
:1003E000300092185B4150EA0107EDD152EA030058
:1003F00012D082EA040083EA0501084305D0101BED
:10040000AB4106D20122002306E000224FF0004358
:1004100002E06FF0010253101AEB06004CEB08519A
:1004200010EB0A0041EB0B01BDE8F04D00F085B880
:1004300000F0004230F000400AD0C10D01F56071BB
:10044000C0F3160042EA0151C20840071143704749
:1004500000200146704701F0004330B421F0004114
:1004600050EA010206D00A0DA2F56072C1F3130131
:10047000002A02DC30BC00207047440F44EAC1046B
:10048000C100E01830BC00EBC25000F01FB8202AB9
:1004900004DB203A00FA02F1002070479140C2F1DB
:1004A000200320FA03F3194390407047202A04DB0D
:1004B000203A21FA02F00021704721FA02F3D040DD
:1004C000C2F1200291400843194670470029A8BF95
:1004D0007047401C490008BF20F00100704710B46D
:1004E000B0FA80FC00FA0CF050EA010404BF10BC22
:1004F000704749B1CCF1200421FA04F411FA0CF14F
:1005000018BF012121430843A3EB0C01CB1D4FEA87
:1005100000614FEA102042BF002010BC704700EB82
:10052000C35010440029A4BF10BC7047401C4900B0
:1005300008BF20F0010010BC704710B5141E73F105
:10054000000408DA401C41F1000192185B411A4393
:1005500001D120F0010010BD2DE9F04D92469B46DF
:1005600011B1B1FA81F202E0B0FA80F22032904685
:10057000FFF78DFF04460F4640EA0A0041EA0B01EF
:1005800053465A46084313D0114653EA010019D086
:10059000C8F140025046FFF789FF05460E46504617
:1005A00059464246FFF773FF084305D0012004E097
:1005B00020463946BDE8F08D0020054346EAE07646
:1005C0002C4337430A986305E40AA0EB0800002295
:1005D000FD0A44EA47540A3002D500200146E9E703
:1005E000010510196941DDE9084500196941BDE8B7
:1005F000F04DA2E7064C074D06E0E06840F001032D
:1006000094E8070098471034AC42F6D3FFF7C0FDDA
:1006100088350008A8350008FEE7704772B6FEE787
:1006200070B5044600F010F90546601C02D004487D
:100630000078044400F008F9401BA042FAD370BDD2
:10064000440000202DE9F84FDFF8BCA1002201256D
:1006500003264FF00F090AF1040BAAF1040E00BFA4
:100660000B6805FA02F42340A34270D10F7907F01A
:100670000307012F01D0022F16D187684FEA4208E5
:1006800006FA08FC27EA0C07D1F80CC00CFA08FCA3
:100690004CEA070CC0F808C04768A7430C79C4F3BC
:1006A000001494403C4344600C79E443A4070AD00E
:1006B000C4684FEA420C06FA0CF7BC438F6807FA8D
:1006C0000CF72743C7600C7904F00304022C12D105
:1006D000D40800EB840CDCF820405707FF0E09FA21
:1006E00007F824EA0804D1F8108008FA07F848EA65
:1006F0000408CCF8208004684FEA420C06FA0CF794
:10070000BC430F7907F0030707FA0CF7274307608C
:100710004C6814F4403F70D03C4C276847F4804745
:100720002760246822F0030704F480440094384CC6
:1007300007EB040CDCF8084897074FEA177809FA2A
:1007400008F7BC43334FB84202D1002724E054E0FD
:10075000314FB84201D101271EE0304FB84201D1DC
:10076000022719E02E4FB84201D1032714E02D4F84
:10077000B84201D104270FE02B4FB84201D1052721
:100780000AE02A4FB84201D1062705E0284FB842B7
:1007900001D1072700E0082707FA08F72743CCF81C
:1007A0000878DAF800405746D1F804C09C435FEA65
:1007B000CC2C00D51C433C60DBF800405F46D1F8F0
:1007C00004C09C435FEA8C2C00D51C433C60DEF8DF
:1007D00000407746D1F804C09C435FEA8C3C00D5CA
:1007E0001C433C60084F083F3C68D1F804C09C4360
:1007F0005FEACC3C00D51C433C60521C102AFFF43D
:100800002FAFBDE8F88F0000083C0140443802409B
:100810000030014000000240000402400008024095
:10082000000C024000100240001402400018024078
:10083000001C02400069084000D0012070470AB146
:10084000816170470904FBE7014880687047000038
:10085000440000200248816802781144816070479A
:10086000440000200B4810B5016841F4007101609C
:10087000016841F480610160016841F480710160A8
:10088000032000F095F80E2000F006F800F04AF87A
:10089000002010BD003C024030B505461C4887B022
:1008A0000024016841F001010160006806A900F020
:1008B0000100009001A800F027F900F055F9154952
:1008C0004000B0FBF1F11548134A491E026040F2A6
:1008D000E732C0E90324C0E90114846100F084FB1D
:1008E000040012D10D4800F0C9FB04000DD11920FD
:1008F00000F030F8102D07D200222946192000F010
:1009000037F80748056000E0012407B0204630BDF5
:100910004438024040420F00000001401080002097
:10092000480000200A4808B5016841F48041016090
:10093000006800F4804000900548001F016841F005
:1009400080510160006800F08050009008BD0000F8
:1009500044380240002809DB00F01F0201219140C9
:100960004009800000F1E020C0F80011704700004D
:10097000F0B40E4B1B680C46C3F30223C3F107050A
:10098000042D00D90425191D072901D2002300E0F8
:10099000DB1E012606FA05F1491E214099409E40C2
:1009A000761E16403143F0BC01F021BC0CED00E096
:1009B000064900F0070208684FF6FF03184040EAB6
:1009C0000220034A10430860704700000CED00E06D
:1009D0000000FA052DE9F0470E46050065D0DFF866
:1009E0001481D8F80000F7B200F00700B04207D237
:1009F00088F80070D8F8000000F00700B04254D129
:100A000028683D4C810712D5400703D5206840F483
:100A1000E05020602878000703D5206840F460404B
:100A200020602068A96820F0F00008432060287842
:100A3000C0072DD0304968680839012812D0022833
:100A400013D0032811D00968890700292DDA2168FD
:100A500021F0030101432160FFF7F6FE814641F2D8
:100A6000883A0EE009688903EFE709688901ECE735
:100A7000FFF7EAFEA0EB0901514502D90320BDE8CA
:100A8000F0872068696800F00C00B0EB810FEFD1AF
:100A9000D8F80010404601F00701B14207D90770AD
:100AA000006800F00700B04201D00120E7E7287895
:100AB000400705D52068E96820F4E050084320602D
:100AC0002878000706D52068296920F4604040EAAC
:100AD000C100206000F058F82168084AC1F30311F2
:100AE000515CC8400649086006480068FFF7D4FE1C
:100AF0000020C4E7003C024008380240503500089E
:100B000050000020480000200F2202600C4A1368A9
:100B100003F003034360136803F0F003836013687A
:100B200003F4E053C36012684FF4E05303EAD202C7
:100B300002610448006800F0070008607047000088
:100B400008380240003C0240044805490068096832
:100B5000044AC1F38221515CC84070475000002014
:100B600008380240603500080448054900680968F3
:100B7000044AC1F34231515CC84070475000002024
:100B80000838024060350008154810B5006810F0BC
:100B90000C02144813D04110042A0FD0082A0ED199
:100BA0000F4C241F2268236802F03F025B0207D526
:100BB0002068C0F38810A0FB010106E0084610BDC4
:100BC0002168C1F38811A1FB00010023FFF7FAFAA5
:100BD0002168C1F30141491C4900B0FBF1F010BD8F
:100BE000083802400024F4002DE9F84F04006ED0CC
:100BF0002078DFF84C93C007A9F104054AD009F129
:100C000004000168C1F38101012908D00068C0F324
:100C1000810002280AD1D9F80000400206D52868D0
:100C2000800337D560680028E1D033E06068B0F514
:100C3000803F10D0B0F5A02F286810D020F480306D
:100C40002860286820F4802028606068A8B1FFF739
:100C5000FBFD06460DE0286840F48030F4E740F4E0
:100C600080202860F7E700BFFFF7EEFD801B6428B7
:100C700073D828688003F7D50CE0FFF7E5FD06463A
:100C800005E000BFFFF7E0FD801B6428F0D828686E
:100C90008003F7D42078DFF8AC8280074FF0000A99
:100CA0003ED5A748001D016811F00C0F08D0006860
:100CB000C0F3810002280BD1D9F80000400207D40C
:100CC0002868800716D5E068012800D112E033E1DA
:100CD000E068B8B10120C8F80000FFF7B5FD06468E
:100CE00005E000BFFFF7B0FD801B0228C0D82868D0
:100CF0008007F7D52868216920F0F80040EAC10094
:100D000028600DE0C8F800A0FFF79EFD064604E04D
:100D1000FFF79AFD801B02281FD828688007F7D4A8
:100D20002078000722D5864F87486169703771B1F6
:100D300001210160FFF788FD064604E0FFF784FD0E
:100D4000801B022809D838688007F7D50EE0C0F864
:100D500000A0FFF779FD064605E082E0FFF774FD8D
:100D6000801B02287DD838688007F7D42078400798
:100D700068D5DFF8CCB100270BF13C0BDBF80000A5
:100D8000C0000BD4DBF8001041F08051CBF800100C
:100D9000DBF80000012700F0805000906B4E3068B7
:100DA000C00510D4306840F480703060FFF74CFD0F
:100DB000009005E0FFF748FD0099401A022850D83E
:100DC0003068C005F6D55E4EA0686C3601280FD09D
:100DD0000528306810D020F001003060306820F025
:100DE00004003060A068B8B1FFF72EFD00900FE05E
:100DF000306840F00100F4E740F004003060F7E7AD
:100E0000FFF722FD0099411A41F28830814266D8ED
:100E100030688007F4D50EE0FFF716FD009007E07C
:100E2000FFF712FD0099411A41F28830814256D8ED
:100E300030688007F4D42FB1DBF8001021F0805126
:100E4000CBF80010A069C8B33D49091D0968C1F37A
:100E5000810102294AD00228504607D0C8F8600014
:100E600000E03CE0FFF7F0FC04463BE04746C8F8F2
:100E70006000FFF7E9FC064605E000BFFFF7E4FC71
:100E8000801B02282BD828688001F7D4D4E90701F9
:100E90000843A16A2E4A490802EB0141626A41EA0D
:100EA0008211084394F82C1040EA0161C9F800103F
:100EB00001203866FFF7C8FC044606E03EE000BFAC
:100EC000FFF7C2FC001B022809D828688001F7D56B
:100ED00034E000BFFFF7B8FC001B022802D9032052
:100EE000BDE8F88F28688001F4D427E00128F7D006
:100EF000D9F80000E26900F4800191421CD1226A15
:100F000000F03F01914217D147F6C071626A01407B
:100F1000B1EB821F10D1A26A4FF0FF3300F44031D1
:100F200003EB5202B1EB024F06D194F82C1000F003
:100F30007060B0EB016F01D00120D1E70020CFE756
:100F40000438024000004742800E474200700040D3
:100F50000000FFFF7047704770B590F83C20012AF1
:100F600032D0012480F83C40022280F83D20036802
:100F70005A689D6822F070060A6832435A60134B23
:100F800002689A4214D0B2F1804F11D0104B9A42AD
:100F90000ED0104B9A420BD00F4B9A4208D00F4BF9
:100FA0009A4205D00E4B9A4202D00E4B9A4204D17F
:100FB000496825F080031943916080F83D40002185
:100FC00080F83C10084670BD022070BD0000014052
:100FD0000004004000080040000C004000040140F4
:100FE000004001400018004010B5040003D094F800
:100FF0003D0010B107E0012010BD002084F83C0046
:10100000204600F01FF8022084F83D00211D2068D2
:1010100000F090FE012084F8460084F83E0084F839
:101020003F0084F8400084F8410084F8420084F8CE
:10103000430084F8440084F8450084F83D00002013
:1010400010BD000008B50068B0F1804F12D10A4809
:10105000016841F0010101600068002200F0010018
:1010600000900F211C20FFF783FCBDE808401C20E6
:10107000FFF770BC08BD00004038024090F83D10FA
:10108000012901D001207047022180F83D1001683C
:10109000CA6842F00102CA6000681149884214D04F
:1010A000B0F1804F11D00F4988420ED00E498842CE
:1010B0000BD00E49884208D00D49884205D00D4911
:1010C000884202D00C49884204D1816801F00701AE
:1010D000062903D0016841F001010160002070473A
:1010E000000001400004004000080040000C0040E7
:1010F00000040140004001400018004070B5044663
:1011000090F83C000025012817D0012684F83C60A7
:10111000022084F83D002068826822F0770222F4E1
:101120007F4282600868502838D00DDC20284FD0DC
:1011300005DC90B3102811D14AE0022070BD3028A0
:1011400046D040280AD13BE060282FD070280DD02F
:10115000B0F5805F03D0B0F5005F12D0012584F8B0
:101160003D60002084F83C00284670BDCB68D1E982
:101170000121206800F046FE2068816841F0770177
:1011800009E0CB68D1E90121206800F03BFE20682E
:10119000816841F480418160E1E719E0CA684968EB
:1011A000206800F041FE5021206806E0CA684968C6
:1011B000206800F04AFE6021206800F02DFECEE796
:1011C000CA684968206800F02FFE40212068F4E7D3
:1011D000226801461046F0E770472DE9F0410446C9
:1011E0000068C66805694FF00007A90713D5B10765
:1011F00011D5F91E016101202077206880698007E0
:10120000204602D0FFF7E8FF04E000F07EF8204619
:1012100000F07CF82777680716D5700714D5216889
:101220006FF004000861022020772068806910F4C4
:10123000407F204602D0FFF7CFFF04E000F065F8C2
:10124000204600F063F82777280715D5300713D517
:1012500021686FF008000861042020772068C069C9
:101260008007204602D0FFF7B7FF04E000F04DF8FA
:10127000204600F04BF82777E80616D5F00614D57F
:1012800021686FF010000861082020772068C0698D
:1012900010F4407F204602D0FFF79EFF04E000F0EC
:1012A00034F8204600F032F82777E80708D0F00736
:1012B00006D021686FF001000861204600F028F890
:1012C000280608D5300606D521686FF08000086131
:1012D0002046FFF73FFE680608D5700606D5216850
:1012E0006FF040000861204600F026F8A8060AD5F5
:1012F000B00608D521686FF0200008612046BDE8DF
:10130000F041FFF728BEBDE8F0817047704700004C
:1013100010B5044600680749884201D1FFF79AFAE0
:101320002068B0F1804F03D1BDE8104000F000BB51
:1013300010BD0000000001407047406C704770B560
:10134000040004D094F84100002510B106E001200B
:1013500070BD84F84050204600F024F8242084F822
:1013600041002068C16821F40051C160204600F0AE
:101370006BFE2068016921F4904101612068416998
:1013800021F02A0141612068C16841F40051C16027
:101390006564202084F8410084F8420065630020E1
:1013A00070BD0000F0B587B0044614216846FEF712
:1013B00053FF27683F493E4C00223E4B143902251B
:1013C00003263D484FF0070CA74217D11C6844F094
:1013D00010041C601B6803F0100305930B6843F0B6
:1013E00001030B60096802AC01F001010591710273
:1013F000CDE9001584E8441069461AE02D4CDFF869
:10140000BCE0241F774518D1236843F400332360E0
:10141000236803F4003305930B6843F001030B606A
:10142000096801F0010105910C21CDE9001569461B
:101430001CE0FFF707F907B0F0BD2148874219D13A
:10144000206840F480202060206800F4802005900F
:10145000086840F0020008600868694600F0020071
:1014600005904FF44060CDE90005164802AB83E8D3
:101470004410DEE714488742DDD1186840F02000B0
:101480001860186800F020000590086840F004001B
:1014900008600868029200F004000590C020CDE9C1
:1014A00000050820CDE9036069460848C1E700004F
:1014B0000010014044380240000002400044004057
:1014C00000480040000402400014014000080240AF
:1014D0002DE9F84F044690F842009A4616460D460C
:1014E000202802D00220BDE8F88FB5B1AEB10020AF
:1014F0006064222184F842102063FFF7A5F9A685D5
:101500008146E685A0684FF480582027404501D1E8
:10151000206920B12E46002529E00120E3E70026BE
:1015200025E04B46002220212046CDF800A000F007
:1015300011FE18B184F842700320D4E726B1A068E8
:1015400040451AD038B108E020684068C0F3080070
:1015500025F8020B08E0206978B12068406800F0A7
:101560007F0000BF06F8010BE08D401EE085E08D96
:101570000028D6D184F84270B5E720684068F1E7CA
:101580002DE9F843044690F84100984616460D466A
:10159000202802D00220BDE8F88385B17EB100206A
:1015A0006064212084F84100FFF74EF9A68481464B
:1015B000E684A0682027B0F5805F02D003E0012018
:1015C000E9E7206910B12E4600250EE000260CE068
:1015D0008021204600F0BEFDA8B9C6B116F8010B67
:1015E00021684860E08C401EE084E08C4B464FF060
:1015F0000002CDF800800028EAD14FF040012046DB
:1016000000F0A8FD40B184F841700320C3E735F82D
:10161000020BC0F30800E3E784F841700020BAE74A
:10162000FEE7000010B504462DED028B82B09FED61
:10163000308ADFED308A0090F0EE480AB0EE680A9A
:101640002D4B2E4A0021012000F05AF80121F0EE26
:10165000480AB0EE680A284B284A0846009400F071
:101660004FF8F0EE480AB0EE680A234B234A0021F7
:101670000220009400F044F8F0EE480AB0EE680A48
:101680001D4B1E4A01210220009400F039F8F0EEB3
:10169000480AB0EE680A184B184A0021032000944B
:1016A00000F02EF8F0EE480AB0EE680A124B134A2A
:1016B00001210320009400F023F8F0EE480AB0EE78
:1016C000680A0D4B0D4A00210420009400F018F820
:1016D000F0EE480AB0EE680A074B084A01210420E0
:1016E000009400F00DF802B0BDEC028B10BD0000BC
:1016F000CDCCCC3D5839B43C483F0020A800002058
:101700002DE9F041F0EE601AB0EE401A0F460546A2
:101710009FED500ADDF818C00128F0EE400A16D0FF
:10172000022D17D0032D18D0042D79D14A4E4B4CE1
:1017300002EB8C004A4903EB8C028FB1012D48D09B
:10174000022D53D0032D5ED0042D76D169E0454E95
:10175000454CEDE7454E464CEAE7464E464CE7E73A
:10176000012D06D0022D0DD0032D18D0042D64D1EB
:1017700022E090ED000AD1ED000A30EE200AD2ED11
:10178000000A5AE000F54060D1ED020A90EDEA0A45
:1017900002F5406230EE200AD2EDEA0A4DE000F593
:1017A000E050D1ED040A90EDD40A02F5E05230EE9B
:1017B000200AD2EDD40A40E000F53050D1ED060AFF
:1017C00090EDBE0A02F5305230EE200AD2EDBE0A8C
:1017D00033E000F58060D1ED010A90EDF50A02F5E5
:1017E000806230EE200AD2EDF50A26E000F5A05026
:1017F000D1ED030A90EDDF0A02F5A05230EE200A87
:10180000D2EDDF0A19E000F51050D1ED050A90ED98
:10181000C90A02F5105230EE200AD2EDC90A0CE0D6
:1018200015E000F55050D1ED070A90EDB30A02F52E
:10183000505230EE200AD2EDB30A3946304601F05C
:10184000B9FA29462046BDE8F04101F0BFBBBDE82A
:10185000F0810000000000001E810020C87F0020F1
:101860006400002058800020F07E00209A80002034
:10187000387F0020DC800020807F0020024B0ECBD0
:1018800080E80E007047000008000020024B0ECBDD
:1018900080E80E007047000014000020024B0ECBC1
:1018A00080E80E007047000020000020024B0ECBA5
:1018B00080E80E00704700002C00002001484078AE
:1018C00070470000000000200148007870470000C9
:1018D0000000002015480123C1792C380329027823
:1018E00013D0002A10D011492439C97902291AD0FD
:1018F0000E491839C979022905D00C490C39C97922
:10190000022901D103214170704700212AB10170E1
:10191000417041808180C180704703704170418077
:101920008180C180DFE74370704700002C000020F9
:1019300010B5094800F012F807480C3000F00EF816
:101940000548183000F00AF80348243000F006F883
:10195000BDE81040FFF7BEBF0800002070B5044688
:1019600081880068FEF766FFA8B100210020E071C1
:10197000A57901238DB10222012D12D00323022D5E
:1019800014D0042D0CD1E9B1217A491CC9B22172BD
:10199000642914D203E00121E8E701B1A371E071E9
:1019A00070BD09B1A2710AE0A071F8E751B1217AC6
:1019B000491CC9B221726429F1D30421A171E371D8
:1019C000207270BDA071E27170BD00002DE9F04F72
:1019D00087B014216846FEF73FFC474800240168A1
:1019E00041F010010160016801F0100105910168EA
:1019F00041F020010160016801F0200105910168BA
:101A000041F080010160016801F0800105910168E9
:101A100041F001010160016801F0010105910168D7
:101A200041F002010160016801F0020105910168C5
:101A300041F0040101600068DFF8C09000F004008C
:101A40000122059051024846FEF7F9FE00224FF4AC
:101A500080614846FEF7F3FEDFF8A4A04FF48176DC
:101A6000002231465046FEF7EAFEDFF898B04FF408
:101A70000047002239465846FEF7E1FE4FF48078D1
:101A8000002241462048FEF7DAFE1820CDE9000486
:101A9000694658460294FEF7D5FD1E20CDE90004A4
:101AA000694648460294FEF7CDFD4FF4C0600090B1
:101AB0000125CDE90154694648460394FEF7C2FD6D
:101AC0000096CDE90154694650460394FEF7BAFDED
:101AD0000097CDE90154694658460394FEF7B2FDDC
:101AE000CDF80080CDE90154694607480394FEF71C
:101AF000A9FD07B0BDE8F08F303802400014024065
:101B000000000240001002400008024010B586B0FC
:101B100000241748009401940294039404944FF015
:101B200080410594016042F2CF01C0E9011441F205
:101B30008731C0E9031480218161FFF755FA08B1AC
:101B4000FEF76CFD4FF48050009069460848FFF79F
:101B5000D5FA08B1FEF762FD049404A9044805947F
:101B6000FFF7FAF9002801D0FEF758FD06B010BDC6
:101B7000A87E00200C4810B50A4901600B4941605D
:101B8000002181600C22C160C0E904128161C16141
:101B9000FFF7D5FB002803D0BDE81040FEF73EBD9F
:101BA00010BD000000100140F07E0020003E490002
:101BB0000D4810B50B4901600C494160002181605E
:101BC0000C22C160C0E9041281614FF40041C1617F
:101BD000FFF7B5FB002803D0BDE81040FEF71EBD9F
:101BE00010BD000000440040387F0020003E490046
:101BF0000D4810B50B4901600C494160002181601E
:101C00000C22C160C0E9041281614FF40041C1613E
:101C1000FFF795FB002803D0BDE81040FEF7FEBC9F
:101C200010BD000000480040807F0020003E4900B9
:101C30000C4810B50A4901600B49416000218160E0
:101C40000C22C160C0E904128161C161FFF777FB1A
:101C5000002803D0BDE81040FEF7E0BC10BD000036
:101C600000140140C87F0020003E4900FEE7FEE767
:101C7000704770477047000030B593B03021684618
:101C8000FEF7EAFA14210CA8FEF7E6FA1D48002533
:101C9000016841F080510160006800F080501190AF
:101CA0001948016841F4804101600068022400F491
:101CB0008040119001200090000401908001CDE946
:101CC000064008AA0420A82182E813000B90684669
:101CD000FEF78AFF08B172B6FEE70CA90F2081E873
:101CE00031004FF4A0500F904FF480501090052118
:101CF0000CA8FEF76FFE002801D072B6FEE713B005
:101D000030BD0000403802400070004002480168C9
:101D100041F470010160704788ED00E00148FFF771
:101D20005CBA0000108000200148FFF756BA00009E
:101D3000A87E0020F0B50268274B284D284E294F79
:101D4000294C4FF0804C984209D0604507D0A842FA
:101D500005D0B04203D0B84201D0A04204D122F055
:101D6000700E4A6842EA0E0298421BD0604519D0B4
:101D7000A84217D0B04215D0B84213D0A04211D01B
:101D80001A4DA8420ED01A4DA8420BD0194DA842A8
:101D900008D0194DA84205D0184DA84202D0184DC0
:101DA000A84203D122F44075CA682A434D6922F043
:101DB00080022A438D68C5620D688562984201D011
:101DC000A04201D109690163016841F00401016089
:101DD000012141610260F0BD0000014000040040AB
:101DE00000080040000C0040000401400040014099
:101DF000004401400048014000180040001C004021
:101E00000020004010B5846842EA032224F47F4495
:101E10000A432243826010BD826822F070020A43A6
:101E200042F007018160704710B5036A046A24F02C
:101E300001040462846924F0F00444EA021423F0EB
:101E40000A020A438461026210BD10B5036A046A83
:101E500024F010040462846923F0A00324F4704485
:101E600044EA023243EA01118261016210BD0000BE
:101E700030B55F4CA7B0207800280AD060784FF4C6
:101E8000FA75012807D002283CD0032873D000201F
:101E9000607027B030BDA088E18808436AD16088AF
:101EA00020BB1822534902A8FEF7BDF95149182258
:101EB000183108A8FEF7B7F918210EA8FEF7CCF9DB
:101EC000182114A8FEF7C8F918211AA8FEF7C4F9BA
:101ED000182120A8FEF7C0F920A914A8CDE9000117
:101EE00008AB1AAA0EA902A800F052FC6088A8420A
:101EF00078D82178002975D0FFF794FB6088401CC2
:101F00006080C6E76088E18808436BD1A08828BB61
:101F100038491822303102A8FEF785F935491822D0
:101F2000483108A8FEF77FF918210EA8FEF794F9AA
:101F3000182114A8FEF790F918211AA8FEF78CF9B9
:101F4000182120A8FEF788F920A914A8CDE90001DE
:101F500008AB1AAA0EA902A800F01AFCA088A84291
:101F600040D8217831B1FFF75DFBA088401CA080EC
:101F70008FE700E036E06088A188084332D1E0882E
:101F800028BB1C491822603102A8FEF74CF91949F8
:101F90001822783108A8FEF746F918210EA8FEF796
:101FA0005BF9182114A8FEF757F918211AA8FEF7B3
:101FB00053F9182120A8FEF74FF920A914A8CDE95C
:101FC000000108AB1AAA0EA902A800F0E1FBE08804
:101FD000A84207D8217829B1FFF724FBE088401CEC
:101FE000E08056E727B0BDE8304000F039BF000080
:101FF00000000020C034000801680C3151E8002FB7
:1020000022F4907241E80023002BF5D101681431CD
:1020100051E8002F22F0010241E80023002BF5D106
:10202000016B012909D101680C3151E8002F22F020
:10203000100241E80023002BF5D1202180F8421046
:10204000002101637047000070B504460068016913
:10205000E26821F44051114301612169A068E269FD
:1020600008436169114308432168CA6849F20C6357
:102070009A430243CA6020684169A26921F4407111
:102080001143416131492068884202D03049884279
:1020900002D1FEF769FD01E0FEF756FDE26900237B
:1020A000192164253226B2F5004F626828D0A0FBC2
:1020B0000101930F9200FEF785F80146B0FBF5F0A1
:1020C0006FF01802504301EB800006EB0010B0FBEC
:1020D000F5F000F0F002B1FBF5F002EB0012B1FBFD
:1020E000F5F06FF01803584301EB800006EB001089
:1020F000B0FBF5F000F00F0021681044886070BD5F
:10210000A0FB010192185B41FEF75CF80146B0FBB1
:10211000F5F00201B1FBF5F06FF01803584301EB45
:10212000800006EBC000B0FBF5F000F0F80002EB19
:102130004002B1FBF5F0584301EB800006EBC00014
:10214000B0FBF5F000F00700D6E7000000100140FA
:10215000001401402DE9F843984617460D46044601
:10216000089E24E0701C22D0FEF76EFBA0EB080056
:10217000B0421AD8CEB12068C168490717D5802D62
:1021800015D0402D13D00168C94309070FD4016849
:102190000025406800902046FFF72EFF082060646D
:1021A00084F840500120BDE8F8830320FBE7206855
:1021B000006835EA000004D00020B842D2D00020E8
:1021C000F1E70120F9E7FEE74100080218BF04200B
:1021D0000A0E18BF40F001004FF07F4232EA0101C1
:1021E00008BF40F00200012808BF0520704709071A
:1021F000090E002804DB00F1E02080F8001470478D
:1022000000F00F0000F1E02080F8141D704700007E
:1022100010EE101A08B5444A6846B2EB410F28D9AF
:102220004FF0E640B0EB410F94BF00204FF0FF307D
:1022300000900098002861DB60EE000A10F0010FAA
:1022400045D010F0020FDFED391A9FED391A00EE7C
:10225000E11ADFED381A40EE811A21EEA01AF0EEF5
:10226000400A40EE010A08BFF1EE600AB0EE600AD3
:1022700008BD314B21F0004293423CD911F0004F90
:10228000DFED2E0A20EE201ADFED2D0A19BF31EE08
:10229000601A71EE200A31EE201A71EE600ABDEE6E
:1022A000E01A11EE100A9FED271A00F0030000EE6D
:1022B000C10A9FED251A009000EEC10A9FED231A76
:1022C00000EEC10A9FED221A00EEC10AB1E79FEDB0
:1022D000211A9FED210A10F0020F00EE810A9FEDF6
:1022E0001F1A00EE801AB7EE000A00EE810A18BF2E
:1022F000B1EE400A08BD00F02BF99AE710EE100A83
:102300004000B0F17F4F3CBFB7EE000A08BD07D1D7
:102310004FF0010000F0D6F9BDE8084000F008B920
:10232000BDE8084000F001B9B61F927E336D4C390C
:10233000DA82083CA0AA2ABE490E494683F9223F08
:102340000000004B0000C93F00A0FD390020A2336F
:102350001A61342CB93AB2BACA9F2A3DDDFFFFBEDA
:1023600000B510EE101A2DED028B81B0524A68466E
:10237000B2EB410F2ED94FF0E640B0EB410F94BFC6
:1023800000204FF0FF3000900098B0EE408A002807
:102390006ADB10F0010F4BD068EE080A9FED471A78
:1023A0009FED470A00EE810A9FED461A10F0020FDA
:1023B00000EE801AB7EE000A00EE810A02BF01B0FB
:1023C000BDEC028B00BD00BF01B0B1EE400ABDEC18
:1023D000028B00BD3C4B21F00042934241D911F0E9
:1023E000004FDFED3A0A20EE201ADFED390A19BF5F
:1023F00031EE601A71EE200A31EE201A71EE600A99
:10240000BDEEE01A11EE100A9FED321A00F0030043
:1024100000EEC10A9FED301A009000EEC10A9FED58
:102420002F1A00EEC10A9FED2E1A00EEC10AABE78B
:1024300028EE080A9FED2B1ADFED2B0A10F0020F91
:1024400040EE410A9FED291A00EE201A61EE000AC3
:10245000B0EE480A08EE200AB6D101B0BDEC028BFE
:1024600000BD00F075F88FE718EE100A4000B0F1DB
:102470007F4F0DD218EE100AFFF7A6FE042808BF02
:1024800000F05EF8B0EE480A01B0BDEC028B00BD72
:1024900009D1012000F016F901B0BDEC028B5DF806
:1024A00004EB00F045B801B0B0EE480ABDEC028B79
:1024B0005DF804EB00F039B8B61F927EB93AB2BAB3
:1024C000CA9F2A3DDDFFFFBE490E494683F9223FE0
:1024D0000000004B0000C93F00A0FD390020A233DE
:1024E0001A61342C336D4C39DA82083CA0AA2ABE1A
:1024F00010B52DED028BB1EEC08A18EE100A20F057
:102500000040C0F1FF40C00F0AD010EE100A20F0CA
:102510000040C0F1FF40C00F04BF012000F0D2F81E
:10252000B0EE480ABDEC028B10BD30EE000A7047D9
:10253000DFED020A80EEA00A7047000000000000F4
:102540009FED020A20EE000A704700000000001014
:102550002DE9F0014FF07F42B2EB410F9FBF4FF0EA
:10256000FF310160BDE8F00170474FF0004242EAE0
:102570000123C1F3C752783A551112F01F0C434C96
:10258000CCF120067C44C1F3C752A2F178024FEA95
:10259000621204EB820254F8254008BFD2E90156CA
:1025A00012D0556804FA0CF425FA06F73C439768F4
:1025B00005FA0CF527FA06F8D26807FA0CFCF24087
:1025C00045EA08054CEA0206A4FB034CA5FB0352AE
:1025D000A6FB03631D449D4234BF01260026131948
:1025E000334416B1934202D903E0934201D201224F
:1025F00000E00022624402F1200C9206DC0C42EA68
:10260000443200EE102A5B03DFED210AF8EEC01A17
:1026100000EE103A4FEA9C1C11F0004FB8EE400A51
:10262000C0F800C020EE201A00EE105ADFED190AA3
:10263000B8EE400A20EE200A71EE810A70EE800AA0
:1026400010EE902A02F500626FF30B0200EE902A62
:1026500070EEE11A31EEC11ADFED101A30EE411AB8
:102660009FED0D0A20EE800A01EE210A9FED0C1A63
:1026700000EE810A04BFBDE8F0017047CCF1805143
:102680000160BDE8F001B1EE400A7047E00F0000C4
:10269000000000360000802C22AAFD29DB0FC92F84
:1026A0000000C92F02E008C8121F08C1002AFAD191
:1026B00070477047002001E001C1121F002AFBD1C2
:1026C0007047000001490860704700008400002046
:1026D000F6EE006AB2EE044A61EE265A21EE841A42
:1026E00063EE033A62EEA66AC0ED025A00EE441AA7
:1026F000B1EE004A23EE835A22EE044A25EE036A25
:1027000004EE431AB1EE084A20EE847A66EE034ADC
:1027100007EE431A05EEE31A06EEA31A81EE057AD8
:10272000BAEE0E1AB2EE0E5A21EE811A00EE051A1A
:10273000B1EE0C5A22EE055A05EE031AB2EE005A1B
:1027400080ED037A20EE855A05EE031A05EEA31AF2
:1027500002EEE31AC1EE062A21EE841A00EE441AB4
:10276000C0ED042A80EC020AB0EE080A62EE001AFC
:1027700020EE800A01EEC31A00EE431A05EEE31ABA
:1027800006EEA31A81EE240A80ED050A70470000C8
:102790007CB59FED061ADDE90645F1EE040A9FEDD2
:1027A000040ACDE9004500F04FF87CBD0AD7233C70
:1027B00000000000F0B586464FF0FF3000230B4DBF
:1027C000C70710E05EF823603A46002400284FEA6D
:1027D000400000DA6840164200D068405208641C8D
:1027E000202CF3D35B1C8B42ECD3F0BDB71DC1048E
:1027F00091ED010AD2ED020A92ED011A20EE200AB3
:10280000D1ED020A00EEC10A80ED000A91ED020A44
:10281000D2ED000A92ED021A20EE200AD1ED000A54
:1028200000EEC10A80ED010A91ED000AD2ED010A25
:1028300092ED001A20EE200AD1ED010A00EEC10A45
:1028400080ED020A704700002DE9F04FB04C1D46A4
:102850002DED0E8BFFB0F0EE409A164630EEE98A71
:1028600088468146F0EE41AADDE996BA002700BF0E
:102870000AEB8700B0EE483AD0ED002A0BEB870058
:1028800090ED002A05EB8700D0ED001A06EB8700DB
:1028900090ED001A08EB8700D0ED000A09EB8700E5
:1028A00090ED000A07EB470004EBC000FFF710FFB4
:1028B0007F1CFFB2062FDBD3964F0025B0EE00BA87
:1028C000F0EE08BAB1EE00CAF1EE04CA0DF5847953
:1028D0009FED918A07F57B5800EE905AB0EE690A99
:1028E0008B4AF8EE600A002031AB4E4600EEAA0A91
:1028F00020EE002A62EE001A21EE801A61EE004AF4
:1029000000EB400102EBC101D1ED002AD1ED010A3B
:1029100091ED023A91ED034A40EE802A91ED045A7E
:10292000D1ED053A03EB800143EE022A44EE212A61
:1029300045EE012A43EEA42AC1ED002A63EE0B2ADC
:1029400006EB8001401CC0B242EE800A64EE2B2AE6
:10295000062842EE820A65EE0C2A42EEA10A63EED8
:10296000AC2A42EE810AC1ED000AC9D331A890EC2D
:10297000030A5DA800F046F934A890EC030A6DA89C
:1029800000F0D4F86DAA5DA948A800F0E3F9DFF8DB
:102990008CA100249FED62DADFED62DADFF874B11A
:1029A0000BF1200B9FED60EAB1466E465B4848A9EB
:1029B000803000EB041000F0BFFA0AEB0410B0EE18
:1029C00040AAD0ED001AB0EE609AF0EE418A31EEE6
:1029D000C00A8DED3F0A90ED010A30EE600A8DEDE0
:1029E000400A90ED020A3FA830EE410A8DED410AFF
:1029F00000F078FC1DB907EB840080ED000A07EBBE
:102A000084003CAAD0ED000A40F2F51004FB00F36C
:102A100070EE600A0BEB830000EB85005AA980EE94
:102A2000881AC1EE0D0A60EEAD0AC0ED000ADDEDB8
:102A30003F0A37A880EE801A8DED3C1ADDED400A82
:102A400080EE801A8DED3D1ADDED410A80EE801A90
:102A50008DED3E1A9DED310A3AEE400A8DED5A0A8F
:102A60009DED320A39EE400A8DED5B0A9DED330A89
:102A700038EEC00A8DED5C0AFFF7BAFE04EB4400A5
:102A80009DED3C0A06EBC00008EB830180ED000AD7
:102A90009DED3D0A01EB850280ED010A9DED3E0AA8
:102AA000002180ED020A9DED370A4B4680ED030AB6
:102AB0009DED380A80ED040A9DED390A80ED050A86
:102AC00082ED00EA00EB810C9CED000A03EB810C27
:102AD000491CDCED000AC9B2062960EE200A80EE2E
:102AE000880AD2ED000A30EEC00A82ED000AE9D36E
:102AF000641CE4B2082CFFF459AF6D1CADB2B5F5FF
:102B0000FA7F7FF6E9AE7FB0BDEC0E8BBDE8F08FAB
:102B1000E87D0020880000205C8F423D00330008E3
:102B2000DA0F4940000034430000000010B50446AD
:102B30002DED068BC0B0F0EE41AAF0EE609AF0EEFB
:102B4000408AFFF765FBB0EE408AB0EE680AFFF7F7
:102B500007FCF0EE408AB0EE690AFFF759FBB0EED1
:102B6000409AB0EE690AFFF7FBFBF0EE409AB0EE38
:102B70006A0AFFF74DFBB0EE40AAB0EE6A0AFFF713
:102B8000EFFBF0EE40AA40221D496846FDF74BFBE3
:102B90008DED00AAB1EE6A0A8DED010A1849CDED5E
:102BA00004AA8DED05AA4022403110A8FDF73BFB99
:102BB0008DED109ACDED129AB1EE690A10498DEDA6
:102BC000180A8DED1A9A4022803120A8FDF72BFBC0
:102BD0008DED258AB1EE680A8DED260ACDED298AA4
:102BE0008DED2A8A10AA694630A800F0B3F820AA11
:102BF00030A9204600F0AEF840B0BDEC068B10BD09
:102C000000340008B7EE002ADFED111A80ED002A2B
:102C1000C0ED011AC0ED021A80ED030AC0ED041ADE
:102C200080ED052AC0ED061AC0ED070AC0ED081AAE
:102C3000C0ED091A80ED0A2A80ED0B1AC0ED0C1ABE
:102C4000C0ED0D1AC0ED0E1A80ED0F2A704700007E
:102C5000000000000EB5FDF705FEFFF70DF8FEF7CA
:102C6000B5FEFEF787FFFEF7A3FFFEF74FFFFEF767
:102C7000BFFFFEF7DDFF2B4C00206060A0602A48FC
:102C8000FEF7FCF9294D00BFFEF71EFE2070FEF78F
:102C900015FE6070217801B3C8B926489FED240A5B
:102CA00080ED000A244880ED000A244880ED000AE7
:102CB000234880ED000A234880ED000A224880ED79
:102CC000000A224880ED000A214880ED000AFFF743
:102CD000CFF80A20FDF7A4FC01E000F0C1F8684637
:102CE000FEF7CCFD9DE8070085E807006846FEF783
:102CF000CDFD9DE807000C3585E8070068460C3DD2
:102D0000FEF7CCFD9DE80700183585E8070068460A
:102D1000183DFEF7CBFD9DE80700243585E8070048
:102D2000243DB1E738000020A87E0020787E0020F6
:102D30000000000064000020680000206C000020FB
:102D40007000002074000020780000207C0000202B
:102D500080000020F0B59FED160A0025002401EB4D
:102D6000051700EB051C00BF0CEB84065FF00003A9
:102D700086ED000A07EB830ED6ED000A9EED001AE1
:102D800002EB031E0EEB840E5B1CDEED001ADBB2C1
:102D9000042B41EE210AC6ED000AEBD3641CE4B219
:102DA000042CE1D36D1CEDB2042DD7D3F0BD00008F
:102DB0000000000010B504462DED048B2220B0EE7B
:102DC000618A44F8220F0A20E080F0EE418AB0EEDA
:102DD000609AA18010EE100AFDF72AFB9FED0B1BF5
:102DE00053EC112BFDF743FAFDF735FB206119EE8B
:102DF000100AE0600020A06018EE900A606118EEF2
:102E0000100AA061BDEC048B10BD0000F9978C384E
:102E10005F54C43F2222C0F822200A220285C184C6
:102E2000002110EE102A0C4BDFED0A0AC0F8321018
:102E3000C0F82E109A4201DDB0EE600A9FED071A2D
:102E4000C0EE010A10EE902A40F82A2FC1600161FD
:102E50007047000000000000000020419A991141D5
:102E600010B500212DED028B9FED2D8A2D48B0EE7F
:102E7000480AFFF7CFFF01212B4800F0A7F8B0EE7A
:102E8000480A01212748FFF7C5FF0121264800F025
:102E90009DF82448B0EE480A00214230FFF7BAFFFF
:102EA0000221224800F092F81E48B0EE480A0121A3
:102EB0004230FFF7AFFF02211C4800F087F81948A5
:102EC000B0EE480A00218430FFF7A4FF0321184820
:102ED00000F07CF81348B0EE480A01218430FFF777
:102EE00099FF0321124800F071F80E48B0EE480A2D
:102EF0000021C630FFF78EFF04210E4800F066F86F
:102F00000848B0EE480A0121C630FFF783FFBDEC48
:102F1000028B0421BDE81040064800F057B80000BD
:102F20000000000058800020F07E0020387F002044
:102F3000807F0020C87F0020D0ED001A91ED000AAC
:102F4000D0ED012AD1ED010A21EE800A90ED023A7E
:102F500090ED032A91ED051A02EEA00AD1ED020AC6
:102F6000D1ED093A03EE200AD1ED030A02EE200A60
:102F7000D1ED040A61EEA00A42EE810A91ED061A33
:102F800043EE010A91ED071A42EE010A91ED081A8B
:102F900021EE811A02EEA31AD1ED0A3A03EE231AAA
:102FA000D1ED0B3A02EE231AD1ED0C3A61EEA31AE1
:102FB000D1ED0D3A42EEA31AD1ED0E2A43EE221ABC
:102FC000D1ED0F2A42EE221A704700002DE9F04F92
:102FD000A3B00E46824601297DD0022E78D0032E62
:102FE00077D0042E76D1AD4CA04604F28C5504F275
:102FF0008A3904F21647FE2004F8010BEE2004F88B
:10300000010B94F8240020700020607094F82610C2
:10301000A170FF21E17020716071C4F80600A16AFF
:1030200000EE101ADFED9E0A20EE200ABDEEC00A67
:1030300010EE101A6181E16A00EE101ADFED990AB4
:1030400020EE200ABDEEC00A10EE101AA181216BFD
:1030500000EE101ADFED940A80EE201A9FED930A1D
:1030600021EE000ABDEEC00A10EE101AC4F80E10D0
:10307000616B00EE101ADFED8E0A20EE200ABDEE25
:10308000C00A10EE101A6182A16B00EE101ADFED7B
:10309000890A20EE200ABDEEC00A10EE101AA182A5
:1030A000A075E075E06BA061A41E07212046FFF724
:1030B00081FBC4F81E00804C4FF4004B012E28D039
:1030C000022E29D0032E40D0042E2BD141E002E065
:1030D0000BE014E0D2E0714CC63CA04604F5AD65AF
:1030E00004F5847904F5CA7785E76C4C843CA046E6
:1030F00004F2745504F5EF7904F26A277BE7674C14
:10310000423CA04604F5B06504F52D7904F55077EE
:1031100071E70122110201E0012202214FEA0400BD
:10312000FDF78DFB0123222241465046FEF728FA87
:103130006249012E314401F8010C0ED0022E10D04C
:10314000032E7CD0042E11D19FE0012259465C4809
:10315000E6E7012211025B48E2E700224FF48071AA
:1031600001E0002202212046FDF769FB01234E22E7
:1031700029465046FEF7ACF95049091F314401F881
:10318000010C5046FEF7D9F801464C48001F8160FB
:10319000BAF82E10C1F14E01C160AC788DF8024032
:1031A0002E798DF8046095F906208DF80620EB79CC
:1031B0008DF80730B5F90C10ADF80C10B5F90E000C
:1031C000ADF80E00B5F91AC0ADF81AC0E24695F890
:1031D0001EC095F8218000EE101A4CEA086C95F894
:1031E0002080ED7F4FEA084848EA05254CEA050CA7
:1031F000CDF81EC0B8EEC00A8DF852408DF853606D
:10320000DFED310ACDE915239FED311A20EE200ABA
:10321000DFED2E0A20EE200A8DED170A00EE100ACF
:10322000B8EEC00A20EE010A80EE201A8DED181AC1
:10323000DDF81E0000EE100AB8EEC00A00E020E043
:1032400010EE100AFDF7F4F89FED221B53EC112B42
:10325000FDF77FF89FED211B53EC112BFDF707F8CD
:10326000FDF7F9F8CDF86CA019909CB1012C05D1AF
:103270008C2269464FEA0700FCF7D5FF23B0BDE872
:10328000F08F002259460E486EE700224FF48071FD
:103290000C4869E78C2269464846EDE71E8100200C
:1032A0000000804300000043F90FC9400000804641
:1032B000000000450000804400000240580000204B
:1032C00000100240000802400000803B9A99114122
:1032D0000000003CF5DA7A8E315FA440E2FBF7BBD8
:1032E0005A2F194090ED000AD0ED010A20EE000A95
:1032F00000EEA00AD0ED020A00EEA00AFFF7F8B82F
:103300009643CBBE54E3A53E85EB513F0000803F82
:103310009643CBBE54E3A5BE85EB513F0000803FF2
:103320009643CB3E54E3A5BE85EB513F0000803F62
:103330009643CB3E54E3A53E85EB513F0000803FD2
:103340009643CBBE54E3A53E560E2D3E0000803F73
:103350009643CBBE54E3A5BE560E2D3E0000803FE3
:103360009643CB3E54E3A5BE560E2D3E0000803F53
:103370009643CB3E54E3A53E560E2D3E0000803FC3
:10338000CDCC4CBDCDCC4C3DCDCC4CBD0000803F18
:10339000CDCC4CBDCDCC4CBDCDCC4CBD0000803F88
:1033A000CDCC4C3DCDCC4CBDCDCC4CBD0000803FF8
:1033B000CDCC4C3DCDCC4C3DCDCC4CBD0000803F68
:1033C000CDCC4CBDCDCC4C3DCDCC4C3D0000803F58
:1033D000CDCC4CBDCDCC4CBDCDCC4C3D0000803FC8
:1033E000CDCC4C3DCDCC4CBDCDCC4C3D0000803F38
:1033F000CDCC4C3DCDCC4C3DCDCC4C3D0000803FA8
:1034000000000000000000000000000000000000BC
:1034100000000000000000000000000000000000AC
:1034200000000000000000000000803F00000000DD
:103430000000000000000000000000000000803FCD
:10344000000000000000000000000000000000007C
:10345000000000000000803F0000000000000000AD
:10346000000000000000000000000000000000005C
:103470000000000000000000000000000000803F8D
:103480000000803F0000000000000000000000007D
:10349000000000000000000000000000000000002C
:1034A000000000000000000000000000000000001C
:1034B0000000000000000000000000000000803F4D
:1034C0000000803E0000803E713D0A3E000000008A
:1034D00000000000000000000000803E0000803E70
:1034E0005C8F223F00000000000000000000000090
:1034F0000000803E0000803E713D0A3E000000005A
:1035000000000000000000000000803E0000803E3F
:103510001F85AB3E0000000000000000000000001E
:103520000000803E0000803E713D0A3E0000000029
:1035300000000000000000000000803E0000803E0F
:103540005C8F223F0000000000000000000000002F
:103550000000000000000000010203040607080943
:103560000000000001020304000000006E83F9A2C5
:103570002915444ED15727FCC0DD34F5999562DBFF
:103580004190433CAB6351FEA83500080000002089
:1035900088000000A42600083036000888000020BB
:1035A00070C60000B4260008000000000000000003
:1035B000001402400200000000000000001402405D
:1035C0000400000000000000001402400800000099
:1035D0000000000000140240100000000000000085
:1035E00000000000000000000000000001000000DA
:1035F00010000000000000000024F40000000000A3
:1036000000000000000000000000000000000000BA
:1036100000000000000000000000000000000000AA
:10362000000000000000000000000000000000009A
:040000050800018965
:00000001FF
